:020000040800F2
:10000000803900200D0200088D0F0008D70D000870
:10001000CD0E0008A30400082D5B000800000000BE
:10002000000000000000000000000000254800085B
:100030005B0B0008000000001D130008B94D00080C
:1000400027020008270200082702000827020008EC
:1000500027020008270200082702000827020008DC
:1000600027020008270200082702000827020008CC
:1000700027020008270200082702000827020008BC
:1000800027020008270200082702000827020008AC
:10009000270200082702000827020008270200089C
:1000A000270200082702000827020008270200088C
:1000B000494F0008E94F0008755000082702000862
:1000C000270200082702000827020008270200086C
:1000D000270200087553000861560008F156000811
:1000E000270200082702000827020008270200084C
:1000F000270200082702000827020008270200083C
:10010000270200082702000827020008270200082B
:10011000270200082702000827020008270200081B
:1001200027020008A904000835070008CD080008C8
:1001300000F002F800F05AF80AA090E8000C82449F
:100140008344AAF10107DA4501D100F04FF8AFF27C
:10015000090EBAE80F0013F0010F18BFFB1A43F0A5
:100160000103184798710000B87100000A444FF06D
:10017000000C10F8013B13F0070408BF10F8014B06
:100180001D1108BF10F8015B641E05D010F8016B4B
:10019000641E01F8016BF9D113F0080F1EBF10F8AF
:1001A000014BAD1C0C1B09D16D1E58BF01F801CBD2
:1001B000FAD505E014F8016B01F8016B6D1EF9D555
:1001C0009142D6D37047000000230024002500266A
:1001D000103A28BF78C1FBD8520728BF30C148BFAA
:1001E0000B6070471FB51FBD10B510BD00F01FF9A3
:1001F0001146FFF7F7FF05F0DDFF00F03DF903B40E
:10020000FFF7F2FF03BC00F045F900000948804702
:1002100009480047FEE7FEE7FEE7FEE7FEE7FEE7E8
:10022000FEE7FEE7FEE7FEE704480549054A064B00
:10023000704700001D4E0008310100088033002087
:1002400080390020803500208035002053EA020CE0
:1002500000F069802DE9F04B4FF00006002B1FBF26
:10026000B3FA83F503FA05F424FA05F65E4012BFEB
:100270001643B2FA82F502FA05F4C5F120051EBF55
:1002800022FA05FC44EA0C04203556EA044C4FEAF5
:10029000144418BF641C4FF000084FF0000990424E
:1002A00071EB030C39D3002919BFB1FA81F701FAB8
:1002B00007F6B0FA80F700FA07F6C7F120071EBF6D
:1002C00020FA07FC46EA0C062037B6FBF4FCA7EB45
:1002D0000507103F07F01F0BCBF120060CFA0BFBB4
:1002E0002CFA06F644BFB3460026202FA4BF5E4674
:1002F0004FF0000B5BEA060C08BF4FF0010B19EB47
:100300000B09ABFB027C48EB0608C01B06FB02CCCA
:100310000BFB03CC71EB0C01C1E70B4602464146D7
:100320004846BDE8F08B13B54FF000004FF00001D8
:10033000AFF30080BDE81C407047032A40F23080D4
:1003400010F0030C00F0158011F8013BBCF1020F16
:10035000624498BF11F801CB00F8013B38BF11F897
:10036000013BA2F1040298BF00F801CB38BF00F8AE
:10037000013B11F0030300F02580083AC0F008802B
:1003800051F8043B083A51F804CBA0E80810F5E70F
:10039000121D5CBF51F8043B40F8043BAFF30080F2
:1003A000D20724BF11F8013B11F801CB48BF11F867
:1003B000012B24BF00F8013B00F801CB48BF00F837
:1003C000012B704710B5203AC0F00B80B1E81850EF
:1003D000203AA0E81850B1E81850A0E81850BFF42F
:1003E000F5AF5FEA027C24BFB1E81850A0E81850CE
:1003F00044BF18C918C0BDE810405FEA827C24BF22
:1004000051F8043B40F8043B08BF7047D20728BFAF
:1004100031F8023B48BF11F8012B28BF20F8023BFE
:1004200048BF00F8012B704770477047704775460A
:1004300000F02CF8AE4605006946534620F0070050
:10044000854618B020B5FFF7EFFEBDE820404FF01D
:1004500000064FF000074FF000084FF0000B21F0AE
:100460000701AC46ACE8C009ACE8C009ACE8C0097B
:10047000ACE8C0098D46704710B50446AFF3008064
:100480002046BDE81040FFF7BABE000000487047A4
:100490002033002001491820ABBEFEE726000200F1
:1004A000704700BFFEE700002DE9F04F8BB09A487F
:1004B00000F016FB10B90BB0BDE8F08F964800F0C5
:1004C0004FFA9648007810B906F038FBF3E79448E5
:1004D000007800287ED0924840680790904886684F
:1004E000D0F80C900069069000208D4908708D4866
:1004F000006838B18B4806684E4500D94E4636B97B
:10050000012604E006B901264E4500D94E4607985B
:1005100010B906F013FBCEE7834907980860002066
:10052000486008468660B9F1000F01D1012000E063
:1005300048467D49C860069808B9012000E0069841
:1005400079490861084680688968A0FB0170804687
:10055000022075490969A0FB0123734800684FF028
:10056000000CA2FB001E03FB00E002FB0C00C919FB
:1005700040EB080002226346CDE9021008460399C9
:10058000FFF764FECDE90401DDE9040105F0CCFDCF
:1005900005466548C068A84201D26348C56805B9E8
:1005A00001256148456102205F490969A0FB0110EE
:1005B000CDE90210A5FB0510C91B60EB0800CDE9D1
:1005C0000010084601A90EC9FFF740FE5649886190
:1005D000022000E03CE00969A0FB0101CDE9020135
:1005E000A5FB0510CDE90010084601A90EC9FFF7CB
:1005F0002DFE4D49C8610846C06908B90120C8618F
:1006000002204A490870012044490870002006F081
:1006100083FC044604B90124424804606000089049
:10062000089806F07FFB404800683F494968A0EB06
:10063000010ABAF1800F01D9802000E050460A90EB
:100640000A9841000991099988B205F0ADFA32E79C
:1006500036480078012818D13548006810B906F0EE
:100660006DFA28E73248D0F800B0BBF5807F01D999
:100670004FF4807B2E480068A0EB0B002C490860EB
:100680001FFA8BF005F090FA15E728480078022849
:100690003DD12548006824494968A0EB010ABAF118
:1006A000800F01D9802000E050460A901E48416822
:1006B0000A9808441C49486008464068096888420E
:1006C00002D306F03BFAF6E61749486806F024FC28
:1006D000044604B901241348046060000890089897
:1006E00006F020FB104800680F494968A0EB010A9A
:1006F000BAF1800F01D9802000E050460A900A9894
:1007000041000991099988B205F04EFAD3E606F046
:1007100015FA00BFCFE6000020000010A001002065
:10072000882500209C0100209C290020A101002098
:10073000A40100202DE9FC5F5B4800F0D1F908B965
:10074000BDE8FC9F584800F00BF95848007810B9F4
:1007500006F060F8F4E75648007830B35448D0F813
:1007600004A08568C66800690090002050490870A0
:100770005048006838B14F480568B54200D9354641
:1007800035B9012504E005B90125B54200D9354642
:10079000BAF1000F02D106F03DF8D1E73246294602
:1007A0005046009B05F056FFCAE7434800780128F1
:1007B00029D1802441480068A04201D23F48046802
:1007C0003F48006820443E4908603C480068001BE0
:1007D0003A4908603B48006810B906F01BF8AFE7DB
:1007E0003848D0F80080B8F5807F01D94FF4807880
:1007F00034480068A0EB0800324908601FFA88F00E
:1008000005F0A6F99CE72C480078022847D12E482D
:1008100000682D494968A0EB0109B9F1800F01D9A1
:10082000802000E048460446274840682044264986
:100830004860084640682249086023480068224909
:100840004968401A1D4908601F4840681E490968E8
:10085000884202D305F0DEFF72E71B49486806F0C4
:10086000F7FA074607B90127124807607800019098
:10087000019806F0A3FA1448006813494968A0EBF0
:100880000109B9F1800F01D9802000E048460446F3
:100890004FEA440B1FFA8BF005F05AF950E705F0C8
:1008A000B9FF00BF4CE7000000020010B0010020BB
:1008B000BC290020AC010020BC010020B8010020B0
:1008C000B4010020C0010020D02D002010B5224826
:1008D00000F006F900B910BD1F4800F041F81F48AC
:1008E000C0691E49896808441C49C86108464068B7
:1008F0008968401A194948600846406810B900F0F4
:10090000E9FCE8E715484068802806D80320134929
:1009100048750846006AC8600BE01048C0680F4977
:100920000969884205D20D4800690C49C860022057
:1009300048750A49C968480000F0B6FB0748406896
:10094000802801D9802001E0044840680446204600
:1009500000F060FB00BFBEE700200010F02D00207B
:1009600000F0805111B10349086001E0024948607C
:1009700070470000040402400000024021B10268F8
:1009800042F00102026004E002684FF6FE731A4072
:100990000260704701684FF6FE721140016000214D
:1009A000016041608160C1604B49884208D14A4979
:1009B0000839496841F00F01474A083A51608AE016
:1009C00045491431884208D143490839496841F002
:1009D000F001414A083A51607DE03F4928318842A0
:1009E00008D13D490839496841F470613A4A083AEA
:1009F000516070E038493C31884208D136490839A5
:100A0000496841F47041344A083A516063E0324920
:100A10005031884208D130490839496841F4702181
:100A20002D4A083A516056E02B496431884208D17A
:100A300029490839496841F47001274A083A516048
:100A400049E025497831884208D123490839496865
:100A500041F07061204A083A51603CE01F498842E9
:100A600006D1011F096841F00F01021F116032E039
:100A70001A491431884208D11849091F096841F000
:100A8000F001164A121F116025E0144928318842EE
:100A900008D11249091F096841F470610F4A121FF9
:100AA000116018E00D493C31884208D10B49091FFB
:100AB000096841F47041094A121F11600BE00749AF
:100AC0005031884207D10549091F096841F4702156
:100AD000024A121F116070470800024008040240D9
:100AE00001460020002201F0805313B1054B1A6823
:100AF00001E0054B1A6802EA01030BB1012000E096
:100B00000020704700040240000002401AB1036850
:100B10000B43036002E003688B430360704710B52A
:100B20000022026847F6F0739A430C6A8B682343ED
:100B30000C6923434C6923438C692343CC692343C9
:100B40004C6A23438C6A23431A430260CB68436098
:100B50000B6883604B68C36010BD704710B56FF0C1
:100B6000040004F015F90A4800680A49B0FBF1F0E6
:100B7000094908700846007800EB4001C1EBC0103D
:100B80004FF6FF7101EAC0000449088010BD000063
:100B9000C801002000127A0000000020020000209E
:100BA00001460D4A12784A434FF0E0235A61002271
:100BB0009A6101221A6100BF4FF0E022106900F033
:100BC00001021AB100F48032002AF5D000224FF061
:100BD000E0231A619A6170470000002008B50121E6
:100BE000092000F0D5FF0121084800F09FF80120FE
:100BF000ADF8000003208DF8020018208DF80300E6
:100C00006946034800F006F808BD000040001600E1
:100C1000000C01402DE9F04102460025002600208D
:100C200000230024002791F803C00CF00F0591F871
:100C300003C00CF0100CBCF1000F03D091F802C0FF
:100C40004CEA050591F800C0BCF1000F31D01468E2
:100C500000202BE04FF0010C0CFA00F3B1F800C0BB
:100C60000CEA03069E4220D183004FF00F0C0CFAD1
:100C700003F7BC4305FA03FC4CEA040491F803C0F3
:100C8000BCF1280F06D14FF0010C0CFA00FCC2F8A1
:100C900014C00AE091F803C0BCF1480F05D14FF031
:100CA000010C0CFA00FCC2F810C0401C0828D1D37B
:100CB0001460B1F800C0BCF1FF0F34DD54680020AF
:100CC0002EE000F1080C4FF0010808FA0CF3B1F81F
:100CD00000C00CEA03069E4221D183004FF00F0CA6
:100CE0000CFA03F7BC4305FA03FC4CEA040491F840
:100CF00003C0BCF1280F05D100F1080C08FA0CF86C
:100D0000C2F8148091F803C0BCF1480F07D100F17C
:100D1000080C4FF0010808FA0CF8C2F81080401CCB
:100D20000828CED35460BDE8F0810000F0B50A4633
:100D3000002300240021002500F00046B6F1004FFA
:100D400002D11D4EF16901E01B4E7168C0F30345ED
:100D500083B200F44016B6F5401F08D121F070614F
:100D6000154E766826F07066134F7E6012E000F430
:100D70008016B6F5801F06D1032606FA05F4A143B6
:100D800041F0706106E0460D360103FA06F6B14304
:100D900041F0706122B1460D360103FA06F6314387
:100DA00000F00046B6F1004F02D1034EF16101E0C0
:100DB000014E7160F0BD00000000014002460020BD
:100DC00093680B400BB1012000E0002070474161A7
:100DD00070470161704700BFFEE7000070B5202139
:100DE0001448FFF7F4FF4FF47A70FFF7D9FE03F0D1
:100DF000F0FC05464FF47A70FFF7D2FE20210D4833
:100E0000FFF7E7FF05F4803008B10B4870BD43F6EB
:100E1000FF7000EA954404F4005010B144F44040DF
:100E200004B2204606F0FCF806464FF07A5106F070
:100E30000FF9EBE7000C014000007AC408B501216E
:100E4000182000F0A5FE0420ADF8000010208DF859
:100E5000030003208DF8020069461A48FFF7DAFE06
:100E60002020ADF8000010208DF8030003208DF83D
:100E7000020069461348FFF7CDFE8020ADF8000060
:100E800010208DF8030003208DF8020069460E48FB
:100E9000FFF7C0FE4FF48070ADF8000004208DF81D
:100EA000030069460848FFF7B5FE04210548FFF72F
:100EB00090FF20210348FFF78CFF80210248FFF7B5
:100EC00086FF08BD000C01400010014000BFFEE796
:100ED000002016E001212A4A02EB40129175002100
:100EE000274A02EB40121183254A02EB4012D175CA
:100EF000234A02EB40129176214A02EB4012D1764E
:100F0000401C0328E6DB002036E0012100EB400214
:100F10001C4B03F81210002100EB400203EB4202CD
:100F2000518000EB400203EB4202517000EB4002A3
:100F300003EB4202117100EB400203EB42025171DC
:100F4000012100EB4002104B03F81210002100EBCE
:100F5000400203EB4202518000EB400203EB4202ED
:100F6000517000EB400203EB4202117100EB4002B2
:100F700003EB42025171401C0228C6DB704700009F
:100F800000010020E0230020EC2300207047000037
:100F900070B5002100230F22C47804B3154C2468D7
:100FA00004F4E064C4F5E064210AC1F10403CA401A
:100FB000447804FA03F184781440214309010E4C6B
:100FC0000678A155047804F01F050124AC4005788B
:100FD0006D11AD0005F1E025C5F8004109E0047888
:100FE00004F01F050124AC40044D0678761145F845
:100FF000264070BD0CED00E000E400E080E100E080
:1010000002490143024A1160704700000000FA05DE
:101010000CED00E070B504461348008800F00105AF
:1010200000211248FFF7AAFC1148FFF799FC11486C
:10103000846011480D490C3108604FF6FF7000EADA
:1010400044000A49091D08601DB90121064804F041
:1010500044F801210548FFF791FC1DB90121024820
:1010600004F041F870BD0000001400404404024048
:1010700000200010F02D0020182E002010B504468E
:1010800034B10848407840F040000649487005E017
:101090000448407800F0BF0002494870014803F05E
:1010A0009FFC10BD6E00002070B5054605B90125F6
:1010B0001348B0FBF5F404B90124B4F5803F01D91D
:1010C0004FF480340F48008800F0010038B1002050
:1010D0000C4928310880601E091D088070BD01225E
:1010E0000021084804F0A9F8601E81B2054804F008
:1010F000A7F80021034804F0A5F800BFEEE70000C0
:1011000000A24A04001400400148C0697047000072
:10111000F02D00200148406870470000F02D0020AD
:1011200010B590B00121082000F032FD01212020EF
:1011300000F01EFD0121022000F00AFD4FF40050D6
:10114000ADF83C0003208DF83E0010208DF83F00E4
:101150000FA93348FFF75EFD4FF400513048FFF709
:1011600036FE00240BE004F0010010B14FF00050F7
:1011700001E04FF400502B4941F82400641CFF2C7F
:10118000F1D90020ADF83000ADF8320040F2E73080
:10119000ADF834000020ADF836008DF838000CA909
:1011A000214804F051F8012211021F4803F0B6FF54
:1011B0001E48FFF7EFFB1A481030019019480290C3
:1011C00010200390000104900020059080200690DC
:1011D0008000079080000890002009904FF4005094
:1011E0000A9000200B9001A91048FFF798FC0122FB
:1011F00002210E48FFF78AFC3B208DF800000120F9
:101200008DF8010003208DF8020001208DF8030005
:101210006846FFF7BDFE00F05DF810B010BD00009D
:10122000000C0140182E002000140040440402402D
:101230000148007870470000F02D00202DE9F047AC
:1012400005460F4614461E46DDF8208015B11F489E
:10125000007810B10020BDE8F08704B90124A6424F
:1012600000D22646B8F1000F01D14FF0010800F07E
:1012700031F80FB1012000E0002014490875087D05
:10128000FFF7FCFE11488561456000200F49C861E9
:1012900008460462C4600661C0F8248001204875D5
:1012A00041030B48FFF793FD6000FFF7FDFE0120AF
:1012B00006490870802D01D9802000E0284681462B
:1012C0004846FFF7A7FE0120C5E70000F02D0020EB
:1012D000000C014010B500210B4803F004FF002171
:1012E0000A48FFF74BFB0A48FFF73AFB0121064883
:1012F00003F0F3FE4FF400510648FFF768FD0020AD
:1013000005490870487510BD0014004044040240AF
:1013100000200010000C0140F02D0020704730B577
:1013200002460B464FF6FF70002118E0555C80EA3C
:10133000052000240FE000F400452DB141F2210505
:1013400085EA4005ADB203E04FF6FF7505EA4005BA
:101350002846651CECB2082CEDD34D1CA9B299426D
:10136000E4DB30BD0246002003E000231354431C9D
:1013700098B28842F9DB704710B50346002003E0BD
:101380000C5C1C54441CE0B29042F9DB10BD2DE90A
:10139000F04104460D464CB145B12078AA2805D14C
:1013A0006078FE2802D1607D552802D00020BDE87B
:1013B000F08104F1160000F06DF9804616212046F8
:1013C000FFF7ADFF0746B84501D00020EFE7A07852
:1013D0002870E01C00F05EF96880002605E0701DB2
:1013E000215C281D8155701CC6B2102EF7D3012038
:1013F000DDE7F0B505460C46AA202070FE2060709F
:101400002878A0706988E01C00F0E4F9002605E067
:10141000281D815D701D2154701CC6B2102EF7D39B
:101420005520607516212046FFF779FF074639469B
:1014300004F1160000F0CEF9F0BD000010B51A213D
:101440000A48FFF78FFF0020094908700949087012
:101450000949087009490870094908700949087064
:1014600018210948FFF77EFF10BD00008C220020E4
:10147000DD000020DE000020DF000020E000002072
:10148000E1000020E20000202023002010B50446E7
:101490001B48007E38B9AA2C04D1194804700120D9
:1014A0001749087610BD1648007E182809D315483C
:1014B0008068401C134988600020114908764876EE
:1014C000F0E70F48017E007E401C0D4A1076104662
:1014D0004454007E022806D1FE2C01D1182000E0E1
:1014E0000A20074948760648407E38B10448007E05
:1014F0000349497E884201DB00F020F800BFD1E7B4
:101500008C22002020230020014600230878AA28EE
:1015100002D1087A552801D000207047002204E04B
:10152000885C1844C3B2501CC2B2082AF8D3487A67
:10153000984201D10120F0E70020EEE700B585B028
:101540001D48407E182826D11B48407D552808D0CC
:101550001A488068401C1949886000F0ADF805B051
:1015600000BD69461448FFF712FF38B913484068B8
:10157000401C1249486000F09FF8F0E7684600F010
:1015800051F80E480068401C0C49086000200A49C8
:1015900008764876E3E70848FFF7B6FF38B1064813
:1015A00000F00EF80020044908764876D7E700F0EE
:1015B00083F800BFD3E700008C2200202023002006
:1015C00010B5044613480078042809D31248C068AF
:1015D000401C1149C86008460069401C086110BDE4
:1015E0000E49097801EB81010D4A02EB41000A2204
:1015F0002146FFF7C1FE09480078401C00F00300B7
:101600000649087003480078401C0249087000BF72
:10161000E5E70000DF00002020230020DE0000209E
:10162000A622002010B5044613480078042809D3E8
:101630001248C068401C1149C86008464069401CF7
:10164000486110BD0E49097801EB81010D4A02EB9A
:10165000810014222146FEF770FE09480078401CE4
:1016600000F003000649087003480078401C024956
:10167000087000BFE5E70000E20000202023002002
:10168000E1000020CE22002000B50346184600F0FD
:1016900007F800BD014608784A7840EA0220704702
:1016A000014608784A7840EA02208A7840EA0240F7
:1016B000CA7840EA0260704710B5194B1B7E581E6D
:1016C00025E0174B1B5CAA2B1FD1154B1B7E1B1A49
:1016D000D9B2002206E0C3B21344114CE35CA35418
:1016E000531CDAB28A42F6DB0D4B1976022904D379
:1016F0005B78FE2B01D1182304E0022901D30A23D1
:1017000000E00023064C637610BD431E18B200288B
:10171000D7DC0023024C2376637600BFF4E7000099
:101720008C22002010B5044614B10F48007808B987
:10173000002010BD0D48007800EB80000C4A02EB41
:10174000800114222046FEF7F8FD08480078401C6E
:1017500000F003000549087003480078401E024964
:1017600008700120E5E70000E2000020E000002012
:10177000CE22002010B5044614B10F48007808B9F5
:10178000002010BD0D48007800EB80000C4A02EBF1
:1017900040010A222046FFF7EFFD08480078401C70
:1017A00000F003000549087003480078401E024914
:1017B00008700120E5E70000DF000020DD000020C8
:1017C000A622002010B503460C462146184600F01C
:1017D00005F810BD01700A124270704701700A0AC4
:1017E00042700A0C82700A0EC27070477CB50446C3
:1017F0000020009001901448007800B97CBD04F0EE
:1018000023FF10B900F05AF8F8E710480078205C80
:101810000F490978084008B1012000E00020054682
:101820000C480078854200D0E8E701208DF80000E0
:101830008DF80100084800788DF8020000F03EF8AD
:1018400004F0E8FF00BFD9E7D8000020D90000204D
:10185000DA000020DB000020DC00002070B5044628
:101860000D460CB1102C03D900F028F8002070BDF3
:10187000601EC0F3C706C6F101000B490870601E68
:1018800000F0070101208840084908700DB10120CF
:1018900000E000200649087006480470012006494F
:1018A000087000BFE3E70000D9000020DA00002044
:1018B000DB000020DC000020D800002000200549CB
:1018C0000870054908700549087005490870054900
:1018D00008707047D8000020D9000020DA000020EE
:1018E000DB000020DC0000200146032901D100209C
:1018F00070470846FCE7000000B500F091F8FF20B3
:10190000034908700020034908700349087000BDAE
:10191000D5000020D6000020D700002002460B464C
:10192000194605E0505C08B100207047481CC1B260
:101930000629F7D30120F8E730B50246174B1B788C
:10194000042B05DB164B1B685B1C154C236030BD5C
:10195000144B154C24781A5500200AE00B5C124CED
:10196000247804EB4404114D05EB44042354431C38
:10197000D8B20628F2DB0C4B1B785B1C0A4C237098
:1019800023461B78042B01DB00232370034B1B78B9
:101990005B1C024C237000BFD9E7000085000020CB
:1019A000B00000207F00002084000020740600208A
:1019B00070B5044604F060FC054600BFEFF31080EC
:1019C000064672B60D480068401C0C4908600C4879
:1019D0000470022C01D1092001E00A4800780A496C
:1019E00008700A4800780A4908700A4800780A49CD
:1019F00008700A48056006B962B670BDC0000020D4
:101A0000D1000020D5000020D2000020D600002008
:101A1000D3000020D7000020D4000020CC000020FC
:101A200000BFEFF31081084672B60021074A11701B
:101A3000FF21074A11700021064A1170064A1170F1
:101A4000064A116000B962B670470000D10000205C
:101A5000D2000020D3000020D4000020CC000020C1
:101A60007CB506460C4615460020009001908DF886
:101A700000408DF8015014B1204600F0B9FB6946D2
:101A8000304604F069FC7CBD7CB506460C46154624
:101A90000020009001908DF800408DF8015014B1A5
:101AA000204603F053F86946304604F055FC7CBDEF
:101AB0002DE9FC4107460D4616461C4600200090C5
:101AC00001908DF800508DF801608DF8024014B13E
:101AD000204603F03BF86946384604F03DFCBDE87B
:101AE000FC81000010B502460B461548007808B985
:101AF000002010BD1348144C2478005D10700021A4
:101B00000AE01148007800EB4000104C04EB400064
:101B1000405C5854481CC1B20629F2DB0A480078E0
:101B2000401C094C207020460078042801DB00206E
:101B3000207003480078401E014C20700120D8E737
:101B4000850000207F000020830000207406002014
:101B500029B1064A52690243044B5A6104E0034A20
:101B600052698243014B5A617047000000100240E5
:101B700029B1064AD2690243044BDA6104E0034A00
:101B8000D2698243014BDA617047000000100240C5
:101B900029B1064A92690243044B9A6104E0034A60
:101BA00092698243014B9A61704700000010024025
:101BB0000F48006840F001000D4908600846406881
:101BC0000C4908400A494860084600680A4908402C
:101BD000074908600846006820F48020086008462D
:101BE000406820F4FE0048604FF41F008860704792
:101BF000001002400000FFF8FFFFF6FE30B50021A4
:101C00000022002400232D4D6D6805F00C0121B148
:101C1000042905D0082923D105E0294D056022E0DB
:101C2000274D05601FE0254D6D6805F47012234DAA
:101C30006D6805F48034022505EB92421CB9214DF4
:101C4000554305600BE01D4D6D6805F400351DB171
:101C50001C4D5543056002E0194D5543056002E0F7
:101C6000174D056000BF00BF144D6D6805F0F00111
:101C70000909154D6B5C0568DD4045600F4D6D68C9
:101C800005F4E061090A104D6B5C4568DD40856034
:101C90000A4D6D6805F46051C90A0B4D6B5C4568CF
:101CA000DD40C560054D6D6805F44041890B074D69
:101CB0006B5CC568B5FBF3F5056130BD00100240F3
:101CC00000127A0000093D00DC010020EC01002038
:101CD00010B501460022002300204A11012A02D13A
:101CE000094C236806E0022A02D1074C236A01E06E
:101CF000054C636A01F01F02012494401C400CB1A2
:101D0000012000E0002010BD0010024002484068A1
:101D100000F00C0070470000001002400146002057
:101D2000034A506820F0F0000843506070470000FC
:101D3000001002401149096821F480310F4A1160F6
:101D40001146096821F480211160B0F5803F03D06D
:101D5000B0F5802F0ED106E00849096841F48031C2
:101D6000064A116007E00549096841F4A021034AC9
:101D7000116000E000BF00BF70470000001002408B
:101D800000210B4A11700A4A203A82F820100128DB
:101D900002D0042808D103E00121054A117004E0B3
:101DA0000521034A117000E000BF00BF704700002A
:101DB0002010024001460020034A506820F4E060F1
:101DC00008435060704700000010024001460020A8
:101DD000034A506820F4605040EAC10050607047E8
:101DE00000100240014908667047000000004242AE
:101DF00002460020044B586820F47C1042EA01039C
:101E00001843014B58607047001002400146002003
:101E1000034A506820F003000843506070470000F8
:101E20000010024038B5002000900024002500BFBB
:101E30003120FFF74DFF05460098401C00900098A8
:101E4000B0F5A06F01D0002DF2D03120FFF740FF98
:101E500008B1012400E00024204638BD10B5044636
:101E60000748844204D181150648FEF7B0FF06E01A
:101E70000548844203D1C1130448FEF7A8FF10BDF2
:101E8000003801400008014000480040000C0140BB
:101E900010B504460748844204D181150648FEF770
:101EA00098FF06E00548844203D1C1130448FEF7B9
:101EB00090FF10BD0038014000080140004800407C
:101EC000000C0140002242708270C2700271827563
:101ED00002744274827482828260C260826101777D
:101EE000704700002DE9F04780460D4616461F4614
:101EF000DDE9089A404600F073F918B1284600F071
:101F000043F910B90020BDE8F087A8F101001E498F
:101F100001EB401403212046FFF7D4FFE570257143
:101F20000120A075277484F8119084F812A0A6608F
:101F3000E6602078032806D0207800F025F968B103
:101F40002078A8420AD0404600F094F80320207080
:101F50000420A0701420A0610120D4E72946404647
:101F600000F03CF80121404600F023F82570657030
:101F70003946304600F014F8A0700020A075E070DB
:101F8000207120770120BEE7DC2400200146481E96
:101F9000C0EBC000014A02EB8000704710720008DD
:101FA000024609B1032070470AB10220FBE7012075
:101FB000F9E770B506460D463046FFF7E7FF0446E1
:101FC0002078012809D125B1218B6069FEF701FF36
:101FD00003E0218B6069FEF7FAFE70BD2DE9F04148
:101FE00007460D463846FFF7D1FF0446207838BB38
:101FF000781E4006060E0320B04000F0FF081C4883
:10200000407820EA08001A494870012D08D1084696
:1020100040780121B140C9B20843154948700AE02F
:10202000022D08D112484078711C01228A40D1B299
:1020300008430F4948700E4802F0D2FCBDE8F08119
:1020400021896068FEF7C3FE218AE068FEF7BFFEC3
:10205000012D04D121896068FEF7BBFE05E0022D49
:1020600003D1218AE068FEF7B4FE00BFE6E7000076
:102070006E00002010B5044600212046FFF799FFAE
:1020800000212046FFF7AAFF10BD7CB505460C468F
:10209000284600F0A5F808B1022C01D900207CBD2B
:1020A0002CB90021284600F0D9F80120F7E70020DC
:1020B00000900190012C01D1012000E00220014696
:1020C00000231A462846FFF70DFFE8E710B500F099
:1020D00019F8002410E00020094901EB44110870B0
:1020E000074901EB44100021FFF7ECFE611CC8B268
:1020F000FFF7C0FF601CC4B2052CECD310BD00007C
:10210000DC24002038B50020FFF73AFE012118201A
:10211000FFF73EFD022531E0C5EBC500194901EB93
:102120008004218B6069FEF752FE208BADF8000021
:1021300003208DF8020010208DF8030069466069C5
:10214000FEF768FD218B6069FEF741FE218960681A
:10215000FEF73DFE218AE068FEF739FE2089ADF8E2
:10216000000069466068FEF755FD208AADF8000062
:102170006946E068FEF74EFD681CC5B2052DCBD35D
:1021800038BD0000107200080146012901D0022963
:1021900001D1012070470020FCE7000030B5014666
:1021A000487C401EC0F3C702487C401E00F0070573
:1021B0000120A840C3B2C2F10100C2B20748805C4E
:1021C000184008B1012000E000200446887CA042AD
:1021D00001D1012030BD0020FCE700006C00002090
:1021E000014619B1052901D8012070470020FCE7FC
:1021F00003490968491C024A116002490870704786
:102200006C010020700100202DE9FC410746884642
:1022100014461D46089E24B1102C02D8012D00D86A
:1022200016B90020BDE8FC810123324641463846FC
:10223000CDE90045FFF756FEF4E77CB505460E46AE
:1022400014460CB900207CBD0020009003462246B5
:10225000314601902846FFF745FEF4E770B5044685
:102260000E46601E064901EB40152046FFF702FFAF
:102270000020287031462846FFF724FE70BD00007C
:10228000DC24002070B5064606B970BD002553E079
:102290002B4800EB45142078032821D1A069B042D7
:1022A00003D9A069801BA06144E00020A0612179CE
:1022B0006A1CD0B2FFF792FE691CC8B20121FFF779
:1022C00078FE2079207020796070217CA068FFF76B
:1022D00067FEA0700020E0702071A075207729E0D3
:1022E0002078FFF751FF00B924E0207C88B1204618
:1022F000FFF754FF58B1A08A3044A082A08A1E285C
:1023000007D3691CC8B20221FFF7A8FF12E0002022
:10231000A082E06840B1E068B04205D8691CC8B24C
:102320000121FFF79BFF04E0E06810B1E068801B2B
:10233000E06000BF681CC5B2052DA9D300BFA4E7AB
:10234000DC240020016082800023C3800381704769
:1023500010B502460B46908808B9002010BD1189BF
:10236000D088884201D10020F8E7908891FBF0F4F2
:1023700000FB14101468205C1870481C10810120A8
:10238000ECE710B502460B46908808B9002010BD56
:10239000D1881089081A80B29488A04201DB0020FD
:1023A000F5E7908891FBF0F400FB141014682354B7
:1023B000481CD0800120EAE710B5044624B1012C66
:1023C00005D0022C09D105E002F086FC10BD04F016
:1023D0004BFAFBE7FEF798FEF8E70020F6E710B5AA
:1023E000044624B1012C05D0022C09D105E002F0ED
:1023F00079FC10BD04F03EFAFBE7FEF78BFEF8E730
:102400000020F6E710B5044624B1012C05D0022CBB
:1024100009D105E002F074FC10BD04F0CBFAFBE733
:10242000FEF706FFF8E70020F6E7000010B50446C7
:10243000002C06DD0848407840F02000064948702E
:1024400005E00548407800F0DF0003494870024885
:1024500002F0C6FA10BD00006E0000202DE9F8431E
:1024600007460D4616469846032F04DA1EB1384635
:10247000FFF7C8FF10B10020BDE8F883B8F1000FE6
:1024800001D14FF0010827B1012F15D0022F37D10C
:102490001FE0002D01DD012100E000210846424639
:1024A000314602F04DFC044624B102F029FC08B18B
:1024B0000120E1E70020DFE72846FFF7B7FF114BD7
:1024C00042464FF4FA71304604F018FB04F072FAF9
:1024D000D2E70C480090002D01DD012000E0002033
:1024E000014643464FF4FA723046FEF7A7FE044613
:1024F00024B1FEF79DFE08B10120BDE70020BBE737
:102500000020B9E7A086010010B5044624B1012CD3
:1025100005D0022C09D105E002F036FC06E004F0FB
:102520000DFB03E0FEF7D6FE00E000BF00BF10BDCC
:102530000122064B1A7002785A7042889A801A4615
:1025400091700022024B1A7070470000E8000020D2
:10255000EE00002010B500F039F80848007810B9F6
:102560000748007808B1002010BD0648007802280E
:1025700001D80120F8E70020F6E70000F200002073
:10258000F6000020FC0000200146002003E00022AD
:102590000A54421CD0B21028F9D3704701460729CB
:1025A00011D2DFE801F01004060E080A0C0000202A
:1025B00070470120FCE70220FAE70420F8E7032037
:1025C000F6E70520F4E70620F2E7000010B52A48F8
:1025D000006800B910BD48E028480078C0EBC00092
:1025E000274901EB800418212046234A12689047AE
:1025F00000B9EFE7207E012808D12248C069401CBD
:102600002049C8610846006A401C08621D484068AD
:10261000401C1C494860207E02281AD11A480078C4
:10262000B8B11A480078022813D1608B16498988FE
:1026300088420ED1607E14494978884209D11148F8
:10264000006B401C0F4908630020104908700E49B8
:1026500008700A480078401C00F003000749087021
:102660000B480078401E0A49087009480078002885
:10267000B2D100BFAEE70000E4000020FA00002065
:1026800038230020A8230020E8000020EE000020CE
:10269000FC0000202DE9F84F0446FF270CB9BDE8E7
:1026A000F88F2078382803D1204600F05DFAF6E74D
:1026B000207836281CD101F031FB61882078002376
:1026C0001A4600F033FA064626B901206B49087015
:1026D000608848806A48007830B16A48007818B944
:1026E0000A21012000F04EF90EB100F055FBD6E7AB
:1026F000207837280DD100F073FC05460DB1012379
:1027000000E000231A46618820782B4600F00EFA7C
:10271000C5E75B48007830B16188207801231A460C
:1027200000F004FABBE720783038062874D2DFE8DE
:1027300000F0030716304A5E00F05AFE054672E0CC
:102740002779022F06D9618820788023012200F0A2
:10275000EDF9A4E7384600F089FE054663E02779E5
:10276000022F06D9618820788023012200F0DEF94B
:1027700095E7601DFEF788FF804604F10900FEF72B
:102780008FFF81464A464146384600F0C4F8054668
:1027900049E02779022F06D9618820788023012219
:1027A00000F0C4F97BE7601DFEF76EFF804604F180
:1027B0000900FEF775FF81464A464146384600F05B
:1027C000C5F805462FE004F10C00FEF75DFF8246D8
:1027D00004F10800FEF758FF8346201DFEF754FF62
:1027E00052465946009000F03FFF05461BE004F1B9
:1027F0000C00FEF749FF824604F10800FEF744FF93
:102800008346201DFEF740FF52465946009000F0D7
:10281000FBFF054607E0FFE761882078812301225E
:1028200000F084F93BE700BF0DB1012300E0002375
:102830001A46618820782B4600F078F90646DDB903
:1028400039462046FFF774FE26B901200E4908706C
:102850006088488000F0BAFE00B120E7207800F0E0
:1028600051F808B1072000E000208246002100F066
:1028700089F80EB100F090FA00BF10E7F2000020D6
:10288000E8000020EE000020F60000201449086057
:102890000021144A11705170FF2191700021918024
:1028A000114A117051709170104A11705180104A84
:1028B000117051800F4A11700F4A11700F4A117038
:1028C0000F4A116051609160D16011615161916155
:1028D000D161116251629162D1621163516370479B
:1028E000E4000020E8000020EE000020F2000020BC
:1028F000F6000020FA000020FB000020FC00002071
:10290000A82300200146302901D0312901D101201E
:1029100070470020FCE770B504460D46164624B10A
:10292000012C07D0022C0FD109E03146284600F0D7
:10293000DFFF70BD3146284600F0ECFFF9E7314675
:10294000284600F0F9FFF4E70B20F2E770B50446E3
:102950000D46164624B1012C07D0022C0FD109E0F8
:102960003146284600F0CDFF70BD3146284600F0C4
:10297000DAFFF9E73146284600F0E7FFF4E70B20DD
:10298000F2E70000094A127812B1094A127802B13E
:102990007047074A507091700122054B1A70054A22
:1029A000926A521C034B9A6200BFF1E7E8000020D4
:1029B000EE000020A82300202DE9F04385B0074653
:1029C0000E4690461D46DDF83090FFF7FFFD2D487E
:1029D0000078042814D32C488068401C2A49886059
:1029E0001DB90846C068401CC860012D04D12648A6
:1029F0000069401C24490861002005B0BDE8F0834F
:102A00008DF80070ADF80260002405E018F804109D
:102A100001A80155601CC4B2102CF7D31B480078E4
:102A2000C0EBC0001A4A02EB80016846FEF7E1FCE9
:102A300016480078C0EBC000154901EB8000057610
:102A400012480078C0EBC00001EB800080F81990BC
:102A50000E480078C0EBC00001EB800046830B48B5
:102A60000078401C00F00300084908700548007811
:102A7000401C0449087004480068401C0249086072
:102A80000120BAE7FC000020A8230020FB00002062
:102A9000382300202DE9F04186B004460F46154644
:102AA0001E46DDF8308002A8FFF76EFD8DF8084065
:102AB0008DF809508DF80A608DF80B80022302AA68
:102AC000394671200094FFF777FF06B0BDE8F0812A
:102AD00010B50A48007810B10948007800B910BD57
:102AE000064A5188064A507800231A4600F01EF81C
:102AF00010B100200149087000BFF0E7F600002087
:102B0000E800002010B50848007800B910BD06485C
:102B1000418800231A46362000F008F810B1002042
:102B20000149087000BFF1E7F2000020F0B585B060
:102B300004460F4615461E4601A8FFF725FD8DF8F1
:102B400004408DF805508DF80660002301AA39462F
:102B500070200094FFF730FF10B9002005B0F0BDE1
:102B6000FFF734FD0120F9E730B591B0044625792F
:102B700063484069401C6249486101A8FFF704FDB1
:102B800005A800F0A5FB002D75D100208DF80400EC
:102B90009DF839008DF805009DF83A008DF8060083
:102BA0001098C0B28DF807009DF836008DF8080027
:102BB0009DF837008DF809009DF838008DF80A005F
:102BC0009DF82C0008B1012000E000209DF82D1098
:102BD00009B1022100E0002108439DF82E1009B13F
:102BE000042100E0002108438DF80B009DF82F0020
:102BF00008B1012000E000209DF8301009B1022149
:102C000000E0002108439DF8311009B1042100E0E3
:102C1000002108438DF80C009DF8320008B1012016
:102C200000E000209DF8331009B1022100E00021EE
:102C300008439DF8341009B1042100E00021084345
:102C40009DF8351009B1082100E0002108438DF8F6
:102C50000D009DF83E008DF80E009DF83B008DF8AC
:102C60000F009DF83C008DF810009DF83D008DF898
:102C700011002CE0FFE7012D0FD101A80599FEF707
:102C8000A1FD02A80699FEF79DFD03A80799FEF78E
:102C900099FD01208DF8100019E0022D0FD101A837
:102CA0000899FEF78FFD02A80999FEF78BFD03A88E
:102CB0000A99FEF787FD02208DF8100007E0618871
:102CC000207882230122FFF731FF11B030BD0C487C
:102CD0008069401C0A49886120780090618801233E
:102CE00001AA7220FFF768FE10B1FFF76FFC04E045
:102CF0000348406A401C0249486200BFE5E7000003
:102D0000A823002030B58DB0FFF760FCFFF7FAFE76
:102D1000FFF7DEFE00F040F81D48007828B11D489E
:102D2000007810B900F052FC08B10DB030BD01A818
:102D300000F0CEFA9DF8290003280ED10C98C4B2F9
:102D400013494878FFF7DEFD08B1082003E09DF83D
:102D50002E00FFF723FC054612E09DF8290070B90C
:102D60009DF82E0001280AD1002409494878FFF770
:102D7000C9FD08B1072000E00020054600E0D4E7C7
:102D800021462846FFF7FEFD00F006F800BFCCE71D
:102D9000E8000020EE00002038B51648007848B161
:102DA00015480078012805D11448007810B9144856
:102DB000007800B138BD0F4880780F4C0090A378A0
:102DC00062780C4CA1886078FFF764FE28B90D4842
:102DD000406B401C0B494863ECE702200649087031
:102DE0000848C06A401C0749C862FFF7EFFB00BFF4
:102DF000E0E70000E8000020EE000020F2000020E4
:102E0000F6000020A8230020014800787047000049
:102E1000C60100200146042902DA0C48007808B9EE
:102E2000002070470A48405C0A4B185C0A4B5B5C08
:102E3000184008B1012000E0002002460748405C2D
:102E4000904201D10120ECE70020EAE7C601002012
:102E5000F0720008C4010020F4720008F872000843
:102E6000014601B97047002004E00A5C054B1A5482
:102E7000421CD0B20228F8DB0122034B1A7000BFBB
:102E8000F0E70000C4010020C601002070B505462F
:102E9000284600F0DFF90446284601F091FB06467B
:102EA0000EB1304670BDFFF7AFFF08B90720F9E754
:102EB00000202076607602202070002084F8280010
:102EC00084F82900074880F8895003F0D5F90549AE
:102ED000C1F88C00012081F88600022081F884006E
:102EE0000020DFE7183200202DE9F05F83468A4694
:102EF000BAF1000F01D14FF0010A4FF47A70ABFB29
:102F0000002012EB0A0140F10000B1F1010860F16C
:102F10000001524600234046FDF798F906460F4649
:102F2000304604234FF0000CA0FB032807FB03816D
:102F300006FB0C1047F23053D41840EB0C05002070
:102F4000D4F1FF31A84103D24FF0FF30BDE8F09F2C
:102F50002046FBE770B506460C46304600F07AF98D
:102F600005460DB9062070BD304600F029FB38B18A
:102F7000E868A04202DC2869A04201DA0420F2E7F6
:102F80000020F0E70346002070472DE9F041064697
:102F90000C46304600F05EF905466868A04202D152
:102FA0000020BDE8F0816868A04201DA012001E05C
:102FB0004FF0FF3007463946304600F01FFB08B19E
:102FC0000420EEE70020ECE770B50446DDE9045686
:102FD0009C4201D1A94201D00C2070BD0020FCE729
:102FE00010B500F0F3FA08B1012010BD002412E082
:102FF00004EB440000EBC4000E4911F82000032844
:1030000007D1002004EB440101EBC401094A02F896
:103010002100601CC4B2032CEADB0020054981F8C2
:10302000840081F88500C1F8B00000F0E5FC0020C4
:10303000DBE700001832002070B5254991F88900BF
:1030400000F008F90446224890F88960304600F004
:103050002BF960606068A060012020766076002017
:1030600084F828002070012084F82900184981F88C
:10307000AC00084690F88A0040B9062081F8860026
:10308000002081F8850081F8840070BD022E04D1F3
:103090000120FFF7FBFE054613E0012E04D10020BE
:1030A000FFF7F4FE05460CE00020094981F88A008C
:1030B000062081F88600002081F8850081F88400D0
:1030C000E3E71DB10721284600F090F800BFDCE7D8
:1030D000183200202DE9F04106460D46304600F03A
:1030E000B9F80446244890F88500042801D101204D
:1030F00000E000200746204890F88500052801D10F
:10310000012000E0002080460CB9BDE8F081304687
:10311000FFF778F910B13046FFF7F6F9002084F890
:10312000280060760320207084F82950124880F827
:10313000AC50284600F0A2FC0F49C1F8B0000320B3
:1031400081F88400002081F885000FB1082000E09C
:103150000020094981F88700B8F1000F01D00B2049
:1031600000E00020044981F88800002081F88600F2
:1031700081F88A0000BFC8E7183200202DE9F0412D
:1031800080460C461546404600F064F80646072780
:10319000042C01D1042706E0072C01D1032702E00B
:1031A000052C00D105270320307086F829700D48C2
:1031B00080F8AC70C0F8B04003200A4981F8840060
:1031C000002081F885001DB10B2081F8880007E000
:1031D0000820044981F887000520034981F84D0043
:1031E000BDE8F08118320020D032002070B50646CC
:1031F0000D46174991F8890000F02CF804469CB15F
:10320000134991F88900FFF7FDF820B1104991F8B2
:103210008900FFF779F9002084F82800207660768D
:103220000320207084F82950094880F8AC50C0F879
:10323000B0600320064981F88400002081F88500F1
:10324000072081F88600002081F88A0070BD000008
:10325000183200200146032901DB0020704701EBF2
:10326000410000EBC100024A02EB8000F6E70000DB
:103270001832002070B505462846FFF7EBFF0446DC
:103280000CB9032070BD2078FCE70000014601481E
:1032900040567047A27200080146024850F82100CB
:1032A00070470000A87200080146024850F821004B
:1032B00070470000C07200080146C8B270470000A5
:1032C0000146024850F8210070470000B47200081F
:1032D00010B5044604B910BD00F078F8206000F085
:1032E0007BF8606000F07EF8A060374890F88500B9
:1032F00005280CD13448D0F8A000E0603248D0F85E
:10330000A40020613048D0F8A800606108E02E4891
:103310008068E0602C48406B20612B48006E606143
:10332000002000F08BF904F8180F012000F086F956
:103330006070022000F082F9A070002000F089F98E
:10334000E070012000F085F92071022000F081F981
:1033500060710020FFF75EFDA0710120FFF75AFDAC
:10336000E0710220FFF756FD20720320FFF752FDA7
:1033700060720020FFF77EFFA0720120FFF77AFF46
:10338000E0720220FFF776FF20730F4890F8840068
:1033900060730D4890F88500A0730B4890F8860084
:1033A000E073094890F887002074074890F8880077
:1033B0006074054890F8AC00A0740348D0F8B000E1
:1033C0006061183C00BF86E7183200200148406861
:1033D00070470000183200200148006B7047000061
:1033E000183200200148C06D7047000018320020DC
:1033F00010B51D4890F88400032803D11A4890F8AE
:10340000B00010BD00F0E2F808B10120F9E7022099
:1034100001F0D6F804461CB9012001F0D1F80446A9
:103420001CB9002001F0CCF804460CB12046E8E7B6
:10343000FFF7EAFC08B90720E3E701200A4981F811
:103440008A000220FFF722FD04463CB90920064904
:1034500081F885000020C1F8B00003E00020024997
:1034600081F88A002046CCE71832002070B5044667
:10347000032C01DB062070BD0D4890F88400032862
:1034800003D10B4890F8B000F5E700F09FF808B1C1
:103490000120F0E72046FFF7F9FC054635B9A01DED
:1034A000034981F885000020C1F8B0002846E2E712
:1034B0001832002010B5002455E0002004EB440130
:1034C00001EBC401304A02F8210004EB440101EB96
:1034D000C40102EB8101486004EB440101EBC4012B
:1034E00002EB81018860294850F8240004EB440174
:1034F00001EBC40102EB8101C860254850F82400AB
:1035000004EB440101EBC40102EB81010861214895
:1035100050F8240004EB440101EBC40102EB8101EB
:103520004861012004EB440101EBC40102EB81017D
:10353000087604EB440101EBC40102EB81014876FB
:10354000002004EB440101EBC40102EB810181F88E
:10355000280004EB440101EBC40102EB810181F876
:103560002900601CC4B2032CA7DB0020064981F8A7
:10357000840081F8850081F8AC00C1F8B00000F04B
:103580003BFA00F051FA10BD18320020CC7200084E
:10359000D8720008E472000870B505462846FFF7A7
:1035A00059FE04464CB194F8280020B10221284667
:1035B000FFF790FD70BD0020607600BFFAE70000C5
:1035C00001460148405C70479C72000810B50A48EB
:1035D00090F8850008B1012010BD002407E02046C6
:1035E000FEF710FF08B10120F6E7601CC4B2032CFF
:1035F000F5DB0020F0E700001832002070B505462A
:103600000C46002C08DA2846FFF756FE0646FFF760
:1036100001FC08B1012070BD022D07D1002C05DD91
:103620000320FFF7F7FB08B10120F4E70020F2E7E1
:1036300001460148405C70479F72000870B505461E
:103640002846FFF707FE04460CB9002070BD207E17
:10365000FCE770B505462846FFF7FCFD04460CB9AB
:10366000002070BD607EFCE72DE9FE4F81468B4651
:103670009246634890F88400032804D1604890F88B
:10368000B000BDE8FE8FFFF7A1FF08B10120F8E709
:103690005B48407E38B15A4890F8450018B1584808
:1036A00090F8710008B90220EBE7FFF7ADFB08B90D
:1036B0000720E6E749460020FFF74CFC054625B900
:1036C00059460120FFF746FC054625B95146022020
:1036D000FFF740FC054625B949460020FFF755FC99
:1036E000054625B959460120FFF74FFC054625B987
:1036F00051460220FFF749FC05462DB9524659466E
:103700004846FFF73FFC05460DB12846B9E7CDF81E
:103710000090CDF804B0CDF808A000F085F90024A1
:1037200042E004EB440000EBC400354901EB8000AB
:10373000D0F804805DF82410C817B1EB080660EBE0
:10374000E8775DF824102E4800F1900040F824102E
:103750005DF8240004EB440101EBC401284A02EBAC
:1037600081018860274840F824805DF8241000F12A
:103770000C0040F8241000F10C0000EBC400C0C0A5
:103780004FF0000186EA010087EA0101084301D0F9
:10379000012100E000211A489C300155015D1948C3
:1037A00030300155601CC4B2032CBADB144890F8C9
:1037B0009C00A0B9124890F89D0080B9104890F87C
:1037C0009E0060B901200E4981F8AC000020C1F8CC
:1037D000B00004200B4981F84D00002051E7012082
:1037E000074981F88700042081F88500012081F8CD
:1037F00084000020C1F8B00081F8AC0000BF40E7B1
:1038000018320020D03200202DE9F04105460F4645
:103810001646364890F88400032804D1334890F8BF
:10382000B000BDE8F081FFF7D1FE08B10120F8E754
:103830002E48407E38B12D4890F8450018B12B48ED
:1038400090F8710008B90220EBE7FFF7DDFA08B93C
:103850000720E6E729460020FFF77CFB044624B951
:1038600039460120FFF776FB044624B93146022091
:10387000FFF770FB04462CB9324639462846FFF75D
:1038800081FB044614B900F0ACFE04460CB120469E
:10389000C7E7FFF79BFDA8420DD1FFF79DFDB8429A
:1038A00009D1FFF79FFDB04205D101200F4981F8F2
:1038B000AC000020B5E70D48C0F8A050C0F8A470D7
:1038C000C0F8A8608560476306660120074981F853
:1038D0008800052081F88500012081F884000020FF
:1038E000C1F8B00081F8AC0000BF9AE718320020A0
:1038F00070B504460D462A462146002000F08CF99A
:1039000070BD70B504460D462A462146002000F0E1
:10391000B9F970BD70B504460D462A46214601200E
:1039200000F07AF970BD70B504460D462A4621466E
:10393000012000F0A7F970BD70B504460D462A4677
:103940002146022000F068F970BD70B504460D46AE
:103950002A462146022000F095F970BD70B5054653
:103960002846FFF777FC044614B194F8280008B9FC
:10397000002070BD94F91A102846FFF73FFE30B1C1
:1039800004212846FFF7A6FB4FF0FF30F1E702F0D5
:1039900073FC216A401A616A884206D306212846D0
:1039A000FFF798FB4FF0FF30E3E72846FEF72AFDCC
:1039B00008B10020DDE72846FEF711FD98B928463A
:1039C000FEF7FAFCE16988420DD3A0686060002030
:1039D00084F82800E0612070012084F8290005495E
:1039E00081F8AC00C5E707212846FFF773FB4FF0CD
:1039F000FF30BEE71832002000210A4A82F8861004
:103A000082F8871082F8881082F88A10002005E07A
:103A1000002204499C310A54411CC8B20328F7DB38
:103A2000704700001832002000201DE00021124ADB
:103A300042F82010002210490C3141F8202001F1F9
:103A40000C0303EBC0031A605A6024310A54C91CEA
:103A50000A54491D41F820200C310A54C91C0A544B
:103A6000C91C0A54411CC8B20328DFDB0021024AEA
:103A700082F84D1070470000D03200200146881EA9
:103A8000062810D2DFE800F0030507090B0D0A2015
:103A900070470720FCE70420FAE70520F8E7092033
:103AA000F6E70620F4E70020F2E700002DE9FF5FCB
:103AB0000746884691463846FFF7CCFB06461EB9B6
:103AC000062004B0BDE8F09F41463846FFF742FAB1
:103AD0000290029808B10298F3E74FEAE871706823
:103AE000B8EB000461EBE0754FF0000184EA0100DF
:103AF00085EA0101084300D1E3E7FFF785F908B93A
:103B00000720DEE700210846091BA84101DA012051
:103B100001E04FF0FF30039038460399FFF76EFD48
:103B200008B10420CDE700210846091BA84101DAAD
:103B3000204600E060428246B9F1000F01D1D6F87C
:103B400014903846FEF75EFC8346224890F88500C4
:103B5000042808D101212048C155401D40F827A064
:103B60000F3000F807B04B46524638460399FEF72F
:103B700075FC01903846FEF745FC0090154890F81A
:103B80008500042806D1144911310198C855891DB2
:103B90000098C855019820B1BBF1000F01D10098E1
:103BA00008B906208DE7C6F808800398B076C6F8F5
:103BB0001CA002F061FB306249465046FFF794F9C1
:103BC00070620120307086F82800002086F82900F5
:103BD00000BF76E718320020033300202DE9F041C2
:103BE00007460D46164698463846FFF733FB04460F
:103BF0004346324629463846FEF730FC10B90620C7
:103C0000BDE8F081012084F82800A576E661002057
:103C100084F8290000BFF3E72DE9F04106460F467E
:103C200090463046FFF716FB0446154890F884008E
:103C3000032804D1124890F8B000BDE8F081FFF7E6
:103C4000C5FC08B10120F8E70CB1607E08B902207C
:103C5000F3E7424639463046FFF728FF054665B987
:103C600094F8280048B1701C054981F885000120AE
:103C700081F884000020C1F8B0002846DDE700008C
:103C8000183200202DE9F04781460E4692464846FC
:103C9000FFF7E0FA0746204890F88400032804D193
:103CA0001D4890F8B000BDE8F087FFF78FFC08B121
:103CB0000120F8E70FB90620F5E70EB90020F2E77A
:103CC0007968C8178C1940EBE6754FF00041611A0E
:103CD00075F1FF3005DB6FF000410020091BA841A2
:103CE00001DA0420DFE7524621464846FFF7DEFEB0
:103CF0008046B8F1000F0DD197F8280050B109F1B6
:103D00000100054981F88500012081F88400002028
:103D1000C1F8B0004046C6E71832002070B5002553
:103D200034E005EB450000EBC500234901EB8004BE
:103D300094F8280040B92846FEF764FB20B91E48D5
:103D40009C30405D022801D1012000E000200646A1
:103D50002846FEF7D9FB36B100206076207802288D
:103D600001D100202076002084F828002070A07661
:103D7000E06120626062022084F8290000210E4880
:103D80009C3041550D484155681CC5B2032DC8DB18
:103D90000220094981F8AC000A20C1F8B0000020D7
:103DA00081F8850081F88400FFF726FE062003498C
:103DB000303981F84D0070BD1832002000330020EA
:103DC00070B5224890F8850006280ED01F4890F85C
:103DD0008500072809D01D4890F88500082804D0E0
:103DE0001A4890F88500092802D100F031F870BD1A
:103DF000164890F88500042802D100F04FF9F6E744
:103E0000124890F88500052802D100F023FAEEE769
:103E10000E4890F88500012815DB0C4890F88500C5
:103E2000032810DC094890F88500401EC5B22846DA
:103E3000FFF794FD0446002C05DD0020034981F8BE
:103E4000850081F8840000BFD1E70000183200200F
:103E50002DE9F041904991F88900FFF7FBF90546FB
:103E60008D4991F88900FFF727FA07468A4991F8AA
:103E70008900FFF70BFA064602F0FEF98649D1F8F1
:103E80008C10A0EB0108844991F88900FFF718FA1B
:103E9000804505D306210820FFF7A8F9BDE8F08189
:103EA0007D4890F8890002280FD195F8280060B16C
:103EB00095F91A00002808DD0320FEF7ABFF20B1BA
:103EC00004210846FFF792F9E8E7734890F8860066
:103ED00006287DD2DFE800F0DC032F5F8CC2384675
:103EE000FEF798FF70B16C4991F8890000231A46DB
:103EF000714249B2FFF772FE04460220664981F81A
:103F0000860012E0644991F88900FFF7C5F9804600
:103F1000614991F88900002342463146FFF75EFE71
:103F2000044603205C4981F886001CB10721204625
:103F3000FFF75CF9ADE03846FEF76CFF00BB564971
:103F400091F88900FEF7E0FA002085F82800524930
:103F500091F88900FFF7A0F980464F4991F8890050
:103F6000002342463146FFF739FE044603204A4902
:103F700081F8860074B107212046FFF737F909E080
:103F8000454991F88900FEF73DFA18B90321072049
:103F9000FFF72CF97DE03846FEF73CFFE8B13E49DB
:103FA00091F88900FEF7B0FA002085F828003A4918
:103FB00091F8890000231A46714249B2FFF70EFEBC
:103FC00004460420344981F8860084B1072100E0CA
:103FD0005EE02046FFF70AF909E02F4991F88900D1
:103FE000FEF710FA18B906210820FFF7FFF850E095
:103FF000294991F88900FEF705FA70BB002085F881
:104000002800254991F88900FEF7E9F920B1072138
:104010000620FFF7EBF841E73846FEF7FBFE20B13C
:1040200003210720FFF7E2F838E71B4991F88900E0
:10403000FFF732F98046184991F88900002342467B
:104040003146FFF7CBFD04460520134981F8860071
:104050001CB107212046FFF7C9F81AE03846FEF7E1
:10406000D9FE50B10C4991F88900FEF74DFA0020B5
:1040700085F82800FEF7E0FF09E0074991F889007C
:10408000FEF7C0F918B906210820FFF7AFF800E0E5
:1040900000BF00BF00BF01E71832002070B56B48B9
:1040A00090F88700082873D2DFE800F0CD0427439A
:1040B0006785ABCA654890F89C0020B90320634926
:1040C00081F88700C0E061480022D0F890101046C7
:1040D000FFF7ECFC04462CB1002221461046FFF706
:1040E0004DF8B1E00220594981F89C00584981F807
:1040F0003000564981F88700A6E0544890F89C00AB
:10410000022805D0002206211046FFF737F89BE071
:104110000020FFF723FC0546002D09DD03204B4955
:1041200081F89C004A4981F83000484981F88700AD
:104130008AE0464890F89D0020B90520434981F85F
:10414000870081E041480022D0F894100120FFF759
:10415000ADFC04462CB1002221460120FFF70EF8E9
:1041600072E00221394880F89D10394880F83110FA
:104170000420364981F8870066E0344890F89D00B5
:10418000022806D0002206210120FEF7F7FF5BE09F
:1041900059E00120FFF7E2FB0546002D0ADD03216F
:1041A0002A4880F89D102A4880F8311005202749B8
:1041B00081F8870048E0254890F89E0030B9072034
:1041C000224981F8870000F081F93DE01F48002274
:1041D000D0F898100220FFF769FC04462CB10022A9
:1041E00021460220FEF7CAFF2EE00221174880F880
:1041F0009E10174880F832100620144981F8870075
:1042000022E0124890F89E00022805D000220621E4
:104210000220FEF7B3FF17E00220FFF79FFB0546E1
:10422000002D0CDD0321094880F89E10084880F815
:1042300032100720054981F8870000F047F903E0B4
:1042400000F044F900E000BF00BF70BD183200204C
:10425000D03200202DE9FC410020FEF7FBFF07468D
:104260000120FEF7F7FF80460220FEF7F3FF064627
:10427000954890F888000B2876D2DFE800F07506A4
:10428000253F4A7B86B5C0E9F5008F497868D1F8AB
:10429000A01088420BD18C48D8F80410D0F8A400A4
:1042A000814204D10820884981F888000BE07068B9
:1042B000002804DD0220844981F8880003E00420FE
:1042C000814981F88800FCE07068002804DC042043
:1042D0007D4981F88800F4E0002211460220FFF7B2
:1042E000E5FB04462CB1012221460220FEF746FFE1
:1042F000E7E00320744981F88800E2E00220FFF73C
:104300002DFB0546002D03DD04206F4981F8880050
:10431000D7E06D497868D1F8A010884204D1062012
:10432000694981F88800CCE07068D8F80410DFF89B
:1043300098C1CDE90010DCF8A0307268D8F80410FC
:104340007868FEF741FE04463CB95F480022D0F889
:10435000A0101046FFF7AAFB044634B10122214603
:104360000020FEF70BFFACE0AAE00520564981F8DB
:104370008800A6E00020FFF7F1FA0546002D03DDD6
:104380000620514981F888009BE04F48D8F8041076
:10439000D0F8A400814204D108204B4981F888005C
:1043A0008FE049497068D1F8A410CDE900107B680E
:1043B00072681846D8F80410FEF706FE04463CB9A9
:1043C00041480022D0F8A4100120FFF76FFB0446FB
:1043D0002CB1012221461046FEF7D0FE71E00720E5
:1043E000394981F888006CE00120FFF7B7FA0546EB
:1043F000002D03DD0820344981F8880061E032484F
:104400007168D0F8A800814204D10A202E4981F8B1
:10441000880056E02C4BD3F8A820D8F80410786810
:10442000FEF7B0FD04463CB927480022D0F8A8109A
:104430000220FFF73BFB04462CB10122214602205B
:10444000FEF79CFE3DE009201F4981F8880038E016
:104450000220FFF783FA0546002D03DD0A201A49E2
:1044600081F888002DE0FFE717497868D1F8A0109F
:10447000884213D11448D8F80410D0F8A40081421F
:104480000CD111487168D0F8A800814206D1787E1D
:1044900020B198F8190008B1707E28B901220621D0
:1044A0000220FEF76BFE0AE00020074981F8850034
:1044B00081F8880081F88400012081F8AC0000E0D8
:1044C00000BF00BFBDE8FC811832002010B50024F9
:1044D00012E03948015D394801553748005D48B15F
:1044E0003548005D032805D001203449303981F872
:1044F0004D0010BD601CC4B2032CEADB002416E0A2
:1045000004EB440000EBC4002B499C3901EB800014
:1045100090F8280018B92046FDF774FF28B1022052
:104520002649303981F84D00E3E7601CC4B2032C02
:10453000E6DB21489C3840681F499C39D1F890102F
:1045400088420DD11C489C38016BD0F89400814200
:1045500006D119489C38C16DD0F89800814216D018
:10456000062015499C39C1F8B000032081F8840069
:10457000002081F88500082081F88700072081F855
:10458000AC0003200D49303981F84D00B1E700201F
:1045900009499C3981F8850081F8870081F88400F9
:1045A000C1F8B000012081F8AC0004200349303983
:1045B00081F84D0000BF9CE7B4320020003300209A
:1045C00010B504462046FFF733F840B12046FEF709
:1045D00063FE20B12046FEF773FE00B100BF0C2041
:1045E00010BD10B50220FEF735FE04460C2010BDAC
:1045F00000B587B03148007808B107B000BD012090
:104600002E490870012141F20400FDF7C1FA202073
:10461000ADF8180018208DF81B0003208DF81A0043
:1046200006A92748FCF7F6FA4020ADF81800042048
:104630008DF81B0006A92248FCF7ECFA8020ADF8A3
:10464000180018208DF81B0006A91D48FCF7E2FA97
:104650004FF40070ADF8180010208DF81B000320F7
:104660008DF81A0006A91748FCF7D4FA0020ADF817
:1046700004004FF48270ADF806000020ADF8080089
:10468000ADF80A00ADF80C004FF40070ADF80E0064
:104690001820ADF810000020ADF812004FF4807122
:1046A000094800F087F801A9074800F065F80121E2
:1046B000054800F00BF800BF9FE7000072000020E3
:1046C00000080140000C01400030014021B1028887
:1046D00042F04002028004E002884FF6BF731A40A5
:1046E0000280704708B501210C20FDF751FA4FF404
:1046F0008070ADF8000003208DF8020010208DF8C6
:10470000030069461448FCF785FA4FF40070ADF8D1
:10471000000003208DF8020010208DF80300694688
:104720000D48FCF777FA4FF48050ADF800000320F5
:104730008DF8020010208DF8030069460648FCF74A
:1047400069FA4FF400710448FCF743FB4FF48071A1
:104750000148FCF73CFB08BD000C0140024600206C
:1047600013890B400BB1012000E000207047014687
:10477000888970478181704710B50022028802F451
:1047800041520B884C8823438C882343CC88234395
:104790000C8923434C8923438C892343CC892343AD
:1047A0001A430280838B4FF2FF74234083830B8A6A
:1047B000038210BD4FF6FF62914204D0028842F49A
:1047C0008072028004E002884FF6FF631A40028084
:1047D000704770B50024002505E0640000F008F87B
:1047E0000443681CC5B2202DF7DB204670BD0000D5
:1047F00010B580210A48FCF7ECFA0120FCF7D0F94B
:104800004FF480710648FCF7D9FA04468021044829
:10481000FCF7DDFA0120FCF7C3F9204610BD0000CB
:1048200000100140704710B500F002F810BD000004
:104830000CB50020019000903348006840F48030AF
:104840003149086000BF3048006800F40030009033
:104850000198401C0190009818B90198B0F5A06F1C
:10486000F1D12948006800F4003010B10120009017
:1048700001E0002000900098012843D123480068FF
:1048800040F01000214908600846006820F0070049
:1048900008600846006840F0020008601A48406856
:1048A000194948600846406848600846406840F436
:1048B000806048600846406820F47C1048600846E4
:1048C000406840F4E81048600846006840F0807096
:1048D000086000BF0C48006800F000700028F9D0A4
:1048E0000948406820F003000749486008464068CE
:1048F00040F00200486000BF0348406800F00C0030
:104900000828F9D10CBD0000001002400020024030
:1049100008B5FFF76DFE01210420FDF739F91020DD
:10492000ADF800008DF8030003208DF80200694601
:104930000148FCF76FF908BD0008014038B504468E
:1049400010211A48FCF743FA0A2001F0F1F810216F
:104950001648FCF73EFA0A2001F0EAF80020009021
:104960001AE000BF02211248FFF7F8FE0028F9D034
:10497000FF210F48FFF7FEFE00BF01210C48FFF7A3
:10498000EDFE0028F9D00A48FFF7F1FEC043009978
:1049900060540098401C009000980228E1DB2046FB
:1049A000FEF75EFA2046FCF721FF38BD0008014003
:1049B0000030014008B5FFF71BFE01211020FDF774
:1049C000E7F81020ADF800008DF8030003208DF803
:1049D000020069460148FCF71DF908BD00100140BE
:1049E00070B50546002415E000BF02211248FFF70C
:1049F000B5FE0028F9D0295D0F48FFF7BBFE00BFC8
:104A000001210D48FFF7AAFE0028F9D00A48FFF758
:104A1000AEFE641C042CE7DB0120FCF7C1F810217A
:104A20000648FCF7D6F90120FCF7BAF81021034834
:104A3000FCF7CDF970BD00000030014000100140CE
:104A4000002202704270827042600281817270475F
:104A500010B50022027042708270002113E001EB59
:104A600041020A4B13F822205AB100EBD10212780E
:104A700001F007040123A340DBB21A4300EBD1038A
:104A80001A704A1CD1B21329E9D310BDF8230020B3
:104A900070B506460C46304600F050F808B1012CBF
:104AA00001D9002070BD701E00EB4000084901EBE9
:104AB00080050CB1012000E0002001462846FFF7E8
:104AC000BFFF2C702146304600F04CF8EAE70000AA
:104AD000F823002010B5002409E004EB4401054A46
:104AE00002EB81000021FFF7ABFF601CC4B2132C66
:104AF000F3D310BDF823002030B501464878401E9E
:104B0000C0F3C702C2F10100C2B24878401E00F0F3
:104B100007050120A840C3B20748805C184008B1CF
:104B2000012000E0002004468878A04201D1012045
:104B300030BD0020FCE700006C000020014619B1E8
:104B4000132901D8012070470020FCE703490968B8
:104B5000491C024A11600249087070476401002034
:104B6000680100202DE9F04180460F464046FFF7DE
:104B7000E5FF10B90020BDE8F081A8F10100C5B241
:104B80000C48445D0C48465D47B10C48005D01216E
:104B9000B140C9B208430949085506E00748005D1D
:104BA0000121B1408843054908550448FFF718FF23
:104BB0000120E0E7E8710008FB7100086E000020AA
:104BC0002DE9F04180460D4616461F464046FFF748
:104BD000B5FF28B125B1102D02D8012E00D817B984
:104BE0000020BDE8F081A8F1010000EB4000084979
:104BF00001EB800402212046FFF722FF01202070F4
:104C00006570A670676001214046FFF7ABFFE8E7DB
:104C1000F823002070B506460D463046FFF78EFF9C
:104C200000B10DB9002070BD701E00EB40000749B7
:104C300001EB800401212046FFF702FF01202070D4
:104C4000656001213046FFF78DFFECE7F823002077
:104C500070B5064606B970BD002536E005EB450087
:104C60001C4901EB8004207800B92CE06078A8B1E1
:104C70002046FFF741FF78B1208930442081208908
:104C80001E280BD3691CC8B20021FFF76BFF04215B
:104C90002046FFF7D5FE16E000202081606860B155
:104CA0006068B04209D8691CC8B20021FFF75AFFFA
:104CB00003212046FFF7C4FE04E0606810B160687D
:104CC000801B606000BF681CC5B2132DC6D300BF37
:104CD000C1E70000F8230020014800687047000089
:104CE000B40100200148006870470000B8010020AE
:104CF00010B5024801F006FC10BD000000A24A04F5
:104D000000B501F0A1FC00BD10B5044601F09CFC0B
:104D100000B110BD34B10948407840F01000074997
:104D2000487005E00548407800F0EF0003494870FE
:104D30000248FFF755FE00BFEBE700006E000020C1
:104D400070B506460C46154614B101F07DFC08B15D
:104D5000002070BD05B901254CF25030854200D9C4
:104D6000054601F057FD3046FFF7CEFF0220FBF766
:104D700017FF044B2A464FF4FA71204601F06AFCF3
:104D80000120E6E7A086010010B501F043FD10BD4B
:104D9000042808D14FF0E021096941F004014FF0E7
:104DA000E022116107E04FF0E021096921F00401E0
:104DB0004FF0E02211617047704710B5FCF7F8FE24
:104DC0004FF48030FCF7B6FF00BFFDF72BF8012849
:104DD000FBD14FF4E0110004FDF70AF80120FDF7C4
:104DE00001F800BF3920FCF773FF0028FAD0022039
:104DF000FDF70CF800BFFCF789FF0828FBD1002065
:104E0000FCF78CFF4FF48060FCF7D4FF0020FCF728
:104E1000DDFF01218803FCF7BBFE10BD10B5134870
:104E2000006840F0010011490860084640681049D8
:104E300008400E494860084600680E4908400B4982
:104E400008600846006820F4802008600846406832
:104E500020F4FE0048604FF41F008860FFF7E3FC79
:104E60004FF000600449086010BD000000100240CF
:104E70000000FFF8FFFFF6FE08ED00E070B58CB013
:104E800006460C4615460121C802FCF781FE01A822
:104E900000F02CFAADF80860ADF804400020ADF841
:104EA0000A00ADF8060001A9264800F0CDF908A8CF
:104EB00000F0B9F96020ADF820000020ADF8220024
:104EC0000420ADF82400ADF826500020ADF82800ED
:104ED000ADF82A00ADF82C00ADF82E0008A919484D
:104EE00000F042F90821174800F090F90121154817
:104EF00000F0CEF804A800F0E7F84FF40060ADF839
:104F000010004010ADF812000020ADF81400ADF80C
:104F100018004FF40050ADF81A004000ADF81C0026
:104F200004A9084800F0C0F80121064800F0FFF885
:104F30000121044800F0D7F80121024800F0DFF811
:104F40000CB070BD002C014010B50121880700F0A5
:104F5000F0F8B0B10121880700F0C2F809480068F4
:104F6000401C0849086008480088401C0649088021
:104F700008460088642804D10020088001200349E5
:104F8000087010BD78010020740100207C01002011
:104F900010B501210220FCF7EBFD09200F498880A4
:104FA000472008800020C88048800D4800F04CF958
:104FB000012211460A4800F0CDF81D200949087069
:104FC00001204870002088700120C8700846FBF757
:104FD000DFFF0121024800F086F810BD7C2500208B
:104FE000000400407F01002010B50121094800F0B5
:104FF000A0F868B10121074800F072F8064800885F
:10500000401C80B204490880642801DB002008802D
:1050100010BD0000000400408401002010B50121F3
:105020000420FCF7A5FD09200F498880472008804F
:105030000020C88048800D4800F006F90122114682
:105040000A4800F087F81E200949087003204870BC
:1050500001208870C8700846FBF79AFF01210348B9
:1050600000F041F810BD00007C2500200008004041
:105070007F01002010B50121044800F05AF818B152
:105080000121024800F02CF810BD0000000800408B
:1050900021B1028842F08002028004E002884FF6CB
:1050A0007F731A40028070470A884B881A438B88A6
:1050B0001A43CB881A430B891A434B891A438B89AD
:1050C0001A43A0F84420704700210180418081806C
:1050D000C1800181418181817047CA43028270474A
:1050E000CA430282704721B1028842F00102028065
:1050F00004E002884FF6FE731A400280704731B117
:10510000B0F8442042F40042A0F8442005E0B0F892
:105110004420C2F30E02A0F8442070471AB18389DC
:105120000B43838102E083898B43838170478182B3
:10513000704730B50246002000230024158A05EA96
:105140000103958905EA010413B10CB1012000E0C7
:10515000002030BD1AB183890B43838102E083892B
:105160008B4383817047000070B500240022002328
:10517000058C4FF6EF7635400584028C8388048BCE
:1051800048F6FF752C404FF6FF452C400D884FF632
:10519000FF7606EA05252C434FF6DF752A400D8978
:1051A00006EA05152A434D8806EA05152A43154DDA
:1051B000A84202D0144DA8421DD14FF67F752A4057
:1051C0004D894FF6FF7606EA05152A434FF6BF755F
:1051D0002A408D8806EA05152A434FF6FF352B40F5
:1051E0004FF2FF752B408D8906EA85052B43CD894B
:1051F00006EA85052B4383800483CD8805870284D6
:1052000070BD0000002C0140003401400A4600211E
:10521000018B4FF2FF7319404FF6FF7303EA02232D
:105220001943018370470021018041808180C18042
:10523000018141818181C1817047018582827047EE
:105240008185704781847047002202881D4B9842F7
:105250000ED01D4B98420BD0B0F1804F08D01B4BA5
:10526000984205D01A4B984202D01A4B984204D16A
:105270004FF68F731A404B881A43174B984207D04A
:10528000164B984204D04FF6FF431A40CB881A437E
:1052900002808B8883850B8803850A4B98420BD04C
:1052A000094B984208D00E4B984205D00D4B9842BE
:1052B00002D00D4B984201D10B7A038601238382E1
:1052C00070470000002C0140003401400004004001
:1052D00000080040000C0040001000400014004096
:1052E0000040014000440140004801404FF6FF717A
:1052F000818000210180C1804180017270470000DF
:1053000010B501210846FCF733FC40F2E7301249A2
:105310008880472008800020C88048804FF0804067
:10532000FFF792FF01218807FFF7D7FE0122114600
:105330009007FFF70FFF1C200849087002204870F3
:10534000002088700120C8700846FBF721FE01216B
:105350008807FFF7C8FE10BD7C2500207F010020D4
:1053600010B5044621460248FCF7F2FF10BD0000CC
:10537000F005002070B52548048804F0200020B115
:1053800023480068401C2249086004F0080020B14E
:1053900020480068401C1F49086004F0020020B14A
:1053A0001D480068401C1C49086004F0040020B13E
:1053B0001A480068401C1949086004F0010020B137
:1053C00017480068401C1649086004F00F0028B117
:1053D0000E4800880D48001D008870BD04F02000B4
:1053E00090B10A48001D0088C5B229460D48FCF757
:1053F000C8FF48B90C484068401C0B4948600B483E
:105400000068401C0949086000BFE6E70038014019
:1054100088000020900000209400002098000020C8
:105420009C000020F005002020060020AC00002099
:1054300000B587B04FF400726B496C48FCF782FFEF
:105440004FF400726A496B48FCF77CFF00206A4900
:1054500088726A4988726A4800F078FA694800F0F0
:1054600075FA01211120FCF793FB01218804FCF758
:105470007FFB01210420FCF78BFB01210820FCF7B6
:1054800087FB01218803FCF783FB4FF40070ADF824
:10549000180018208DF81B0003208DF81A0006A9AB
:1054A0005948FBF7B7FB4FF48060ADF818000420B3
:1054B0008DF81B0006A95448FBF7ACFB4FF4807035
:1054C000ADF8180010208DF81B0003208DF81A008D
:1054D00006A94D48FBF79EFB4C48FCF7BFFC4FF478
:1054E0000040ADF8180006A94948FBF793FB49486E
:1054F000FCF7B4FC01214848FBF718FC4FF480602E
:10550000ADF8180018208DF81B0003208DF81A0044
:1055100006A94248FBF77EFB4FF40060ADF8180087
:1055200004208DF81B0006A93C48FBF773FB4FF4E1
:10553000E13002900020ADF80C00ADF80E00ADF89F
:105540001000ADF814000C20ADF8120002A92F488D
:1055500000F030F9012240F225512C4800F005F905
:1055600001226021294800F000F901222821274862
:1055700000F0FBF80121254800F0DEF802A92548DB
:1055800000F018F9012240F22551224800F0EDF810
:10559000012260211F4800F0E8F8012228211D485F
:1055A00000F0E3F801211B4800F0C6F825208DF833
:1055B000040000208DF805008DF8060001208DF80C
:1055C000070001A8FBF7E4FC27208DF80400032066
:1055D0008DF805008DF8060001208DF8070001A860
:1055E000FBF7D6FC07B000BDF0010020F00500205D
:1055F000F0030020FC050020080600201306002010
:10560000200600203006002000080140003801403C
:10561000000C014000480040100014000010014040
:1056200000BFEFF31081084672B60021024A1170E4
:1056300000B962B67047000054000020002000BF8F
:10564000EFF31082114672B6044A12781AB9012299
:10565000024B1A70012001B962B670475400002055
:105660001D49088800F0200121B11C490968491C26
:105670001A4A116000F0080121B119490968491C52
:10568000174A116000F0020121B116490968491C4E
:10569000144A116000F0040121B113490968491C42
:1056A000114A116000F0010121B110490968491C3B
:1056B0000E4A116000F00F0129B107490988064917
:1056C000091D0988704700F0200111B10249091D28
:1056D000098800BFF6E70000004400408800002071
:1056E0009000002094000020980000209C000020E2
:1056F00010B5034A0349044800F02EF910BD00001C
:1057000030060020FC0500200048004008B505E0F8
:10571000064A9DF80010064800F0D2F86946054890
:10572000FCF716FE0028F3D108BD0000300600206B
:1057300013060020FC05002021B1828942F40052AA
:10574000828104E082894DF6FF731A40828170479E
:1057500002460020B1F5007F00D100BF13880B4046
:105760000BB1012000E000207047F0B50346002493
:1057700000260025002040F66A17B94200D100BF7C
:105780001846C1F3421401F01F06012707FA06F577
:10579000012C01D10C3004E0022C01D1103000E0CA
:1057A00014301AB107682F43076002E00768AF435F
:1057B0000760F0BD2DE9F04786B005460E4600248F
:1057C000A24600BFA1460027B08900B100BF2F4606
:1057D0002C8A4CF6FF700440F08804432C82AC897C
:1057E0004EF6F3100440B0883189084371890843AC
:1057F0000443AC81AC8A4FF6FF400440B0890443B7
:10580000AC8201A8FCF7FAF91F48874202D1DDF803
:1058100010A001E0DDF80CA0A88900F4004040B120
:105820000AEBCA0000EB0A1031684900B0FBF1F83E
:1058300007E00AEBCA0000EB0A1031688900B0FBF0
:10584000F1F86420B8FBF0F004012009642101FBA9
:105850001089A88900F4004040B1322000EBC90053
:10586000B0FBF1F000F00700044308E0322000EB49
:1058700009106421B0FBF1F000F00F0004432C810B
:1058800006B0BDE8F0870000003801400146087806
:10589000AA2802D1087A552801D000207047002399
:1058A000002204E0885C1844C3B2501CC2B2082A2B
:1058B000F8D3487A984201D10120EFE70020EDE7C4
:1058C0002DE9F04104460F461646A07A30B9AA2FBA
:1058D00002D127700120A072BDE8F081A07A275480
:1058E000A07A401CA072A07A0A2800D2F4E72046D1
:1058F000FFF7CCFF40B1204600F0C4FCB068401C6C
:10590000B0600020A072E7E7F068401CF060002063
:10591000A072012515E0605DAA2810D14FF00008A3
:1059200008E0605D04F8080008F1010000F0FF08DD
:10593000681CC5B20A2DF4D384F80A8003E0681C01
:10594000C5B20A2DE7D300BF00BFC5E70021016043
:1059500041608160C16070472DE9F04105460F4606
:105960001446B5F8008008F00F0018B1A888C6B238
:10597000BDE8F08108F0200060B1A888C6B22068B8
:10598000401C206031463846FCF7FBFC10B96068CB
:10599000401C606000BFEBE72DE9F05F05468846DC
:1059A00091464FF0000B5848854201D1012000E09C
:1059B0000020044624B155480068401C5349086043
:1059C0002DB1B8F1000F02D0B9F1000F02D10020C3
:1059D000BDE8F09F4C48854202D04D48854201D138
:1059E000012000E00020824634B1FFF727FE08B90D
:1059F0000020EDE74FF0010BBAF1000F1ED000F0D0
:105A00003BFC06460EE000F037FC801B142809D34F
:105A10003CB140480068401C3E4908600220FBF74A
:105A2000C7FF64E040212846FFF792FE0028EAD035
:105A30002846FCF72DFA1420FBF7B2F8002725E0E2
:105A400000F01AFC06460EE000F016FC801B14283D
:105A500009D33CB130480068401C2F490860012040
:105A6000FBF7A6FF43E080212846FFF771FE0028E0
:105A7000EAD018F80710284600F054F824B1274857
:105A80000068401C25490860781C87B24F45D7DB69
:105A900000F0F2FB06460EE000F0EEFB801B14283F
:105AA00009D33CB11B480068401C1A490860022019
:105AB000FBF77EFF1BE040212846FFF749FE002848
:105AC000EAD0BAF1000F05D01420FBF769F8284698
:105AD000FCF7C4F924B112480068401C1049086062
