:020000040800F2
:10000000803900200D0200088D0F0008D70D000870
:10001000CD0E0008A3040008715A0008000000007B
:100020000000000000000000000000008D470008F4
:100030005B0B000800000000FD120008214D0008C5
:1000400027020008270200082702000827020008EC
:1000500027020008270200082702000827020008DC
:1000600027020008270200082702000827020008CC
:1000700027020008270200082702000827020008BC
:1000800027020008270200082702000827020008AC
:10009000270200082702000827020008270200089C
:1000A000270200082702000827020008270200088C
:1000B000B14E0008514F0008DD4F0008270200082C
:1000C000270200082702000827020008270200086C
:1000D0002702000815530008C155000851560008B2
:1000E000270200082702000827020008270200084C
:1000F000270200082702000827020008270200083C
:10010000270200082702000827020008270200082B
:10011000270200082702000827020008270200081B
:1001200027020008A904000835070008CD080008C8
:1001300000F002F800F05AF80AA090E8000C82449F
:100140008344AAF10107DA4501D100F04FF8AFF27C
:10015000090EBAE80F0013F0010F18BFFB1A43F0A5
:100160000103184758700000787000000A444FF0EF
:10017000000C10F8013B13F0070408BF10F8014B06
:100180001D1108BF10F8015B641E05D010F8016B4B
:10019000641E01F8016BF9D113F0080F1EBF10F8AF
:1001A000014BAD1C0C1B09D16D1E58BF01F801CBD2
:1001B000FAD505E014F8016B01F8016B6D1EF9D555
:1001C0009142D6D37047000000230024002500266A
:1001D000103A28BF78C1FBD8520728BF30C148BFAA
:1001E0000B6070471FB51FBD10B510BD00F01FF9A3
:1001F0001146FFF7F7FF05F055FF00F03DF903B496
:10020000FFF7F2FF03BC00F045F900000948804702
:1002100009480047FEE7FEE7FEE7FEE7FEE7FEE7E8
:10022000FEE7FEE7FEE7FEE704480549054A064B00
:1002300070470000854D0008310100088033002020
:1002400080390020803500208035002053EA020CE0
:1002500000F069802DE9F04B4FF00006002B1FBF26
:10026000B3FA83F503FA05F424FA05F65E4012BFEB
:100270001643B2FA82F502FA05F4C5F120051EBF55
:1002800022FA05FC44EA0C04203556EA044C4FEAF5
:10029000144418BF641C4FF000084FF0000990424E
:1002A00071EB030C39D3002919BFB1FA81F701FAB8
:1002B00007F6B0FA80F700FA07F6C7F120071EBF6D
:1002C00020FA07FC46EA0C062037B6FBF4FCA7EB45
:1002D0000507103F07F01F0BCBF120060CFA0BFBB4
:1002E0002CFA06F644BFB3460026202FA4BF5E4674
:1002F0004FF0000B5BEA060C08BF4FF0010B19EB47
:100300000B09ABFB027C48EB0608C01B06FB02CCCA
:100310000BFB03CC71EB0C01C1E70B4602464146D7
:100320004846BDE8F08B13B54FF000004FF00001D8
:10033000AFF30080BDE81C407047032A40F23080D4
:1003400010F0030C00F0158011F8013BBCF1020F16
:10035000624498BF11F801CB00F8013B38BF11F897
:10036000013BA2F1040298BF00F801CB38BF00F8AE
:10037000013B11F0030300F02580083AC0F008802B
:1003800051F8043B083A51F804CBA0E80810F5E70F
:10039000121D5CBF51F8043B40F8043BAFF30080F2
:1003A000D20724BF11F8013B11F801CB48BF11F867
:1003B000012B24BF00F8013B00F801CB48BF00F837
:1003C000012B704710B5203AC0F00B80B1E81850EF
:1003D000203AA0E81850B1E81850A0E81850BFF42F
:1003E000F5AF5FEA027C24BFB1E81850A0E81850CE
:1003F00044BF18C918C0BDE810405FEA827C24BF22
:1004000051F8043B40F8043B08BF7047D20728BFAF
:1004100031F8023B48BF11F8012B28BF20F8023BFE
:1004200048BF00F8012B704770477047704775460A
:1004300000F02CF8AE4605006946534620F0070050
:10044000854618B020B5FFF7EFFEBDE820404FF01D
:1004500000064FF000074FF000084FF0000B21F0AE
:100460000701AC46ACE8C009ACE8C009ACE8C0097B
:10047000ACE8C0098D46704710B50446AFF3008064
:100480002046BDE81040FFF7BABE000000487047A4
:100490002033002001491820ABBEFEE726000200F1
:1004A000704700BFFEE700002DE9F04F8BB09A487F
:1004B00000F016FB10B90BB0BDE8F08F964800F0C5
:1004C0004FFA9648007810B906F0AEFAF3E7944870
:1004D000007800287ED0924840680790904886684F
:1004E000D0F80C900069069000208D4908708D4866
:1004F000006838B18B4806684E4500D94E4636B97B
:10050000012604E006B901264E4500D94E4607985B
:1005100010B906F089FACEE78349079808600020F1
:10052000486008468660B9F1000F01D1012000E063
:1005300048467D49C860069808B9012000E0069841
:1005400079490861084680688968A0FB0170804687
:10055000022075490969A0FB0123734800684FF028
:10056000000CA2FB001E03FB00E002FB0C00C919FB
:1005700040EB080002226346CDE9021008460399C9
:10058000FFF764FECDE90401DDE9040105F044FD57
:1005900005466548C068A84201D26348C56805B9E8
:1005A00001256148456102205F490969A0FB0110EE
:1005B000CDE90210A5FB0510C91B60EB0800CDE9D1
:1005C0000010084601A90EC9FFF740FE5649886190
:1005D000022000E03CE00969A0FB0101CDE9020135
:1005E000A5FB0510CDE90010084601A90EC9FFF7CB
:1005F0002DFE4D49C8610846C06908B90120C8618F
:1006000002204A490870012044490870002006F081
:10061000E3FB044604B901244248046060000890EA
:10062000089806F0F5FA404800683F494968A0EB91
:10063000010ABAF1800F01D9802000E050460A90EB
:100640000A9841000991099988B205F047FA32E702
:1006500036480078012818D13548006810B906F0EE
:10066000E3F928E73248D0F800B0BBF5807F01D924
:100670004FF4807B2E480068A0EB0B002C490860EB
:100680001FFA8BF005F02AFA15E7284800780228AF
:100690003DD12548006824494968A0EB010ABAF118
:1006A000800F01D9802000E050460A901E48416822
:1006B0000A9808441C49486008464068096888420E
:1006C00002D306F0B1F9F6E61749486806F084FB54
:1006D000044604B901241348046060000890089897
:1006E00006F096FA104800680F494968A0EB010A25
:1006F000BAF1800F01D9802000E050460A900A9894
:1007000041000991099988B205F0E8F9D3E606F0AD
:100710008BF900BFCFE60000200000109C010020F4
:100720008425002098010020982900209D010020A8
:10073000A00100202DE9FC5F5B4800F0D1F908B969
:10074000BDE8FC9F584800F00BF95848007810B9F4
:1007500005F0D6FFF4E75648007830B35448D0F897
:1007600004A08568C66800690090002050490870A0
:100770005048006838B14F480568B54200D9354641
:1007800035B9012504E005B90125B54200D9354642
:10079000BAF1000F02D105F0B3FFD1E73246294686
:1007A0005046009B05F0CCFECAE74348007801287C
:1007B00029D1802441480068A04201D23F48046802
:1007C0003F48006820443E4908603C480068001BE0
:1007D0003A4908603B48006810B905F091FFAFE75F
:1007E0003848D0F80080B8F5807F01D94FF4807880
:1007F00034480068A0EB0800324908601FFA88F00E
:1008000005F048F99CE72C480078022847D12E488B
:1008100000682D494968A0EB0109B9F1800F01D9A1
:10082000802000E048460446274840682044264986
:100830004860084640682249086023480068224909
:100840004968401A1D4908601F4840681E490968E8
:10085000884202D305F054FF72E71B49486806F04E
:1008600057FA074607B90127124807607800019038
:10087000019806F00DFA1448006813494968A0EB86
:100880000109B9F1800F01D9802000E048460446F3
:100890004FEA440B1FFA8BF005F0FCF850E705F027
:1008A0002FFF00BF4CE7000000020010AC01002049
:1008B000B8290020A8010020B8010020B4010020C0
:1008C000B0010020BC010020CC2D002010B5224832
:1008D00000F006F900B910BD1F4800F041F81F48AC
:1008E000C0691E49896808441C49C86108464068B7
:1008F0008968401A194948600846406810B900F0F4
:10090000D9FCE8E715484068802806D80320134939
:1009100048750846006AC8600BE01048C0680F4977
:100920000969884205D20D4800690C49C860022057
:1009300048750A49C968480000F0B4FB0748406898
:10094000802801D9802001E0044840680446204600
:1009500000F060FB00BFBEE700200010EC2D00207F
:1009600000F0805111B10349086001E0024948607C
:1009700070470000040402400000024021B10268F8
:1009800042F00102026004E002684FF6FE731A4072
:100990000260704701684FF6FE721140016000214D
:1009A000016041608160C1604B49884208D14A4979
:1009B0000839496841F00F01474A083A51608AE016
:1009C00045491431884208D143490839496841F002
:1009D000F001414A083A51607DE03F4928318842A0
:1009E00008D13D490839496841F470613A4A083AEA
:1009F000516070E038493C31884208D136490839A5
:100A0000496841F47041344A083A516063E0324920
:100A10005031884208D130490839496841F4702181
:100A20002D4A083A516056E02B496431884208D17A
:100A300029490839496841F47001274A083A516048
:100A400049E025497831884208D123490839496865
:100A500041F07061204A083A51603CE01F498842E9
:100A600006D1011F096841F00F01021F116032E039
:100A70001A491431884208D11849091F096841F000
:100A8000F001164A121F116025E0144928318842EE
:100A900008D11249091F096841F470610F4A121FF9
:100AA000116018E00D493C31884208D10B49091FFB
:100AB000096841F47041094A121F11600BE00749AF
:100AC0005031884207D10549091F096841F4702156
:100AD000024A121F116070470800024008040240D9
:100AE00001460020002201F0805313B1054B1A6823
:100AF00001E0054B1A6802EA01030BB1012000E096
:100B00000020704700040240000002401AB1036850
:100B10000B43036002E003688B430360704710B52A
:100B20000022026847F6F0739A430C6A8B682343ED
:100B30000C6923434C6923438C692343CC692343C9
:100B40004C6A23438C6A23431A430260CB68436098
:100B50000B6883604B68C36010BD704710B56FF0C1
:100B6000040004F0C9F80A4800680A49B0FBF1F033
:100B7000094908700846007800EB4001C1EBC0103D
:100B80004FF6FF7101EAC0000449088010BD000063
:100B9000C401002000127A000000002002000020A2
:100BA00001460D4A12784A434FF0E0235A61002271
:100BB0009A6101221A6100BF4FF0E022106900F033
:100BC00001021AB100F48032002AF5D000224FF061
:100BD000E0231A619A6170470000002008B50121E6
:100BE000092000F0A5FF0121084800F09FF801202E
:100BF000ADF8000003208DF8020018208DF80300E6
:100C00006946034800F006F808BD000040001600E1
:100C1000000C01402DE9F04102460025002600208D
:100C200000230024002791F803C00CF00F0591F871
:100C300003C00CF0100CBCF1000F03D091F802C0FF
:100C40004CEA050591F800C0BCF1000F31D01468E2
:100C500000202BE04FF0010C0CFA00F3B1F800C0BB
:100C60000CEA03069E4220D183004FF00F0C0CFAD1
:100C700003F7BC4305FA03FC4CEA040491F803C0F3
:100C8000BCF1280F06D14FF0010C0CFA00FCC2F8A1
:100C900014C00AE091F803C0BCF1480F05D14FF031
:100CA000010C0CFA00FCC2F810C0401C0828D1D37B
:100CB0001460B1F800C0BCF1FF0F34DD54680020AF
:100CC0002EE000F1080C4FF0010808FA0CF3B1F81F
:100CD00000C00CEA03069E4221D183004FF00F0CA6
:100CE0000CFA03F7BC4305FA03FC4CEA040491F840
:100CF00003C0BCF1280F05D100F1080C08FA0CF86C
:100D0000C2F8148091F803C0BCF1480F07D100F17C
:100D1000080C4FF0010808FA0CF8C2F81080401CCB
:100D20000828CED35460BDE8F0810000F0B50A4633
:100D3000002300240021002500F00046B6F1004FFA
:100D400002D11D4EF16901E01B4E7168C0F30345ED
:100D500083B200F44016B6F5401F08D121F070614F
:100D6000154E766826F07066134F7E6012E000F430
:100D70008016B6F5801F06D1032606FA05F4A143B6
:100D800041F0706106E0460D360103FA06F6B14304
:100D900041F0706122B1460D360103FA06F6314387
:100DA00000F00046B6F1004F02D1034EF16101E0C0
:100DB000014E7160F0BD00000000014002460020BD
:100DC00093680B400BB1012000E0002070474161A7
:100DD00070470161704700BFFEE7000070B5042155
:100DE0001448FFF7F4FF4FF47A70FFF7D9FE03F0D1
:100DF000A4FC05464FF47A70FFF7D2FE04210D489B
:100E0000FFF7E7FF05F4803008B10B4870BD43F6EB
:100E1000FF7000EA954404F4005010B144F44040DF
:100E200004B2204606F05CF806464FF07A5106F010
:100E30006FF8EBE7000C014000007AC408B501210F
:100E4000182000F075FE4020ADF8000010208DF84D
:100E5000030003208DF8020069461A48FFF7DAFE06
:100E60000420ADF8000010208DF8030003208DF859
:100E7000020069461448FFF7CDFE8020ADF800005F
:100E800010208DF8030003208DF8020069460D48FC
:100E9000FFF7C0FE4FF48070ADF8000004208DF81D
:100EA000030069460748FFF7B5FE40210548FFF7F4
:100EB00090FF04210448FFF78CFF80210148FFF7D1
:100EC00086FF08BD00100140000C014000BFFEE796
:100ED000002016E001212A4A02EB40129175002100
:100EE000274A02EB40121183254A02EB4012D175CA
:100EF000234A02EB40129176214A02EB4012D1764E
:100F0000401C0328E6DB002036E0012100EB400214
:100F10001C4B03F81210002100EB400203EB4202CD
:100F2000518000EB400203EB4202517000EB4002A3
:100F300003EB4202117100EB400203EB42025171DC
:100F4000012100EB4002104B03F81210002100EBCE
:100F5000400203EB4202518000EB400203EB4202ED
:100F6000517000EB400203EB4202117100EB4002B2
:100F700003EB42025171401C0228C6DB704700009F
:100F8000FC000020DC230020E82300207047000044
:100F900070B5002100230F22C47804B3154C2468D7
:100FA00004F4E064C4F5E064210AC1F10403CA401A
:100FB000447804FA03F184781440214309010E4C6B
:100FC0000678A155047804F01F050124AC4005788B
:100FD0006D11AD0005F1E025C5F8004109E0047888
:100FE00004F01F050124AC40044D0678761145F845
:100FF000264070BD0CED00E000E400E080E100E080
:1010000002490143024A1160704700000000FA05DE
:101010000CED00E010B504460021124804F017F86A
:1010200000211148FFF7AAFC1048FFF799FC0121A5
:101030000C4804F006F80E4884600E480A490C314A
:1010400008604FF6FF7000EA44000749091D086078
:1010500001210548FFF792FC0121024803F0F7FF48
:1010600010BD0000001400404404024000200010A5
:10107000EC2D0020142E002010B5044634B1084891
:10108000407840F040000649487005E00448407848
:1010900000F0BF0002494870014803F055FC10BD44
:1010A0006A00002070B5054605B901250C48B0FB63
:1010B000F5F404B90124B4F5803F01D94FF480342C
:1010C00001220021074804F06CF8601E81B2054837
:1010D00004F06AF80021034804F068F870BD0000CD
:1010E00000A24A04001400400148C0697047000093
:1010F000EC2D00200148406870470000EC2D0020D6
:1011000010B590B00121082000F012FD012120202F
:1011100000F0FEFC0121022000F0EAFC4FF4005038
:10112000ADF83C0003208DF83E0010208DF83F0004
:101130000FA93348FFF76EFD4FF400513048FFF719
:1011400046FE00240BE004F0010010B14FF0005007
:1011500001E04FF400502B4941F82400641CFF2C9F
:10116000F1D90020ADF83000ADF8320040F2E730A0
:10117000ADF834000020ADF836008DF838000CA929
:10118000214804F015F8012211021F4803F07AFFEC
:101190001E48FFF7FFFB1A481030019019480290D3
:1011A00010200390000104900020059080200690FC
:1011B0008000079080000890002009904FF40050B4
:1011C0000A9000200B9001A91048FFF7A8FC01220B
:1011D00002210E48FFF79AFC3B208DF80000012009
:1011E0008DF8010003208DF8020001208DF8030026
:1011F0006846FFF7CDFE00F05DF810B010BD0000AE
:10120000000C0140142E0020001400404404024051
:101210000148007870470000EC2D00202DE9F047D0
:1012200005460F4614461E46DDF8208015B11F48BE
:10123000007810B10020BDE8F08704B90124A6426F
:1012400000D22646B8F1000F01D14FF0010800F09E
:1012500031F80FB1012000E0002014490875087D25
:10126000FFF70AFF11488561456000200F49C861FA
:1012700008460462C4600661C0F8248001204875F5
:1012800041030B48FFF7A3FD6000FFF70BFF0120B0
:1012900006490870802D01D9802000E0284681464B
:1012A0004846FFF7B7FE0120C5E70000EC2D0020FF
:1012B000000C014010B500210B4803F0C8FE0021CE
:1012C0000A48FFF75BFB0A48FFF74AFB0121064883
:1012D00003F0B7FE4FF400510648FFF778FD0020F9
:1012E00005490870487510BD0014004044040240D0
:1012F00000200010000C0140EC2D0020704730B59C
:1013000002460B464FF6FF70002118E0555C80EA5C
:10131000052000240FE000F400452DB141F2210525
:1013200085EA4005ADB203E04FF6FF7505EA4005DA
:101330002846651CECB2082CEDD34D1CA9B299428D
:10134000E4DB30BD0246002003E000231354431CBD
:1013500098B28842F9DB704710B50346002003E0DD
:101360000C5C1C54441CE0B29042F9DB10BD2DE92A
:10137000F04104460D464CB145B12078AA2805D16C
:101380006078FE2802D1607D552802D00020BDE89B
:10139000F08104F1160000F06DF980461621204618
:1013A000FFF7ADFF0746B84501D00020EFE7A07872
:1013B0002870E01C00F05EF96880002605E0701DD2
:1013C000215C281D8155701CC6B2102EF7D3012058
:1013D000DDE7F0B505460C46AA202070FE206070BF
:1013E0002878A0706988E01C00F0E4F9002605E088
:1013F000281D815D701D2154701CC6B2102EF7D3BC
:101400005520607516212046FFF779FF07463946BB
:1014100004F1160000F0CEF9F0BD000010B51A215D
:101420000A48FFF78FFF0020094908700949087032
:101430000949087009490870094908700949087084
:1014400018210948FFF77EFF10BD00008822002008
:10145000D9000020DA000020DB000020DC000020A2
:10146000DD000020DE0000201C23002010B5044613
:101470001B48007E38B9AA2C04D1194804700120F9
:101480001749087610BD1648007E182809D315485C
:101490008068401C1349886000201149087648760E
:1014A000F0E70F48017E007E401C0D4A1076104682
:1014B0004454007E022806D1FE2C01D1182000E001
:1014C0000A20074948760648407E38B10448007E25
:1014D0000349497E884201DB00F020F800BFD1E7D4
:1014E000882200201C230020014600230878AA2817
:1014F00002D1087A552801D000207047002204E06C
:10150000885C1844C3B2501CC2B2082AF8D3487A87
:10151000984201D10120F0E70020EEE700B585B048
:101520001D48407E182826D11B48407D552808D0EC
:101530001A488068401C1949886000F0ADF805B071
:1015400000BD69461448FFF712FF38B913484068D8
:10155000401C1249486000F09FF8F0E7684600F030
:1015600051F80E480068401C0C49086000200A49E8
:1015700008764876E3E70848FFF7B6FF38B1064833
:1015800000F00EF80020044908764876D7E700F00E
:1015900083F800BFD3E70000882200201C2300202E
:1015A00010B5044613480078042809D31248C068CF
:1015B000401C1149C86008460069401C086110BD04
:1015C0000E49097801EB81010D4A02EB41000A2224
:1015D0002146FFF7C1FE09480078401C00F00300D7
:1015E0000649087003480078401C0249087000BF93
:1015F000E5E70000DB0000201C230020DA000020CB
:10160000A222002010B5044613480078042809D30C
:101610001248C068401C1149C86008464069401C17
:10162000486110BD0E49097801EB81010D4A02EBBA
:10163000810014222146FEF780FE09480078401CF4
:1016400000F003000649087003480078401C024976
:10165000087000BFE5E70000DE0000201C2300202A
:10166000DD000020CA22002000B50346184600F025
:1016700007F800BD014608784A7840EA0220704722
:10168000014608784A7840EA02208A7840EA024017
:10169000CA7840EA0260704710B5194B1B7E581E8D
:1016A00025E0174B1B5CAA2B1FD1154B1B7E1B1A69
:1016B000D9B2002206E0C3B21344114CE35CA35438
:1016C000531CDAB28A42F6DB0D4B1976022904D399
:1016D0005B78FE2B01D1182304E0022901D30A23F1
:1016E00000E00023064C637610BD431E18B20028AC
:1016F000D7DC0023024C2376637600BFF4E70000BA
:101700008822002010B5044614B10F48007808B9AB
:10171000002010BD0D48007800EB80000C4A02EB61
:10172000800114222046FEF708FE08480078401C7D
:1017300000F003000549087003480078401E024984
:1017400008700120E5E70000DE000020DC0000203A
:10175000CA22002010B5044614B10F48007808B919
:10176000002010BD0D48007800EB80000C4A02EB11
:1017700040010A222046FFF7EFFD08480078401C90
:1017800000F003000549087003480078401E024934
:1017900008700120E5E70000DB000020D9000020F0
:1017A000A222002010B503460C462146184600F040
:1017B00005F810BD01700A124270704701700A0AE4
:1017C00042700A0C82700A0EC27070477CB50446E3
:1017D0000020009001901448007800B97CBD04F00E
:1017E000A9FE10B900F05AF8F8E710480078205C1C
:1017F0000F490978084008B1012000E000200546A3
:101800000C480078854200D0E8E701208DF8000000
:101810008DF80100084800788DF8020000F03EF8CD
:1018200004F06EFF00BFD9E7D4000020D5000020EF
:10183000D6000020D7000020D800002070B5044654
:101840000D460CB1102C03D900F028F8002070BD13
:10185000601EC0F3C706C6F101000B490870601E88
:1018600000F0070101208840084908700DB10120EF
:1018700000E000200649087006480470012006496F
:10188000087000BFE3E70000D5000020D60000206C
:10189000D7000020D8000020D400002000200549F7
:1018A0000870054908700549087005490870054920
:1018B00008707047D4000020D5000020D60000201A
:1018C000D7000020D80000200146032901D10020C4
:1018D00070470846FCE7000000B500F091F8FF20D3
:1018E000034908700020034908700349087000BDCF
:1018F000D1000020D2000020D300002002460B4679
:10190000194605E0505C08B100207047481CC1B280
:101910000629F7D30120F8E730B50246174B1B78AC
:10192000042B05DB164B1B685B1C154C236030BD7C
:10193000144B154C24781A5500200AE00B5C124C0D
:10194000247804EB4404114D05EB44042354431C58
:10195000D8B20628F2DB0C4B1B785B1C0A4C2370B8
:1019600023461B78042B01DB00232370034B1B78D9
:101970005B1C024C237000BFD9E7000081000020EF
:10198000AC0000207B0000208000002070060020BA
:1019900070B5044604F0E8FB054600BFEFF3108085
:1019A000064672B60D480068401C0C4908600C4899
:1019B0000470022C01D1092001E00A4800780A498C
:1019C00008700A4800780A4908700A4800780A49ED
:1019D00008700A48056006B962B670BDBC000020F8
:1019E000CD000020D1000020CE000020D200002039
:1019F000CF000020D3000020D0000020C80000202D
:101A000000BFEFF31081084672B60021074A11703B
:101A1000FF21074A11700021064A1170064A117011
:101A2000064A116000B962B670470000CD00002080
:101A3000CE000020CF000020D0000020C8000020F1
:101A40007CB505460C460020009001908DF80040C2
:101A500014B1204600F09CFB6946284604F0F4FBD4
:101A60007CBD7CB505460C460020009001908DF8A9
:101A7000004014B1204603F01DF86946284604F0E2
:101A8000E3FB7CBD10B502460B461548007808B94B
:101A9000002010BD1348144C2478005D1070002104
:101AA0000AE01148007800EB4000104C04EB4000C5
:101AB000405C5854481CC1B20629F2DB0A48007841
:101AC000401C094C207020460078042801DB0020CF
:101AD000207003480078401E014C20700120D8E798
:101AE000810000207B0000207F0000207006002085
:101AF00029B1064A52690243044B5A6104E0034A81
:101B000052698243014B5A61704700000010024045
:101B100029B1064AD2690243044BDA6104E0034A60
:101B2000D2698243014BDA61704700000010024025
:101B300029B1064A92690243044B9A6104E0034AC0
:101B400092698243014B9A61704700000010024085
:101B50000F48006840F001000D49086008464068E1
:101B60000C4908400A494860084600680A4908408C
:101B7000074908600846006820F48020086008468D
:101B8000406820F4FE0048604FF41F0088607047F2
:101B9000001002400000FFF8FFFFF6FE30B5002104
:101BA0000022002400232D4D6D6805F00C0121B1A9
:101BB000042905D0082923D105E0294D056022E03C
:101BC000274D05601FE0254D6D6805F47012234D0B
:101BD0006D6805F48034022505EB92421CB9214D55
:101BE000554305600BE01D4D6D6805F400351DB1D2
:101BF0001C4D5543056002E0194D5543056002E058
:101C0000174D056000BF00BF144D6D6805F0F00171
:101C10000909154D6B5C0568DD4045600F4D6D6829
:101C200005F4E061090A104D6B5C4568DD40856094
:101C30000A4D6D6805F46051C90A0B4D6B5C45682F
:101C4000DD40C560054D6D6805F44041890B074DC9
:101C50006B5CC568B5FBF3F5056130BD0010024053
:101C600000127A0000093D00D8010020E8010020A0
:101C700010B501460022002300204A11012A02D19A
:101C8000094C236806E0022A02D1074C236A01E0CE
:101C9000054C636A01F01F02012494401C400CB102
:101CA000012000E0002010BD001002400248406802
:101CB00000F00C00704700000010024001460020B8
:101CC000034A506820F0F00008435060704700005D
:101CD000001002401149096821F480310F4A116057
:101CE0001146096821F480211160B0F5803F03D0CE
:101CF000B0F5802F0ED106E00849096841F4803123
:101D0000064A116007E00549096841F4A021034A29
:101D1000116000E000BF00BF7047000000100240EB
:101D200000210B4A11700A4A203A82F8201001283B
:101D300002D0042808D103E00121054A117004E013
:101D40000521034A117000E000BF00BF704700008A
:101D50002010024001460020034A506820F4E06051
:101D60000843506070470000001002400146002008
:101D7000034A506820F4605040EAC1005060704748
:101D8000001002400149086670470000000042420E
:101D900002460020044B586820F47C1042EA0103FC
:101DA0001843014B58607047001002400146002064
:101DB000034A506820F00300084350607047000059
:101DC0000010024038B5002000900024002500BF1C
:101DD0003120FFF74DFF05460098401C0090009809
:101DE000B0F5A06F01D0002DF2D03120FFF740FFF9
:101DF00008B1012400E00024204638BD10B5044697
:101E00000748844204D181150648FEF7E0FF06E04A
:101E10000548844203D1C1130448FEF7D8FF10BD22
:101E2000003801400008014000480040000C01401B
:101E300010B504460748844204D181150648FEF7D0
:101E4000C8FF06E00548844203D1C1130448FEF7E9
:101E5000C0FF10BD003801400008014000480040AC
:101E6000000C0140002242708270C27002718275C3
:101E700002744274827482828260C26082610177DD
:101E8000704700002DE9F04780460D4616461F4674
:101E9000DDE9089A404600F073F918B1284600F0D1
:101EA00043F910B90020BDE8F087A8F101001E49F0
:101EB00001EB401403212046FFF7D4FFE5702571A4
:101EC0000120A075277484F8119084F812A0A660F0
:101ED000E6602078032806D0207800F025F968B164
:101EE0002078A8420AD0404600F094F803202070E1
:101EF0000420A0701420A0610120D4E729464046A8
:101F000000F03CF80121404600F023F82570657090
:101F10003946304600F014F8A0700020A075E0703B
:101F2000207120770120BEE7D82400200146481EFA
:101F3000C0EBC000014A02EB80007047D07000087F
:101F4000024609B1032070470AB10220FBE70120D5
:101F5000F9E770B506460D463046FFF7E7FF044641
:101F60002078012809D125B1218B6069FEF731FF66
:101F700003E0218B6069FEF72AFF70BD2DE9F04177
:101F800007460D463846FFF7D1FF0446207838BB98
:101F9000781E4006060E0320B04000F0FF081C48E3
:101FA000407820EA08001A494870012D08D10846F7
:101FB00040780121B140C9B20843154948700AE090
:101FC000022D08D112484078711C01228A40D1B2FA
:101FD00008430F4948700E4802F0B6FCBDE8F08196
:101FE00021896068FEF7F3FE218AE068FEF7EFFEC4
:101FF000012D04D121896068FEF7EBFE05E0022D7A
:1020000003D1218AE068FEF7E4FE00BFE6E70000A6
:102010006A00002010B5044600212046FFF799FF12
:1020200000212046FFF7AAFF10BD7CB505460C46EF
:10203000284600F0A5F808B1022C01D900207CBD8B
:102040002CB90021284600F0D9F80120F7E700203C
:1020500000900190012C01D1012000E002200146F6
:1020600000231A462846FFF70DFFE8E710B500F0F9
:1020700019F8002410E00020094901EB4411087010
:10208000074901EB44100021FFF7ECFE611CC8B2C8
:10209000FFF7C0FF601CC4B2052CECD310BD0000DC
:1020A000D824002038B50020FFF73AFE012118207F
:1020B000FFF73EFD022531E0C5EBC500194901EBF4
:1020C0008004218B6069FEF782FE208BADF8000052
:1020D00003208DF8020010208DF803006946606926
:1020E000FEF798FD218B6069FEF771FE218960681B
:1020F000FEF76DFE218AE068FEF769FE2089ADF8E3
:10210000000069466068FEF785FD208AADF8000092
:102110006946E068FEF77EFD681CC5B2052DCBD38D
:1021200038BD0000D07000080146012901D0022905
:1021300001D1012070470020FCE7000030B50146C6
:10214000487C401EC0F3C702487C401E00F00705D3
:102150000120A840C3B2C2F10100C2B20748805CAE
:10216000184008B1012000E000200446887CA0420D
:1021700001D1012030BD0020FCE7000068000020F4
:10218000014619B1052901D8012070470020FCE75C
:1021900003490968491C024A1160024908707047E6
:1021A000680100206C0100202DE9FC4107468846AB
:1021B00014461D46089E24B1102C02D8012D00D8CB
:1021C00016B90020BDE8FC8101233246414638465D
:1021D000CDE90045FFF756FEF4E77CB505460E460F
:1021E00014460CB900207CBD002000900346224616
:1021F000314601902846FFF745FEF4E770B50446E6
:102200000E46601E064901EB40152046FFF702FF0F
:102210000020287031462846FFF724FE70BD0000DC
:10222000D824002070B5064606B970BD002553E0DD
:102230002B4800EB45142078032821D1A069B04237
:1022400003D9A069801BA06144E00020A06121792E
:102250006A1CD0B2FFF792FE691CC8B20121FFF7D9
:1022600078FE2079207020796070217CA068FFF7CB
:1022700067FEA0700020E0702071A075207729E033
:102280002078FFF751FF00B924E0207C88B1204678
:10229000FFF754FF58B1A08A3044A082A08A1E28BC
:1022A00007D3691CC8B20221FFF7A8FF12E0002083
:1022B000A082E06840B1E068B04205D8691CC8B2AD
:1022C0000121FFF79BFF04E0E06810B1E068801B8C
:1022D000E06000BF681CC5B2052DA9D300BFA4E70C
:1022E000D8240020016082800023C38003817047CE
:1022F00010B502460B46908808B9002010BD118920
:10230000D088884201D10020F8E7908891FBF0F452
:1023100000FB14101468205C1870481C1081012008
:10232000ECE710B502460B46908808B9002010BDB6
:10233000D1881089081A80B29488A04201DB00205D
:10234000F5E7908891FBF0F400FB14101468235417
:10235000481CD0800120EAE710B5044624B1012CC6
:1023600005D0022C09D105E004F0F4F910BD02F00B
:1023700067FCFBE7FEF7B8FEF8E70020F6E710B5CC
:10238000044624B1012C05D0022C09D105E004F04B
:10239000E7F910BD02F05AFCFBE7FEF7ABFEF8E7E9
:1023A0000020F6E710B5044624B1012C05D0022C1C
:1023B00009D105E004F074FA10BD02F055FCFBE70A
:1023C000FEF726FFF8E70020F6E7000010B5044608
:1023D000002C06DD0848407840F01000064948709F
:1023E00005E00548407800F0EF00034948700248D6
:1023F00002F0AAFA10BD00006A0000202DE9F8439F
:1024000007460D4616469846032F04DA1EB1384695
:10241000FFF7C8FF10B10020BDE8F883B8F1000F46
:1024200001D14FF0010827B1012F0FD0022F37D172
:102430001FE02846FFF7CAFF1A4B42464FF4FA71D5
:10244000304604F0D1FA04F02BFAE5E7002D01DD67
:10245000012100E0002108464246314602F024FCFA
:10246000044624B102F000FC08B10120D4E70020AA
:10247000D2E70C480090002D01DD012000E0002093
:10248000014643464FF4FA723046FEF7C7FE044653
:1024900024B1FEF7BDFE08B10120BDE70020BBE777
:1024A0000020B9E7A086010010B5044624B1012C34
:1024B00005D0022C09D105E004F0B6FA06E002F0DE
:1024C00017FC03E0FEF7F6FE00E000BF00BF10BD02
:1024D0000122064B1A7002785A7042889A801A4676
:1024E00091700022024B1A7070470000E400002037
:1024F000EA00002010B500F039F80848007810B95B
:102500000748007808B1002010BD0648007802286E
:1025100001D80120F8E70020F6E70000EE000020D7
:10252000F2000020F80000200146002003E0002215
:102530000A54421CD0B21028F9D37047014607292B
:1025400011D2DFE801F01004060E080A0C0000208A
:1025500070470120FCE70220FAE70420F8E7032097
:10256000F6E70520F4E70620F2E7000010B52A4858
:10257000006800B910BD48E028480078C0EBC000F2
:10258000274901EB800418212046234A126890470E
:1025900000B9EFE7207E012808D12248C069401C1D
:1025A0002049C8610846006A401C08621D4840680E
:1025B000401C1C494860207E02281AD11A48007825
:1025C000B8B11A480078022813D1608B164989885F
:1025D00088420ED1607E14494978884209D1114859
:1025E000006B401C0F4908630020104908700E4919
:1025F00008700A480078401C00F003000749087082
:102600000B480078401E0A490870094800780028E5
:10261000B2D100BFAEE70000E0000020F6000020CD
:1026200034230020A4230020E4000020EA0000203E
:10263000F80000202DE9F84F0446FF270CB9BDE84B
:10264000F88F2078382803D1204600F05DFAF6E7AD
:10265000207836281CD101F02FFB618820780023D8
:102660001A4600F033FA064626B901206B49087075
:10267000608848806A48007830B16A48007818B9A4
:102680000A21012000F04EF90EB100F055FBD6E70B
:10269000207837280DD100F073FC05460DB10123D9
:1026A00000E000231A46618820782B4600F00EFADD
:1026B000C5E75B48007830B16188207801231A466D
:1026C00000F004FABBE720783038062874D2DFE83F
:1026D00000F0030716304A5E00F05AFE054672E02D
:1026E0002779022F06D9618820788023012200F003
:1026F000EDF9A4E7384600F089FE054663E0277946
:10270000022F06D9618820788023012200F0DEF9AB
:1027100095E7601DFEF7A8FF804604F10900FEF76B
:10272000AFFF81464A464146384600F0C4F80546A8
:1027300049E02779022F06D9618820788023012279
:1027400000F0C4F97BE7601DFEF78EFF804604F1C0
:102750000900FEF795FF81464A464146384600F09B
:10276000C5F805462FE004F10C00FEF77DFF824618
:1027700004F10800FEF778FF8346201DFEF774FF82
:1027800052465946009000F03FFF05461BE004F119
:102790000C00FEF769FF824604F10800FEF764FFB3
:1027A0008346201DFEF760FF52465946009000F018
:1027B000F9FF054607E0FFE76188207881230122C1
:1027C00000F084F93BE700BF0DB1012300E00023D6
:1027D0001A46618820782B4600F078F90646DDB964
:1027E00039462046FFF774FE26B901200E490870CD
:1027F0006088488000F0BAFE00B120E7207800F041
:1028000051F808B1072000E000208246002100F0C6
:1028100089F80EB100F090FA00BF10E7EE0000203A
:10282000E4000020EA000020F200002014490860C3
:102830000021144A11705170FF2191700021918084
:10284000114A117051709170104A11705180104AE4
:10285000117051800F4A11700F4A11700F4A117098
:102860000F4A116051609160D160116151619161B5
:10287000D161116251629162D162116351637047FB
:10288000E0000020E4000020EA000020EE0000202C
:10289000F2000020F6000020F7000020F8000020E1
:1028A000A42300200146302901D0312901D1012083
:1028B00070470020FCE770B504460D46164624B16B
:1028C000012C07D0022C0FD109E03146284600F038
:1028D000DDFF70BD3146284600F0EAFFF9E73146DA
:1028E000284600F0F7FFF4E70B20F2E770B5044646
:1028F0000D46164624B1012C07D0022C0FD109E059
:102900003146284600F0CBFF70BD3146284600F026
:10291000D8FFF9E73146284600F0E5FFF4E70B2041
:10292000F2E70000094A127812B1094A127802B19E
:102930007047074A507091700122054B1A70054A82
:10294000926A521C034B9A6200BFF1E7E400002038
:10295000EA000020A42300202DE9F04385B00746BB
:102960000E4690461D46DDF83090FFF7FFFD2D48DE
:102970000078042814D32C488068401C2A498860B9
:102980001DB90846C068401CC860012D04D1264806
:102990000069401C24490861002005B0BDE8F083AF
:1029A0008DF80070ADF80260002405E018F80410FE
:1029B00001A80155601CC4B2102CF7D31B48007845
:1029C000C0EBC0001A4A02EB80016846FEF701FD29
:1029D00016480078C0EBC000154901EB8000057671
:1029E00012480078C0EBC00001EB800080F819901D
:1029F0000E480078C0EBC00001EB800046830B4816
:102A00000078401C00F00300084908700548007871
:102A1000401C0449087004480068401C02490860D2
:102A20000120BAE7F8000020A4230020F7000020CE
:102A3000342300202DE9F04186B004460F461546A8
:102A40001E46DDF8308002A8FFF76EFD8DF80840C5
:102A50008DF809508DF80A608DF80B80022302AAC8
:102A6000394671200094FFF777FF06B0BDE8F0818A
:102A700010B50A48007810B10948007800B910BDB7
:102A8000064A5188064A507800231A4600F01EF87C
:102A900010B100200149087000BFF0E7F2000020EB
:102AA000E400002010B50848007800B910BD0648C1
:102AB000418800231A46362000F008F810B10020A3
:102AC0000149087000BFF1E7EE000020F0B585B0C5
:102AD00004460F4615461E4601A8FFF725FD8DF852
:102AE00004408DF805508DF80660002301AA394690
:102AF00070200094FFF730FF10B9002005B0F0BD42
:102B0000FFF734FD0120F9E730B591B0044625798F
:102B100063484069401C6249486101A8FFF704FD11
:102B200005A800F0A5FB002D75D100208DF804004C
:102B30009DF839008DF805009DF83A008DF80600E3
:102B40001098C0B28DF807009DF836008DF8080087
:102B50009DF837008DF809009DF838008DF80A00BF
:102B60009DF82C0008B1012000E000209DF82D10F8
:102B700009B1022100E0002108439DF82E1009B19F
:102B8000042100E0002108438DF80B009DF82F0080
:102B900008B1012000E000209DF8301009B10221A9
:102BA00000E0002108439DF8311009B1042100E044
:102BB000002108438DF80C009DF8320008B1012077
:102BC00000E000209DF8331009B1022100E000214F
:102BD00008439DF8341009B1042100E000210843A6
:102BE0009DF8351009B1082100E0002108438DF857
:102BF0000D009DF83E008DF80E009DF83B008DF80D
:102C00000F009DF83C008DF810009DF83D008DF8F8
:102C100011002CE0FFE7012D0FD101A80599FEF767
:102C2000C1FD02A80699FEF7BDFD03A80799FEF7AE
:102C3000B9FD01208DF8100019E0022D0FD101A877
:102C40000899FEF7AFFD02A80999FEF7ABFD03A8AE
:102C50000A99FEF7A7FD02208DF8100007E06188B1
:102C6000207882230122FFF731FF11B030BD0C48DC
:102C70008069401C0A49886120780090618801239E
:102C800001AA7220FFF768FE10B1FFF76FFC04E0A5
:102C90000348406A401C0249486200BFE5E7000063
:102CA000A423002030B58DB0FFF760FCFFF7FAFEDB
:102CB000FFF7DEFE00F040F81D48007828B11D48FF
:102CC000007810B900F052FC08B10DB030BD01A879
:102CD00000F0CEFA9DF8290003280ED10C98C4B25A
:102CE00013494878FFF7DEFD08B1082003E09DF89E
:102CF0002E00FFF723FC054612E09DF8290070B96D
:102D00009DF82E0001280AD1002409494878FFF7D0
:102D1000C9FD08B1072000E00020054600E0D4E727
:102D200021462846FFF7FEFD00F006F800BFCCE77D
:102D3000E4000020EA00002038B51648007848B1C9
:102D400015480078012805D11448007810B91448B6
:102D5000007800B138BD0F4880780F4C0090A37800
:102D600062780C4CA1886078FFF764FE28B90D48A2
:102D7000406B401C0B494863ECE702200649087091
:102D80000848C06A401C0749C862FFF7EFFB00BF54
:102D9000E0E70000E4000020EA000020EE00002050
:102DA000F2000020A42300200148007870470000B2
:102DB000C20100200146042902DA0C48007808B953
:102DC000002070470A48405C0A4B185C0A4B5B5C69
:102DD000184008B1012000E0002002460748405C8E
:102DE000904201D10120ECE70020EAE7C201002077
:102DF000B0710008C0010020B4710008B87100086B
:102E0000014601B97047002004E00A5C054B1A54E2
:102E1000421CD0B20228F8DB0122034B1A7000BF1B
:102E2000F0E70000C0010020C201002070B5054697
:102E3000284600F0DFF90446284601F075FB0646F7
:102E40000EB1304670BDFFF7AFFF08B90720F9E7B4
:102E500000202076607602202070002084F8280070
:102E600084F82900074880F8895003F07DF9054966
:102E7000C1F88C00012081F88600022081F88400CE
:102E80000020DFE7183200202DE9F05F83468A46F4
:102E9000BAF1000F01D14FF0010A4FF47A70ABFB89
:102EA000002012EB0A0140F10000B1F1010860F1CD
:102EB0000001524600234046FDF7C8F906460F467A
:102EC000304604234FF0000CA0FB032807FB0381CE
:102ED00006FB0C1047F23053D41840EB0C050020D1
:102EE000D4F1FF31A84103D24FF0FF30BDE8F09F8D
:102EF0002046FBE770B506460C46304600F07AF9EE
:102F000005460DB9062070BD304600F029FB38B1EA
:102F1000E868A04202DC2869A04201DA0420F2E756
:102F20000020F0E70346002070472DE9F0410646F7
:102F30000C46304600F05EF905466868A04202D1B2
:102F40000020BDE8F0816868A04201DA012001E0BC
:102F50004FF0FF3007463946304600F01FFB08B1FE
:102F60000420EEE70020ECE770B50446DDE90456E6
:102F70009C4201D1A94201D00C2070BD0020FCE789
:102F800010B500F0F3FA08B1012010BD002412E0E2
:102F900004EB440000EBC4000E4911F820000328A4
:102FA00007D1002004EB440101EBC401094A02F8F7
:102FB0002100601CC4B2032CEADB0020054981F823
:102FC000840081F88500C1F8B00000F0E3FC002027
:102FD000DBE700001832002070B5254991F8890020
:102FE00000F008F90446224890F88960304600F065
:102FF0002BF960606068A060012020766076002078
:1030000084F828002070012084F82900184981F8EC
:10301000AC00084690F88A0040B9062081F8860086
:10302000002081F8850081F8840070BD022E04D153
:103030000120FFF7FBFE054613E0012E04D100201E
:10304000FFF7F4FE05460CE00020094981F88A00EC
:10305000062081F88600002081F8850081F8840030
:10306000E3E71DB10721284600F090F800BFDCE738
:10307000183200202DE9F04106460D46304600F09A
:10308000B9F80446244890F88500042801D10120AD
:1030900000E000200746204890F88500052801D16F
:1030A000012000E0002080460CB9BDE8F0813046E8
:1030B000FFF778F910B13046FFF7F6F9002084F8F1
:1030C000280060760320207084F82950124880F888
:1030D000AC50284600F0A0FC0F49C1F8B000032016
:1030E00081F88400002081F885000FB1082000E0FD
:1030F0000020094981F88700B8F1000F01D00B20AA
:1031000000E00020044981F88800002081F8860052
:1031100081F88A0000BFC8E7183200202DE9F0418D
:1031200080460C461546404600F064F806460727E0
:10313000042C01D1042706E0072C01D1032702E06B
:10314000052C00D105270320307086F829700D4822
:1031500080F8AC70C0F8B04003200A4981F88400C0
:10316000002081F885001DB10B2081F8880007E060
:103170000820044981F887000520034981F84D00A3
:10318000BDE8F08118320020D032002070B506462C
:103190000D46174991F8890000F02CF804469CB1BF
:1031A000134991F88900FFF7FDF820B1104991F813
:1031B0008900FFF779F9002084F8280020766076EE
:1031C0000320207084F82950094880F8AC50C0F8DA
:1031D000B0600320064981F88400002081F8850052
:1031E000072081F88600002081F88A0070BD000069
:1031F000183200200146032901DB0020704701EB53
:10320000410000EBC100024A02EB8000F6E700003B
:103210001832002070B505462846FFF7EBFF04463C
:103220000CB9032070BD2078FCE70000014601487E
:1032300040567047627100080146024850F821006C
:1032400070470000687100080146024850F82100EC
:1032500070470000807100080146C8B27047000046
:103260000146024850F821007047000074710008C0
:1032700010B5044604B910BD00F078F8206000F0E5
:103280007BF8606000F07EF8A060374890F8850019
:1032900005280CD13448D0F8A000E0603248D0F8BE
:1032A000A40020613048D0F8A800606108E02E48F2
:1032B0008068E0602C48406B20612B48006E6061A4
:1032C000002000F08BF904F8180F012000F086F9B7
:1032D0006070022000F082F9A070002000F089F9EF
:1032E000E070012000F085F92071022000F081F9E2
:1032F00060710020FFF75EFDA0710120FFF75AFD0D
:10330000E0710220FFF756FD20720320FFF752FD07
:1033100060720020FFF77EFFA0720120FFF77AFFA6
:10332000E0720220FFF776FF20730F4890F88400C8
:1033300060730D4890F88500A0730B4890F88600E4
:10334000E073094890F887002074074890F88800D7
:103350006074054890F8AC00A0740348D0F8B00041
:103360006061183C00BF86E71832002001484068C1
:1033700070470000183200200148006B70470000C1
:10338000183200200148C06D70470000183200203C
:1033900010B51D4890F88400032803D11A4890F80E
:1033A000B00010BD00F0E2F808B10120F9E70220FA
:1033B00001F0BAF804461CB9012001F0B5F8044642
:1033C0001CB9002001F0B0F804460CB12046E8E733
:1033D000FFF7EAFC08B90720E3E701200A4981F872
:1033E0008A000220FFF722FD04463CB90920064965
:1033F00081F885000020C1F8B00003E000200249F8
:1034000081F88A002046CCE71832002070B50446C7
:10341000032C01DB062070BD0D4890F884000328C2
:1034200003D10B4890F8B000F5E700F09FF808B121
:103430000120F0E72046FFF7F9FC054635B9A01D4D
:10344000034981F885000020C1F8B0002846E2E772
:103450001832002010B5002455E0002004EB440190
:1034600001EBC401304A02F8210004EB440101EBF6
:10347000C40102EB8101486004EB440101EBC4018B
:1034800002EB81018860294850F8240004EB4401D4
:1034900001EBC40102EB8101C860254850F824000B
:1034A00004EB440101EBC40102EB810108612148F6
:1034B00050F8240004EB440101EBC40102EB81014C
:1034C0004861012004EB440101EBC40102EB8101DE
:1034D000087604EB440101EBC40102EB810148765C
:1034E000002004EB440101EBC40102EB810181F8EF
:1034F000280004EB440101EBC40102EB810181F8D7
:103500002900601CC4B2032CA7DB0020064981F807
:10351000840081F8850081F8AC00C1F8B00000F0AB
:1035200039FA00F04FFA10BD183200208C710008F3
:1035300098710008A471000870B505462846FFF789
:1035400059FE04464CB194F8280020B102212846C7
:10355000FFF790FD70BD0020607600BFFAE7000025
:1035600001460148405C70475C71000810B50A488C
:1035700090F8850008B1012010BD002407E0204626
:10358000FEF710FF08B10120F6E7601CC4B2032C5F
:10359000F5DB0020F0E700001832002070B505468A
:1035A0000C46002C08DA2846FFF756FE0646FFF7C1
:1035B00001FC08B1012070BD022D07D1002C05DDF2
:1035C0000320FFF7F7FB08B10120F4E70020F2E742
:1035D00001460148405C70475F71000870B50546C0
:1035E0002846FFF707FE04460CB9002070BD207E78
:1035F000FCE770B505462846FFF7FCFD04460CB90C
:10360000002070BD607EFCE72DE9FE4F81468B46B1
:103610009246624890F88400032804D15F4890F8ED
:10362000B000BDE8FE8FFFF7A1FF08B10120F8E769
:103630005A48407E38B1594890F8450018B157486B
:1036400090F8710008B90220EBE7FFF7ADFB08B96D
:103650000720E6E749460020FFF74CFC054625B960
:1036600059460120FFF746FC054625B95146022080
:10367000FFF740FC054625B949460020FFF755FCF9
:10368000054625B959460120FFF74FFC054625B9E7
:1036900051460220FFF749FC05462DB952465946CE
:1036A0004846FFF73FFC05460DB12846B9E7CDF87F
:1036B0000090CDF804B0CDF808A000F083F9002404
:1036C00042E004EB440000EBC400344901EB80000D
:1036D000D0F804805DF82410C817B1EB080660EB41
:1036E000E8775DF824102D4800F1900040F8241090
:1036F0005DF8240004EB440101EBC401274A02EB0E
:1037000081018860264840F824805DF8241000F18B
:103710000C0040F8241000F10C0000EBC400C0C005
:103720004FF0000186EA010087EA0101084301D059
:10373000012100E0002119489C300155015D184825
:1037400030300155601CC4B2032CBADB134890F82A
:103750009C0088B9114890F89D0068B90F4890F80E
:103760009E0048B901200D4981F8AC0004200C49A5
:1037700081F84D00002054E70120084981F88700B6
:10378000042081F88500012081F884000020C1F820
:10379000B00081F8AC0000BF43E700001832002001
:1037A000D03200202DE9F04105460F461646364836
:1037B00090F88400032804D1334890F8B000BDE8A5
:1037C000F081FFF7D3FE08B10120F8E72E48407ED4
:1037D00038B12D4890F8450018B12B4890F8710089
:1037E00008B90220EBE7FFF7DFFA08B90720E6E7A0
:1037F00029460020FFF77EFB044624B93946012004
:10380000FFF778FB044624B931460220FFF772FB2C
:1038100004462CB9324639462846FFF783FB044656
:1038200014B900F092FE04460CB12046C7E7FFF73A
:103830009DFDA8420DD1FFF79FFDB84209D1FFF7CA
:10384000A1FDB04205D101200F4981F8AC00002054
:10385000B5E70D48C0F8A050C0F8A470C0F8A86043
:103860008560476306660120074981F888000520C6
:1038700081F88500012081F884000020C1F8B000A3
:1038800081F8AC0000BF9AE71832002070B50446FA
:103890000D462A462146002000F08CF970BD70B517
:1038A00004460D462A462146002000F0B9F970BDB5
:1038B00070B504460D462A462146012000F07AF9EB
:1038C00070BD70B504460D462A462146012000F021
:1038D000A7F970BD70B504460D462A462146022060
:1038E00000F068F970BD70B504460D462A462146C1
:1038F000022000F095F970BD70B505462846FFF727
:1039000079FC044614B194F8280008B9002070BD71
:1039100094F91A102846FFF741FE30B104212846D9
:10392000FFF7A8FB4FF0FF30F1E702F01DFC216A22
:10393000401A616A884206D306212846FFF79AFB9F
:103940004FF0FF30E3E72846FEF72CFD08B10020DA
:10395000DDE72846FEF713FD98B92846FEF7FCFC84
:10396000E16988420DD3A0686060002084F82800D7
:10397000E0612070012084F82900054981F8AC003D
:10398000C5E707212846FFF775FB4FF0FF30BEE77C
:103990001832002000210A4A82F8861082F8871027
:1039A00082F8881082F88A10002005E0002204497D
:1039B0009C310A54411CC8B20328F7DB7047000051
:1039C0001832002000201DE00021124A42F8201089
:1039D000002210490C3141F8202001F10C0303EBC7
:1039E000C0031A605A6024310A54C91C0A54491D84
:1039F00041F820200C310A54C91C0A54C91C0A542D
:103A0000411CC8B20328DFDB0021024A82F84D10B6
:103A100070470000D03200200146881E062810D2D0
:103A2000DFE800F0030507090B0D0A2070470720A7
:103A3000FCE70420FAE70520F8E70920F6E706206E
:103A4000F4E70020F2E700002DE9FF5F0746884613
:103A500091463846FFF7CEFB06461EB9062004B055
:103A6000BDE8F09F41463846FFF744FA02900298BD
:103A700008B10298F3E74FEAE8717068B8EB000408
:103A800061EBE0754FF0000184EA010085EA010175
:103A9000084300D1E3E7FFF787F908B90720DEE71D
:103AA00000210846091BA84101DA012001E04FF07E
:103AB000FF30039038460399FFF770FD08B10420EA
:103AC000CDE700210846091BA84101DA204600E0A5
:103AD00060428246B9F1000F01D1D6F81490384601
:103AE000FEF760FC8346224890F88500042808D140
:103AF00001212048C155401D40F827A00F3000F893
:103B000007B04B46524638460399FEF777FC0190C2
:103B10003846FEF747FC0090154890F885000428C9
:103B200006D1144911310198C855891D0098C8550E
:103B3000019820B1BBF1000F01D1009808B906200F
:103B40008DE7C6F808800398B076C6F81CA002F08E
:103B50000BFB306249465046FFF796F97062012030
:103B6000307086F82800002086F8290000BF76E72C
:103B700018320020033300202DE9F04107460D469E
:103B8000164698463846FFF735FB0446434632460C
:103B900029463846FEF732FC10B90620BDE8F08110
:103BA000012084F82800A576E661002084F8290029
:103BB00000BFF3E72DE9F04106460F469046304638
:103BC000FFF718FB0446154890F88400032804D139
:103BD000124890F8B000BDE8F081FFF7C7FC08B1CB
:103BE0000120F8E70CB1607E08B90220F3E74246F5
:103BF00039463046FFF728FF054665B994F8280096
:103C000048B1701C054981F88500012081F88400C5
:103C10000020C1F8B0002846DDE70000183200207F
:103C20002DE9F04781460E4692464846FFF7E2FAF4
:103C30000746204890F88400032804D11D4890F8D6
:103C4000B000BDE8F087FFF791FC08B10120F8E76C
:103C50000FB90620F5E70EB90020F2E77968C8171A
:103C60008C1940EBE6754FF00041611A75F1FF3099
:103C700005DB6FF000410020091BA84101DA042098
:103C8000DFE7524621464846FFF7DEFE8046B8F1A0
:103C9000000F0DD197F8280050B109F10100054936
:103CA00081F88500012081F884000020C1F8B0006F
:103CB0004046C6E71832002070B5002520E005EB2D
:103CC000450000EBC500174901EB800494F828007B
:103CD00018B92846FEF766FB80B12846FEF7E4FBDC
:103CE000002060762078022801D100202076002074
:103CF00084F828002070022084F82900681CC5B2CE
:103D0000032DDCDB0220074981F8AC000A20C1F852
:103D1000B000002081F8850081F88400FFF73AFEAA
:103D200070BD00001832002070B5224890F8850060
:103D300006280ED01F4890F88500072809D01D4896
:103D400090F88500082804D01A4890F885000928C2
:103D500002D100F031F870BD164890F885000428B3
:103D600002D100F04FF9F6E7124890F885000528D7
:103D700002D100F023FAEEE70E4890F88500012802
:103D800015DB0C4890F88500032810DC094890F8F2
:103D90008500401EC5B22846FFF7AEFD0446002C44
:103DA00005DD0020034981F8850081F8840000BF0B
:103DB000D1E70000183200202DE9F041904991F838
:103DC0008900FFF717FA05468D4991F88900FFF73A
:103DD00043FA07468A4991F88900FFF727FA064611
:103DE00002F0C2F98649D1F88C10A0EB0108844991
:103DF00091F88900FFF734FA804505D306210820A1
:103E0000FFF7C4F9BDE8F0817D4890F889000228E9
:103E10000FD195F8280060B195F91A00002808DD47
:103E20000320FEF7C7FF20B104210846FFF7AEF9D3
:103E3000E8E7734890F8860006287DD2DFE800F0B6
:103E4000DC032F5F8CC23846FEF7B4FF70B16C49BB
:103E500091F8890000231A46714249B2FFF78CFE9F
:103E600004460220664981F8860012E0644991F810
:103E70008900FFF7E1F98046614991F88900002344
:103E800042463146FFF778FE044603205C4981F83C
:103E900086001CB107212046FFF778F9ADE03846CF
:103EA000FEF788FF00BB564991F88900FEF7FCFA3F
:103EB000002085F82800524991F88900FFF7BCF9E5
:103EC00080464F4991F88900002342463146FFF76A
:103ED00053FE044603204A4981F8860074B1072145
:103EE0002046FFF753F909E0454991F88900FEF7AC
:103EF00059FA18B903210720FFF748F97DE0384641
:103F0000FEF758FFE8B13E4991F88900FEF7CCFA78
:103F1000002085F828003A4991F8890000231A46C4
:103F2000714249B2FFF728FE04460420344981F863
:103F3000860084B1072100E05EE02046FFF726F905
:103F400009E02F4991F88900FEF72CFA18B90621EB
:103F50000820FFF71BF950E0294991F88900FEF786
:103F600021FA70BB002085F82800254991F88900C6
:103F7000FEF705FA20B107210620FFF707F941E710
:103F80003846FEF717FF20B103210720FFF7FEF8A0
:103F900038E71B4991F88900FFF74EF98046184928
:103FA00091F88900002342463146FFF7E5FD0446BB
:103FB0000520134981F886001CB107212046FFF730
:103FC000E5F81AE03846FEF7F5FE50B10C4991F8D5
:103FD0008900FEF769FA002085F82800FEF7FCFF4B
:103FE00009E0074991F88900FEF7DCF918B90621C4
:103FF0000820FFF7CBF800E000BF00BF00BF01E7DB
:104000001832002070B56B4890F88700082873D2EA
:10401000DFE800F0CD0427436785ABCA654890F818
:104020009C0020B90320634981F88700C0E0614803
:104030000022D0F890101046FFF706FD04462CB180
:10404000002221461046FFF769F8B1E002205949E5
:1040500081F89C00584981F83000564981F8870062
:10406000A6E0544890F89C00022805D000220621C2
:104070001046FFF753F89BE00020FFF73DFC054694
:10408000002D09DD03204B4981F89C004A4981F845
:104090003000484981F887008AE0464890F89D0042
:1040A00020B90520434981F8870081E0414800227A
:1040B000D0F894100120FFF7C7FC04462CB1002271
:1040C00021460120FFF72AF872E00221394880F8E2
:1040D0009D10394880F831100420364981F8870056
:1040E00066E0344890F89D00022806D000220621A0
:1040F0000120FFF713F85BE059E00120FFF7FCFB1C
:104100000546002D0ADD03212A4880F89D102A4823
:1041100080F831100520274981F8870048E02548BC
:1041200090F89E0030B90720224981F8870000F0FE
:1041300081F93DE01F480022D0F898100220FFF7D7
:1041400083FC04462CB1002221460220FEF7E6FF44
:104150002EE00221174880F89E10174880F8321090
:104160000620144981F8870022E0124890F89E004A
:10417000022805D0002206210220FEF7CFFF17E01B
:104180000220FFF7B9FB0546002D0CDD032109488D
:1041900080F89E10084880F832100720054981F801
:1041A000870000F047F903E000F044F900E000BFA9
:1041B00000BF70BD18320020D03200202DE9FC4134
:1041C0000020FFF717F807460120FFF713F8804695
:1041D0000220FFF70FF80646954890F888000B2854
:1041E00076D2DFE800F07506253F4A7B86B5C0E948
:1041F000F5008F497868D1F8A01088420BD18C481F
:10420000D8F80410D0F8A400814204D108208849CD
:1042100081F888000BE07068002804DD02208449E2
:1042200081F8880003E00420814981F88800FCE0DF
:104230007068002804DC04207D4981F88800F4E0DF
:10424000002211460220FFF7FFFB04462CB1012299
:1042500021460220FEF762FFE7E00320744981F85F
:104260008800E2E00220FFF747FB0546002D03DD52
:1042700004206F4981F88800D7E06D497868D1F84B
:10428000A010884204D10620694981F88800CCE05A
:104290007068D8F80410DFF898C1CDE90010DCF898
:1042A000A0307268D8F804107868FEF75DFE044606
:1042B0003CB95F480022D0F8A0101046FFF7C4FBBD
:1042C000044634B1012221460020FEF727FFACE06E
:1042D000AAE00520564981F88800A6E00020FFF7F3
:1042E0000BFB0546002D03DD0620514981F88800AF
:1042F0009BE04F48D8F80410D0F8A400814204D1C4
:1043000008204B4981F888008FE049497068D1F84E
:10431000A410CDE900107B6872681846D8F8041024
:10432000FEF722FE04463CB941480022D0F8A41012
:104330000120FFF789FB04462CB1012221461046DB
:10434000FEF7ECFE71E00720394981F888006CE047
:104350000120FFF7D1FA0546002D03DD082034497E
:1043600081F8880061E032487168D0F8A800814285
:1043700004D10A202E4981F8880056E02C4BD3F84E
:10438000A820D8F804107868FEF7CCFD04463CB9A4
:1043900027480022D0F8A8100220FFF755FB04465A
:1043A0002CB1012221460220FEF7B8FE3DE0092093
:1043B0001F4981F8880038E00220FFF79DFA054682
:1043C000002D03DD0A201A4981F888002DE0FFE75F
:1043D00017497868D1F8A010884213D11448D8F84A
:1043E0000410D0F8A40081420CD111487168D0F8B3
:1043F000A800814206D1787E20B198F8190008B152
:10440000707E28B9012206210220FEF787FE0AE00D
:104410000020074981F8850081F8880081F8840030
:10442000012081F8AC0000E000BF00BFBDE8FC81C6
:104430001832002010B5002412E03948015D3948D7
:1044400001553748005D48B13548005D032805D067
:1044500001203449303981F84D0010BD601CC4B2D0
:10446000032CEADB002416E004EB440000EBC4005C
:104470002B499C3901EB800090F8280018B92046A0
:10448000FDF790FF28B102202649303981F84D0010
:10449000E3E7601CC4B2032CE6DB21489C3840688B
:1044A0001F499C39D1F8901088420DD11C489C3886
:1044B000016BD0F89400814206D119489C38C16D37
:1044C000D0F89800814216D0062015499C39C1F8D1
:1044D000B000032081F88400002081F885000820C6
:1044E00081F88700072081F8AC0003200D4930399E
:1044F00081F84D00B1E7002009499C3981F8850019
:1045000081F8870081F88400C1F8B000012081F8AB
:10451000AC0004200349303981F84D0000BF9CE70E
:10452000B43200200033002010B504462046FFF7C7
:104530004FF840B12046FEF77FFE20B12046FEF73F
:104540008FFE00B100BF0C2010BD10B50220FEF799
:1045500051FE04460C2010BD00B587B031480078EC
:1045600008B107B000BD01202E490870012141F2B9
:104570000400FDF7DDFA2020ADF8180018208DF8B2
:104580001B0003208DF81A0006A92748FCF742FB00
:104590004020ADF8180004208DF81B0006A9224821
:1045A000FCF738FB8020ADF8180018208DF81B00B0
:1045B00006A91D48FCF72EFB4FF40070ADF818005B
:1045C00010208DF81B0003208DF81A0006A917484B
:1045D000FCF720FB0020ADF804004FF48270ADF82A
:1045E00006000020ADF80800ADF80A00ADF80C0098
:1045F0004FF40070ADF80E001820ADF81000002048
:10460000ADF812004FF48071094800F087F801A955
:10461000074800F065F80121054800F00BF800BFDD
:104620009FE700006E00002000080140000C0140E0
:104630000030014021B1028842F04002028004E0D3
:1046400002884FF6BF731A400280704708B50121F7
:104650000C20FDF76DFA4FF48070ADF800000320D8
:104660008DF8020010208DF8030069461448FCF70D
:10467000D1FA4FF40070ADF8000003208DF802006D
:1046800010208DF8030069460D48FCF7C3FA4FF47B
:104690008050ADF8000003208DF8020010208DF846
:1046A000030069460648FCF7B5FA4FF40071044868
:1046B000FCF78FFB4FF480710148FCF788FB08BDC5
:1046C000000C01400246002013890B400BB1012071
:1046D00000E000207047014688897047818170475B
:1046E00010B50022028802F441520B884C88234303
:1046F0008C882343CC8823430C8923434C89234350
:104700008C892343CC8923431A430280838B4FF245
:10471000FF74234083830B8A038210BD4FF6FF6230
:10472000914204D0028842F48072028004E0028840
:104730004FF6FF631A400280704770B500240025D1
:1047400005E0640000F008F80443681CC5B2202DA1
:10475000F7DB204670BD000010B580210A48FCF749
:1047600038FB0120FCF71CFA4FF480710648FCF777
:1047700025FB044680210448FCF729FB0120FCF7B7
:104780000FFA204610BD000000100140704710B520
:1047900000F002F810BD00000CB500200190009060
:1047A0003348006840F480303149086000BF304829
:1047B000006800F4003000900198401C01900098BF
:1047C00018B90198B0F5A06FF1D12948006800F43C
:1047D000003010B10120009001E00020009000980E
:1047E000012843D12348006840F0100021490860A7
:1047F0000846006820F0070008600846006840F09E
:10480000020008601A484068194948600846406834
:1048100048600846406840F4806048600846406848
:1048200020F47C1048600846406840F4E810486076
:104830000846006840F08070086000BF0C480068BF
:1048400000F000700028F9D00948406820F003000B
:10485000074948600846406840F00200486000BFD1
:104860000348406800F00C000828F9D10CBD000096
:10487000001002400020024008B5FFF76DFE012144
:104880000420FDF755F91020ADF800008DF8030065
:1048900003208DF8020069460148FCF7BBF908BD0A
:1048A0000008014038B5044610211A48FCF78FFA79
:1048B0000A2001F0DFF810211648FCF78AFA0A20D6
:1048C00001F0D8F8002000901AE000BF0221124841
:1048D000FFF7F8FE0028F9D0FF210F48FFF7FEFE92
:1048E00000BF01210C48FFF7EDFE0028F9D00A486F
:1048F000FFF7F1FEC043009960540098401C0090FF
:1049000000980228E1DB2046FEF77AFA2046FCF701
:104910005DFF38BD000801400030014008B5FFF7D9
:104920001BFE01211020FDF703F91020ADF8000057
:104930008DF8030003208DF8020069460148FCF75A
:1049400069F908BD0010014070B50546002415E066
:1049500000BF02211248FFF7B5FE0028F9D0295DFB
:104960000F48FFF7BBFE00BF01210D48FFF7AAFE6D
:104970000028F9D00A48FFF7AEFE641C042CE7DBE0
:104980000120FCF70DF910210648FCF722FA01205E
:10499000FCF706F910210348FCF719FA70BD000076
:1049A000003001400010014000220270427082700D
:1049B000426002818172704710B50022027042701D
:1049C0008270002113E001EB41020A4B13F8222010
:1049D0005AB100EBD102127801F007040123A34081
:1049E000DBB21A4300EBD1031A704A1CD1B213296F
:1049F000E9D310BDF423002070B506460C463046BE
:104A000000F050F808B1012C01D9002070BD701ED3
:104A100000EB4000084901EB80050CB1012000E0EB
:104A2000002001462846FFF7BFFF2C702146304684
:104A300000F04CF8EAE70000F423002010B5002451
:104A400009E004EB4401054A02EB81000021FFF775
:104A5000ABFF601CC4B2132CF3D310BDF4230020B1
:104A600030B501464878401EC0F3C702C2F10100CC
:104A7000C2B24878401E00F007050120A840C3B22A
:104A80000748805C184008B1012000E0002004467F
:104A90008878A04201D1012030BD0020FCE7000051
:104AA00068000020014619B1132901D80120704780
:104AB0000020FCE703490968491C024A11600249C9
:104AC0000870704760010020640100202DE9F0416A
:104AD00080460F464046FFF7E5FF10B90020BDE8CD
:104AE000F081A8F10100C5B20C48445D0C48465D58
:104AF00047B10C48005D0121B140C9B208430949E2
:104B0000085506E00748005D0121B140884305498A
:104B100008550448FFF718FF0120E0E7A8700008D7
:104B2000BB7000086A0000202DE9F04180460D4668
:104B300016461F464046FFF7B5FF28B125B1102D98
:104B400002D8012E00D817B90020BDE8F081A8F1E5
:104B5000010000EB4000084901EB800402212046DF
:104B6000FFF722FF012020706570A67067600121A9
:104B70004046FFF7ABFFE8E7F423002070B5064698
:104B80000D463046FFF78EFF00B10DB9002070BD15
:104B9000701E00EB4000074901EB80040121204614
:104BA000FFF702FF01202070656001213046FFF70A
:104BB0008DFFECE7F423002070B5064606B970BD02
:104BC000002536E005EB45001C4901EB8004207808
:104BD00000B92CE06078A8B12046FFF741FF78B11A
:104BE00020893044208120891E280BD3691CC8B23B
:104BF0000021FFF76BFF04212046FFF7D5FE16E0EA
:104C000000202081606860B16068B04209D8691CEA
:104C1000C8B20021FFF75AFF03212046FFF7C4FE68
:104C200004E0606810B16068801B606000BF681CB1
:104C3000C5B2132DC6D300BFC1E70000F423002086
:104C40000148006870470000B0010020014800687A
:104C500070470000B401002010B5024801F0C8FB05
:104C600010BD000000A24A0400B501F063FC00BDC5
:104C700010B5044601F05EFC00B110BD34B1094826
:104C8000807840F020000749887005E0054880786A
:104C900000F0DF00034988700248FFF755FE00BFAF
:104CA000EBE700006A00002070B506460C4615468A
:104CB00014B101F03FFC08B1002070BD05B9012519
:104CC0004CF25030854200D9054601F019FD3046BE
:104CD000FFF7CEFF0220FBF763FF044B2A464FF499
:104CE000FA71204601F02CFC0120E6E7A0860100C5
:104CF00010B501F005FD10BD042808D14FF0E021EA
:104D0000096941F004014FF0E022116107E04FF022
:104D1000E021096921F004014FF0E02211617047A0
:104D2000704710B5FCF714FF4FF48030FCF7D2FF4A
:104D300000BFFDF747F80128FBD14FF4E011000454
:104D4000FDF726F80120FDF71DF800BF3920FCF71C
:104D50008FFF0028FAD00220FDF728F800BFFCF7EB
:104D6000A5FF0828FBD10020FCF7A8FF4FF48060C6
:104D7000FCF7F0FF0020FCF7F9FF01218803FCF7A6
:104D8000D7FE10BD10B51348006840F0010011496E
:104D9000086008464068104908400E4948600846C7
:104DA00000680E4908400B4908600846006820F476
:104DB000802008600846406820F4FE0048604FF4F8
:104DC0001F008860FFF7E3FC4FF0006004490860B3
:104DD00010BD0000001002400000FFF8FFFFF6FECB
:104DE00008ED00E070B58CB006460C461546012172
:104DF000C802FCF79DFE01A800F02CFAADF808608F
:104E0000ADF804400020ADF80A00ADF8060001A995
:104E1000264800F0CDF908A800F0B9F96020ADF8F7
:104E200020000020ADF822000420ADF82400ADF8E9
:104E300026500020ADF82800ADF82A00ADF82C006F
:104E4000ADF82E0008A9194800F042F908211748CA
:104E500000F090F90121154800F0CEF804A800F008
:104E6000E7F84FF40060ADF810004010ADF8120004
:104E70000020ADF81400ADF818004FF40050ADF864
:104E80001A004000ADF81C0004A9084800F0C0F862
:104E90000121064800F0FFF80121044800F0D7F88E
:104EA0000121024800F0DFF80CB070BD002C014079
:104EB00010B50121880700F0F0F8B0B10121880792
:104EC00000F0C2F809480068401C0849086008481A
:104ED0000088401C0649088008460088642804D1E0
:104EE0000020088001200349087010BD74010020D3
:104EF000700100207801002010B501210220FCF78C
:104F000007FE09200F498880472008800020C880BC
:104F100048800D4800F04CF9012211460A4800F083
:104F2000CDF81D20094908700120487000208870C4
:104F30000120C8700846FCF72BF80121024800F058
:104F400086F810BD78250020000400407B01002079
:104F500010B50121094800F0A0F868B10121074807
:104F600000F072F806480088401C80B204490880AE
:104F7000642801DB0020088010BD00000004004010
:104F80008001002010B501210420FCF7C1FD09209B
:104F90000F498880472008800020C88048800D483D
:104FA00000F006F9012211460A4800F087F81E2099
:104FB000094908700320487001208870C8700846AD
:104FC000FBF7E6FF0121034800F041F810BD0000A7
:104FD00078250020000800407B01002010B5012149
:104FE000044800F05AF818B10121024800F02CF8EA
:104FF00010BD00000008004021B1028842F080028C
:10500000028004E002884FF67F731A4002807047E6
:105010000A884B881A438B881A43CB881A430B891A
:105020001A434B891A438B891A43A0F844207047CE
:105030000021018041808180C18001814181818185
:105040007047CA4302827047CA430282704721B147
:10505000028842F00102028004E002884FF6FE73EB
:105060001A400280704731B1B0F8442042F4004247
:10507000A0F8442005E0B0F84420C2F30E02A0F8E6
:10508000442070471AB183890B43838102E08389EE
:105090008B43838170478182704730B50246002080
:1050A00000230024158A05EA0103958905EA010415
:1050B00013B10CB1012000E0002030BD1AB183898A
:1050C0000B43838102E083898B4383817047000017
:1050D00070B5002400220023058C4FF6EF76354092
:1050E0000584028C8388048B48F6FF752C404FF6AC
:1050F000FF452C400D884FF6FF7606EA05252C4328
:105100004FF6DF752A400D8906EA05152A434D88BA
:1051100006EA05152A43154DA84202D0144DA842AF
:105120001DD14FF67F752A404D894FF6FF7606EA6E
:1051300005152A434FF6BF752A408D8806EA0515E6
:105140002A434FF6FF352B404FF2FF752B408D89D8
:1051500006EA85052B43CD8906EA85052B43838026
:105160000483CD880587028470BD0000002C0140B7
:10517000003401400A460021018B4FF2FF731940B1
:105180004FF6FF7303EA022319430183704700219E
:10519000018041808180C180018141818181C18103
:1051A000704701858282704781857047818470478E
:1051B000002202881D4B98420ED01D4B98420BD006
:1051C000B0F1804F08D01B4B984205D01A4B984243
:1051D00002D01A4B984204D14FF68F731A404B8875
:1051E0001A43174B984207D0164B984204D04FF6FB
:1051F000FF431A40CB881A4302808B8883850B8833
:1052000003850A4B98420BD0094B984208D00E4BAD
:10521000984205D00D4B984202D00D4B984201D1D7
:105220000B7A03860123838270470000002C014023
:10523000003401400004004000080040000C004021
:1052400000100040001400400040014000440140B4
:10525000004801404FF6FF71818000210180C1802C
:10526000418001727047000010B501210846FCF72B
:105270004FFC40F2E7301249888047200880002028
:10528000C88048804FF08040FFF792FF01218807D7
:10529000FFF7D7FE012211469007FFF70FFF1C20F2
:1052A0000849087002204870002088700120C870EA
:1052B0000846FBF76DFE01218807FFF7C8FE10BD09
:1052C000782500207B01002010B5044621460248C5
:1052D000FDF70EF810BD0000EC05002070B572B6A9
:1052E0000A4805880A48046862B62CB100F03CFF01
:1052F000001BB0F57A6F06D972B60020034908800A
:1053000062B6002070BD2846FCE700004A0000207D
:105310004C00002070B52548048804F0200020B11E
:1053200023480068401C2249086004F0080020B1AE
:1053300020480068401C1F49086004F0020020B1AA
:105340001D480068401C1C49086004F0040020B19E
:105350001A480068401C1949086004F0010020B197
:1053600017480068401C1649086004F00F0028B177
:105370000E4800880D48001D008870BD04F0200014
:1053800090B10A48001D0088C5B229460D48FCF7B7
:10539000C8FF48B90C484068401C0B4948600B489E
:1053A0000068401C0949086000BFE6E7003801407A
:1053B000840000208C000020900000209400002039
:1053C00098000020EC0500201C060020A80000200A
:1053D00000B587B04FF400726B496C48FCF782FF50
:1053E0004FF400726A496B48FCF77CFF00206A4961
:1053F00088726A4988726A4800F058FA694800F071
:1054000055FA01211120FCF793FB01218804FCF7D8
:105410007FFB01210420FCF78BFB01210820FCF716
:1054200087FB01218803FCF783FB4FF40070ADF884
:10543000180018208DF81B0003208DF81A0006A90B
:105440005948FBF7E7FB4FF48060ADF818000420E3
:105450008DF81B0006A95448FBF7DCFB4FF4807065
:10546000ADF8180010208DF81B0003208DF81A00ED
:1054700006A94D48FBF7CEFB4C48FCF7BFFC4FF4A8
:105480000040ADF8180006A94948FBF7C3FB49489E
:10549000FCF7B4FC01214848FBF748FC4FF480605E
:1054A000ADF8180018208DF81B0003208DF81A00A5
:1054B00006A94248FBF7AEFB4FF40060ADF81800B8
:1054C00004208DF81B0006A93C48FBF7A3FB4FF412
:1054D000165002900020ADF80C00ADF80E00ADF8AB
:1054E0001000ADF814000C20ADF8120002A92F48EE
:1054F00000F010F9012240F225512C4800F0E5F8A7
:1055000001226021294800F0E0F8012228212748E3
:1055100000F0DBF80121254800F0BEF802A925487B
:1055200000F0F8F8012240F22551224800F0CDF8B1
:10553000012260211F4800F0C8F8012228211D48DF
:1055400000F0C3F801211B4800F0A6F825208DF8D3
:10555000040000208DF805008DF8060001208DF86C
:10556000070001A8FBF714FD27208DF80400032095
:105570008DF805008DF8060001208DF8070001A8C0
:10558000FBF706FD07B000BDEC010020EC05002094
:10559000EC030020F8050020040600200F06002080
:1055A0001C0600202C0600200008014000380140A5
:1055B000000C0140004800401000140000100140A1
:1055C0001D49088800F0200121B11C490968491CC7
:1055D0001A4A116000F0080121B119490968491CF3
:1055E000174A116000F0020121B116490968491CEF
:1055F000144A116000F0040121B113490968491CE3
:10560000114A116000F0010121B110490968491CDB
:105610000E4A116000F00F0129B1074909880649B7
:10562000091D0988704700F0200111B10249091DC8
:10563000098800BFF6E70000004400408400002015
:105640008C00002090000020940000209800002092
:1056500010B5034A0349044800F02EF910BD0000BC
:105660002C060020F80500200048004008B505E0A1
:10567000064A9DF80010064800F0D2F86946054831
:10568000FCF736FE0028F3D108BD00002C060020F0
:105690000F060020F805002021B1828942F4005253
:1056A000828104E082894DF6FF731A40828170473F
:1056B00002460020B1F5007F00D100BF13880B40E7
:1056C0000BB1012000E000207047F0B50346002434
:1056D00000260025002040F66A17B94200D100BF1D
:1056E0001846C1F3421401F01F06012707FA06F518
:1056F000012C01D10C3004E0022C01D1103000E06B
:1057000014301AB107682F43076002E00768AF43FF
:105710000760F0BD2DE9F04786B005460E4600242F
:10572000A24600BFA1460027B08900B100BF2F46A6
:105730002C8A4CF6FF700440F08804432C82AC891C
:105740004EF6F3100440B08831890843718908434C
:105750000443AC81AC8A4FF6FF400440B089044357
:10576000AC8201A8FCF71AFA1F48874202D1DDF883
:1057700010A001E0DDF80CA0A88900F4004040B1C1
:105780000AEBCA0000EB0A1031684900B0FBF1F8DF
:1057900007E00AEBCA0000EB0A1031688900B0FB91
:1057A000F1F86420B8FBF0F004012009642101FB4A
:1057B0001089A88900F4004040B1322000EBC900F4
:1057C000B0FBF1F000F00700044308E0322000EBEA
:1057D00009106421B0FBF1F000F00F0004432C81AC
:1057E00006B0BDE8F08700000038014001460878A7
:1057F000AA2802D1087A552801D00020704700233A
:10580000002204E0885C1844C3B2501CC2B2082ACB
:10581000F8D3487A984201D10120EFE70020EDE764
:105820002DE9F04104460F461646A07A30B9AA2F5A
:1058300002D127700120A072BDE8F081A07A275420
:10584000A07A401CA072A07A0A2800D2F4E7204671
:10585000FFF7CCFF40B1204600F08CFCB068401C44
:10586000B0600020A072E7E7F068401CF060002004
:10587000A072012515E0605DAA2810D14FF0000844
:1058800008E0605D04F8080008F1010000F0FF087E
:10589000681CC5B20A2DF4D384F80A8003E0681CA2
:1058A000C5B20A2DE7D300BF00BFC5E700210160E4
:1058B00041608160C16070472DE9F04105460F46A7
:1058C0001446B5F8008008F00F0018B1A888C6B2D9
:1058D000BDE8F08108F0200060B1A888C6B2206859
:1058E000401C206031463846FCF71BFD10B960684B
:1058F000401C606000BFEBE72DE9F0470446884696
:1059000091465248844201D1012000E00020054622
:1059100025B14F480068401C4D4908602CB1B8F1D2
:10592000000F02D0B9F1000F07D14848844201D1DD
:10593000FCF764FA0020BDE8F0874448844202D0B6
:105940004448844201D1012000E000208246BAF19F
:10595000000F1ED000F008FC06460EE000F004FC2C
:10596000801B142809D33DB13B480068401C3A49CC
:1059700008600220FCF70CF85FE040212046FFF7AA
:1059800097FE0028EAD02046FCF752FA1420FBF7D5
:1059900007F9002725E000F0E7FB06460EE000F0DF
:1059A000E3FB801B142809D33DB12C480068401C40
:1059B0002A4908600120FBF7EBFF3EE080212046EA
:1059C000FFF776FE0028EAD018F80710204600F00E
:1059D0004BF825B122480068401C21490860781C1A
:1059E00087B24F45D7DB00F0BFFB06460EE000F064
:1059F000BBFB801B142809D33DB117480068401C2D
:105A0000154908600220FBF7C3FF16E0402120463D
:105A1000FFF74EFE0028EAD0BAF1000F05D014209F
:105A2000FBF7BEF82046FCF7E9F925B10D48006800
:105A3000401C0C49086001207DE7BAF1000F02D03C
:105A40002046FCF7DBF9002075E700000038014034
:105A50005400002000480040600000205C0000204E
:105A60006400002058000020C1F3080282807047C3
:105A700000BFFEE7002106E00A2100BF0A1EA1F1D7
:105A8000010399B2FAD1021EA0F1010398B2F3D139
:105A90007047000010B5044600210D48FFF7D7FA03
:105AA00000210C48FAF76AFF0B480A490C310860DC
:105AB0000848001D046001210548FFF7C2FA0121D2
:105AC0000448FAF75BFF01210148FFF7C0FA10BD57
:105AD0000010004030040240CC29002010B50446DC
