:020000040800F2
:10000000A82D00200D0200081D100008130C000888
:10001000090D0008B303000841310008000000008A
:10002000000000000000000000000000391F000870
:100030009709000800000000A515000879210008B4
:1000400027020008270200082702000827020008EC
:1000500027020008270200082702000827020008DC
:1000600027020008270200082702000827020008CC
:1000700027020008270200082702000827020008BC
:1000800027020008270200082702000827020008AC
:10009000270200082702000827020008270200089C
:1000A000270200082702000827020008270200088C
:1000B00079230008192400080525000827020008F4
:1000C000270200082702000827020008270200086C
:1000D000270200087D290008252C0008DD2E0008D5
:1000E000270200082702000827020008270200084C
:1000F000270200082702000827020008270200083C
:10010000270200082702000827020008270200082B
:10011000270200082702000827020008270200081B
:1001200027020008B9030008450600082702000856
:1001300000F002F800F05AF80AA090E8000C82449F
:100140008344AAF10107DA4501D100F04FF8AFF27C
:10015000090EBAE80F0013F0010F18BFFB1A43F0A5
:1001600001031847B0500000D05000000A444FF07F
:10017000000C10F8013B13F0070408BF10F8014B06
:100180001D1108BF10F8015B641E05D010F8016B4B
:10019000641E01F8016BF9D113F0080F1EBF10F8AF
:1001A000014BAD1C0C1B09D16D1E58BF01F801CBD2
:1001B000FAD505E014F8016B01F8016B6D1EF9D555
:1001C0009142D6D37047000000230024002500266A
:1001D000103A28BF78C1FBD8520728BF30C148BFAA
:1001E0000B6070471FB51FBD10B510BD00F0A8F81B
:1001F0001146FFF7F7FF03F055FC00F0C6F803B413
:10020000FFF7F2FF03BC00F0CDF80000094880477B
:1002100009480047FEE7FEE7FEE7FEE7FEE7FEE7E8
:10022000FEE7FEE7FEE7FEE704480549054A064B00
:1002300070470000E521000831010008A8270020D0
:10024000A82D0020A8290020A829002053EA020C8C
:1002500000F069802DE9F04B4FF00006002B1FBF26
:10026000B3FA83F503FA05F424FA05F65E4012BFEB
:100270001643B2FA82F502FA05F4C5F120051EBF55
:1002800022FA05FC44EA0C04203556EA044C4FEAF5
:10029000144418BF641C4FF000084FF0000990424E
:1002A00071EB030C39D3002919BFB1FA81F701FAB8
:1002B00007F6B0FA80F700FA07F6C7F120071EBF6D
:1002C00020FA07FC46EA0C062037B6FBF4FCA7EB45
:1002D0000507103F07F01F0BCBF120060CFA0BFBB4
:1002E0002CFA06F644BFB3460026202FA4BF5E4674
:1002F0004FF0000B5BEA060C08BF4FF0010B19EB47
:100300000B09ABFB027C48EB0608C01B06FB02CCCA
:100310000BFB03CC71EB0C01C1E70B4602464146D7
:100320004846BDE8F08B13B54FF000004FF00001D8
:10033000AFF30080BDE81C407047704770477047BE
:10034000754600F02BF8AE4605006946534620F08E
:100350000700854618B020B5FFF766FFBDE82040CE
:100360004FF000064FF000074FF000084FF0000B71
:1003700021F00701AC46ACE8C009ACE8C009ACE824
:10038000C009ACE8C0098D46704710B50446AFF30C
:1003900000802046BDE81040FFF731BF004870479D
:1003A0004427002001491820ABBEFEE726000200CA
:1003B000704700BFFEE700002DE9F04F8BB09A4870
:1003C00000F0ACFA10B90BB0BDE8F08F964800F021
:1003D000E5F99648007810B904F060F8F3E794481E
:1003E000007800287ED09248406807909048866840
:1003F000D0F80C900069069000208D4908708D4857
:10040000006838B18B4806684E4500D94E4636B96B
:10041000012604E006B901264E4500D94E4607984C
:1004200010B904F03BF8CEE7834907980860002034
:10043000486008468660B9F1000F01D1012000E054
:1004400048467D49C860069808B9012000E0069832
:1004500079490861084680688968A0FB0170804678
:10046000022075490969A0FB0123734800684FF019
:10047000000CA2FB001E03FB00E002FB0C00C919EC
:1004800040EB080002226346CDE9021008460399BA
:10049000FFF7DCFECDE90401DDE9040103F0BCFA5D
:1004A00005466548C068A84201D26348C56805B9D9
:1004B00001256148456102205F490969A0FB0110DF
:1004C000CDE90210A5FB0510C91B60EB0800CDE9C2
:1004D0000010084601A90EC9FFF7B8FE5649886109
:1004E000022000E03CE00969A0FB0101CDE9020126
:1004F000A5FB0510CDE90010084601A90EC9FFF7BC
:10050000A5FE4D49C8610846C06908B90120C86107
:1005100002204A490870012044490870002004F074
:10052000D1FA044604B901244248046060000890EE
:10053000089804F0E3F9404800683F494968A0EB97
:10054000010ABAF1800F01D9802000E050460A90DC
:100550000A9841000991099988B202F027FE32E712
:1005600036480078012818D13548006810B903F0E2
:1005700095FF28E73248D0F800B0BBF5807F01D95D
:100580004FF4807B2E480068A0EB0B002C490860DC
:100590001FFA8BF002F00AFE15E7284800780228BF
:1005A0003DD12548006824494968A0EB010ABAF109
:1005B000800F01D9802000E050460A901E48416813
:1005C0000A9808441C4948600846406809688842FF
:1005D00002D303F063FFF6E61749486804F072FAA5
:1005E000044604B901241348046060000890089888
:1005F00004F084F9104800680F494968A0EB010A2B
:10060000BAF1800F01D9802000E050460A900A9884
:1006100041000991099988B202F0C8FDD3E603F0C0
:100620003DFF00BFCFE60000200000108C0100203D
:10063000DC1E002088010020F02200208D01002017
:10064000900100202DE9FC5F4C4800F067F908B9E3
:10065000BDE8FC9F494800F0A1F84948007810B96E
:1006600003F082FDF4E74748007830B34548D0F8FE
:1006700004908468C56800690090002041490870B2
:100680004148006838B140480468AC4200D92C4663
:1006900034B9012404E004B90124AC4200D92C4649
:1006A000B9F1000F02D103F05FFDD1E72A462146E0
:1006B0004846009B03F080FCCAE7344800780128D4
:1006C00015D13348006810B903F04EFDC0E730483B
:1006D0000768B7F5807F01D94FF480772C48006810
:1006E000C01B2B490860B8B202F03CFDB0E72748B8
:1006F000007802283ED12748006826494968A0EBC7
:100700000108B8F1800F01D9802000E04046824600
:100710002048406850441F494860084640680968BE
:10072000884205D301201C49087003F01DFD8FE7A6
:100730001849486804F062F9064606B901261248CD
:10074000066070000190019804F018F911480068E3
:1007500010494968A0EB0108B8F1800F01D9802049
:1007600000E0404682464FEA4A0B1FFA8BF002F047
:10077000F9FC6DE703F0F8FC00BF69E70002001028
:100780009C01002010230020980100209E010020E1
:10079000A0010020242700209D01002000F08051AE
:1007A00011B10349086001E0024948607047000048
:1007B000040402400000024021B1026842F001023C
:1007C000026004E002684FF6FE731A400260704750
:1007D00001684FF6FE721140016000210160416026
:1007E0008160C1604B49884208D14A49083949684B
:1007F00041F00F01474A083A51608AE045491431F7
:10080000884208D143490839496841F0F001414A1A
:10081000083A51607DE03F492831884208D13D497E
:100820000839496841F470613A4A083A516070E009
:1008300038493C31884208D136490839496841F481
:100840007041344A083A516063E03249503188427D
:1008500008D130490839496841F470212D4A083AD5
:10086000516056E02B496431884208D12949083942
:10087000496841F47001274A083A516049E0254926
:100880007831884208D123490839496841F07061BC
:10089000204A083A51603CE01F49884206D1011FB6
:1008A000096841F00F01021F116032E01A4914314A
:1008B000884208D11849091F096841F0F001164A19
:1008C000121F116025E014492831884208D11249CD
:1008D000091F096841F470610F4A121F116018E086
:1008E0000D493C31884208D10B49091F096841F480
:1008F0007041094A121F11600BE0074950318842CC
:1009000007D10549091F096841F47021024A121FE5
:1009100011607047080002400804024001460020B0
:10092000002201F0805313B1054B1A6801E0054B1A
:100930001A6802EA01030BB1012000E000207047B1
:1009400000040240000002401AB103680B43036038
:1009500002E003688B430360704710B50022026811
:1009600047F6F0739A430C6A8B6823430C69234360
:100970004C6923438C692343CC6923434C6A23434A
:100980008C6A23431A430260CB6843600B68836020
:100990004B68C36010BD704710B56FF0040001F0E4
:1009A000D7FB0A4800680A49B0FBF1F00949087012
:1009B0000846007800EB4001C1EBC0104FF6FF7114
:1009C00001EAC0000449088010BD0000A401002015
:1009D00000127A00000000200200002001460D4AAB
:1009E00012784A434FF0E0235A6100229A610122B3
:1009F0001A6100BF4FF0E022106900F001021AB145
:100A000000F48032002AF5D000224FF0E0231A6172
:100A10009A6170470000002008B50121092001F00B
:100A200027F80121084800F09FF80120ADF80000E8
:100A300003208DF8020018208DF803006946034852
:100A400000F006F808BD000040001600000C014050
:100A50002DE9F04102460025002600200023002455
:100A6000002791F803C00CF00F0591F803C00CF0BB
:100A7000100CBCF1000F03D091F802C04CEA050540
:100A800091F800C0BCF1000F31D0146800202BE0B9
:100A90004FF0010C0CFA00F3B1F800C00CEA0306A9
:100AA0009E4220D183004FF00F0C0CFA03F7BC4399
:100AB00005FA03FC4CEA040491F803C0BCF1280FCA
:100AC00006D14FF0010C0CFA00FCC2F814C00AE089
:100AD00091F803C0BCF1480F05D14FF0010C0CFA9E
:100AE00000FCC2F810C0401C0828D1D31460B1F833
:100AF00000C0BCF1FF0F34DD546800202EE000F18F
:100B0000080C4FF0010808FA0CF3B1F800C00CEA29
:100B100003069E4221D183004FF00F0C0CFA03F71D
:100B2000BC4305FA03FC4CEA040491F803C0BCF191
:100B3000280F05D100F1080C08FA0CF8C2F814804F
:100B400091F803C0BCF1480F07D100F1080C4FF039
:100B5000010808FA0CF8C2F81080401C0828CED30F
:100B60005460BDE8F0810000F0B50A46002300247F
:100B70000021002500F00046B6F1004F02D11D4EC5
:100B8000F16901E01B4E7168C0F3034583B200F4C4
:100B90004016B6F5401F08D121F07061154E7668F9
:100BA00026F07066134F7E6012E000F48016B6F5F2
:100BB000801F06D1032606FA05F4A14341F07061B7
:100BC00006E0460D360103FA06F6B14341F07061C6
:100BD00022B1460D360103FA06F6314300F0004615
:100BE000B6F1004F02D1034EF16101E0014E716098
:100BF000F0BD0000000001400246002093680B4059
:100C00000BB1012000E00020704741617047016195
:100C1000704700BFFEE7000070B504211448FFF7DD
:100C2000F4FF4FF47A70FFF7D9FE01F05DF9054645
:100C30004FF47A70FFF7D2FE04210D48FFF7E7FF6B
:100C400005F4803008B10B4870BD43F6FF7000EA30
:100C5000954404F4005010B144F4404004B22046DE
:100C600004F004F906464FF07A5104F05FF9EBE71F
:100C7000000C014000007AC408B50121182000F0E2
:100C8000F7FE4020ADF8000010208DF8030003208F
:100C90008DF8020069461A48FFF7DAFE0420ADF825
:100CA000000010208DF8030003208DF80200694633
:100CB0001448FFF7CDFE8020ADF8000010208DF81D
:100CC000030003208DF8020069460D48FFF7C0FEBF
:100CD0004FF48070ADF8000004208DF803006946E1
:100CE0000748FFF7B5FE40210548FFF790FF0421B4
:100CF0000448FFF78CFF80210148FFF786FF08BDFD
:100D000000100140000C014000BFFEE72DE9F0415A
:100D100005460E461746042D01D1012405E0052D98
:100D200001D1032401E0BDE8F0810320A040114976
:100D3000097881430F48017097B1012E07D1012036
:100D4000A0400C49097808430A49087008E0022EBF
:100D500006D10220A04007490978084305490870D8
:100D60000448007804490870084601F0C1F900BF42
:100D7000D9E700005C010020830000202DE9F0414C
:100D800004460F46102C01DBBDE8F0812046E11738
:100D900004EB5171C910491CCDB2E11704EB51713C
:100DA000C910A4EBC101CEB247B10A48415D012090
:100DB000B0400143C8B20749485506E00548415DC7
:100DC0000120B040814303484155024801F090F9A9
:100DD00000BFD9E7830000202DE9F04105460E460B
:100DE0001746062D01D1012405E0072D01D103246A
:100DF00001E0BDE8F081104800780321A14088435C
:100E00000D49087097B1012E07D1084600780121DD
:100E1000A14008430849087008E0022E06D10648A0
:100E200000780221A140084303490870024801F0FC
:100E30005FF900BFDDE70000830000202DE9F041ED
:100E400005460E461746681E1C4901EB4014012D4D
:100E500001DB032D01DDBDE8F081012D00D1FAE7B2
:100E6000022D00D1F7E717B3012E08D1A188206821
:100E7000FFF7CDFEA189A068FFF7C7FE12E0022EA2
:100E800008D1A1882068FFF7C0FEA189A068FFF7FC
:100E9000BEFE07E0A1882068FFF7B7FEA189A06821
:100EA000FFF7B3FEA18A2069FFF7B1FE03E0A18A34
:100EB0002069FFF7AAFE00BFCDE70000FC0000207C
:100EC00038B50121182000F0D3FD002461E050481E
:100ED00000EB44108088ADF8000010208DF803006E
:100EE00003208DF802004A4901EB44110868694665
:100EF000FFF7AEFD464800EB44108089ADF80000D6
:100F0000434901EB441188686946FFF7A1FD404859
:100F100000EB4410808AADF800003D4901EB44111C
:100F200008696946FFF794FD394A02EB441291883B
:100F3000374A02EB44121068FFF767FE344A02EBAF
:100F400044129189324A02EB44129068FFF75DFE29
:100F50002F4A02EB4412918A2D4A02EB4412106987
:100F6000FFF753FE01202A4901EB44118875002048
:100F7000274901EB44110883254901EB4411C87549
:100F8000234901EB44118876214901EB4411C876CD
:100F9000641C032C9BDB002436E0012004EB44019D
:100FA0001C4A02F81100002004EB440102EB41014D
:100FB000488004EB440102EB4101487004EB44011A
:100FC00002EB4101087104EB440102EB410148715D
:100FD000012004EB4401104A02F81100002004EB48
:100FE000440102EB4101488004EB440102EB410162
:100FF000487004EB440102EB4101087104EB440129
:1010000002EB41014871641C022CC6DB38BD0000B4
:10101000FC000020B81E0020C41E00207047000005
:1010200070B5002100230F22C47804B3154C246846
:1010300004F4E064C4F5E064210AC1F10403CA4089
:10104000447804FA03F184781440214309010E4CDA
:101050000678A155047804F01F050124AC400578FA
:101060006D11AD0005F1E025C5F8004109E00478F7
:1010700004F01F050124AC40044D0678761145F8B4
:10108000264070BD0CED00E000E400E080E100E0EF
:1010900002490143024A1160704700000000FA054E
:1010A0000CED00E0642800DD6420704738B505468B
:1010B0000C460121042000F0DBFCADF800500320B9
:1010C0008DF802008DF8034069460248FFF7C0FC26
:1010D00038BD00000008014038B504460121102049
:1010E00000F0C6FCADF8004002208DF80200102090
:1010F0008DF8030069460248FFF7AAFC38BD0000DE
:101100000010014000201449097809B140F00100A5
:101110001249097809B140F002001149097809B172
:1011200040F004000F49097809B140F008000E4969
:10113000097809B140F010000C49097809B140F074
:1011400020000B49097809B140F0400009490978AD
:1011500009B140F080007047F7000020F200002045
:10116000F4000020F5000020F6000020F800002028
:10117000F9000020FA0000201FB50121052000F031
:1011800077FC00212A48FFF7EFFC00212948FFF7F0
:10119000EBFC00212848FFF7E7FC40F6030000F0D5
:1011A00005F9684601F029FB6020ADF80000012038
:1011B000ADF802000020ADF806000220ADF80800EE
:1011C0006946400701F018FA0821C80601F060FAE4
:1011D00069464FF0804001F065FA0821C80601F029
:1011E000B3FA6946154801F0BDFA0821134801F029
:1011F000F7FA00214FF0804001F00EFB00214FF084
:10120000804001F00BFB00210C4801F009FB01219B
:10121000880701F0D4F90121084801F0D0F9012133
:10122000880701F0A8F90121044801F0B0F91FBDB9
:10123000000318000001180000021800002C0140F3
:101240002DE9F04106460C462046FFF72BFF0446E9
:10125000B58D642C0ADB4FF6FF70854203D2681C03
:1012600080B2BDE8F0814FF6FF70FAE7681C60437A
:101270006421B0FBF1F7B8B2F3E770B505460C4650
:1012800025B1012D06D0022D0CD107E0204600F03B
:101290000DF808E0204600F05FF804E0204600F07A
:1012A0002FF800E000BF00BF70BD000070B504461D
:1012B0002046FFF7F7FE0446002C01DD012000E088
:1012C00000200E49087044B900214FF0804001F021
:1012D000A3FA012000F06AF870BD18210120FFF781
:1012E000E5FE21464FF08040FFF7AAFF054629465C
:1012F0004FF0804001F090FA00BFEDE7F8000020C9
:1013000070B504462046FFF7CDFE0446002C01DDF3
:10131000012000E000200E49087044B900210D486A
:1013200001F07EFA4FF4006000F040F870BD182123
:101330004FF40060FFF7BAFE21460648FFF780FF32
:1013400005462946034801F06BFA00BFEEE70000AE
:10135000FA000020002C014070B504462046FFF73B
:10136000A1FE0446002C01DD012000E000200E4912
:10137000087044B900214FF0804001F04FFA02207C
:1013800000F014F870BD18210220FFF78FFE2146EF
:101390004FF08040FFF754FF054629464FF080404C
:1013A00001F03CFA00BFEDE7F900002010B504465B
:1013B00010212046FFF77AFE21460248FFF727FC5E
:1013C00010BD00000008014070B504462046FFF73C
:1013D00069FE0446002C01DD012000E000200449E4
:1013E0000870204603F05AFD054600F091FF70BDDD
:1013F000F700002010B504462046FFF753FE0446D0
:101400004FF48040FFF768FE0B48047044B94FF476
:1014100080410A48FFF7F9FB00200949087008E0FD
:10142000012007490870642C03DB81030348FFF7A0
:10143000EEFB00F067F810BDF10000200010014045
:10144000F200002010B504464FF40040FFF744FEC0
:101450000CB1642000E000200B49087044B14FF447
:1014600000410A48FFF7D3FB01200949087007E053
:101470004FF400410548FFF7C8FB002004490870FD
:1014800000F040F810BD0000F30000200010014003
:10149000F400002010B504460220FFF71DFE3CB109
:1014A00002210848FFF7B3FB01200749087006E056
:1014B00002210448FFF7A9FB00200349087000F04F
:1014C00049F810BD00100140F500002010B5044699
:1014D0000420FFF701FE3CB104210848FFF797FB09
:1014E00001200749087006E004210448FFF78DFB3E
:1014F00000200349087000F02DF810BD00100140D5
:10150000F600002008B50121102000F0B1FA0120FA
:10151000ADF8000003208DF8020010208DF80300C4
:1015200069460948FFF794FA0848007810B9084856
:10153000007820B101210448FFF769FB03E0012195
:101540000148FFF762FB08BD00100140F2000020D7
:10155000F400002008B50121102000F089FA0820CD
:10156000ADF8000003208DF8020010208DF8030074
:1015700069460948FFF76CFA0848007810B908482E
:10158000007820B108210448FFF741FB03E008215F
:101590000148FFF73AFB08BD00100140F5000020AC
:1015A000F6000020704700007CB504460020009043
:1015B00001901648007800B97CBD02F0F7FC10B924
:1015C00000F05EF8F8E712480078205C11490978CD
:1015D000084008B1012000E0002005460E480078D0
:1015E000854200D0E8E701208DF800008DF8010069
:1015F0000A4800788DF8020000F042F802F0B4FDCD
:1016000069461F2002F022FB00BFD5E7EC00002056
:10161000ED000020EE000020EF000020F000002090
:1016200070B504460D460CB1182C03D900F028F80B
:10163000002070BD601EC0F3C706C6F102000B4952
:101640000870601E00F007010120884008490870FA
:101650000DB1012000E00020064908700648047022
:1016600001200649087000BFE3E70000ED000020FC
:10167000EE000020EF000020F0000020EC00002031
:10168000002005490870054908700549087005499A
:101690000870054908707047EC000020ED0000203C
:1016A000EE000020EF000020F00000200246002A9B
:1016B00060D11A295CD2DFE801F00D101316191C55
:1016C0001F2225282B2E3134373A3D404346494CC2
:1016D0004F5255583D48006870473D480068FBE749
:1016E0003C480068F8E73C480068F5E73B4800687C
:1016F000F2E73B480068EFE73A480068ECE73A4811
:101700000068E9E739480068E6E739480068E3E738
:1017100038480068E0E738480068DDE73748006887
:10172000DAE737480068D7E736480068D4E7364834
:101730000078D1E735480068CEE735480068CBE748
:1017400034480078C8E734480078C5E73348007863
:10175000C2E733480078BFE732480068BCE7324848
:101760000078B9E731480078B6E731480078B3E748
:101770000020B1E7012A03D12E4850F82100ABE741
:10178000022A03D12C4850F82100A5E7032A03D1EF
:101790002A4850F821009FE7042A03D1284850F82E
:1017A000210099E7052A03D1264850F8210093E744
:1017B000062A03D1244850F821008DE7072A03D1D7
:1017C000224850F8210087E7002085E79C00002090
:1017D000A0000020A4000020A8000020AC000020F1
:1017E000B0000020B4000020B8000020BC000020A1
:1017F000C0000020C4000020C8000020CC00002051
:10180000D0000020D4000020E4000020D8000020F8
:10181000DC000020E5000020E6000020E7000020BA
:10182000E8000020E0000020EA000020EB0000209B
:10183000E9000020B8020020B8060020B80A002005
:10184000B80E0020B8160020B8120020B81A0020E8
:1018500000B500F083F8FF20034908700020034919
:1018600008700349087000BDE9000020EA0000206C
:10187000EB00002030B50246174B1B78042B05DB2C
:10188000164B1B685B1C154C236030BD144B154C6C
:1018900024781A5500200AE00B5C124C247804EBE3
:1018A0004404114D05EB44042354431CD8B20628CC
:1018B000F2DB0C4B1B785B1C0A4C237023461B7815
:1018C000042B01DB00232370034B1B785B1C024CB1
:1018D000237000BFD9E7000099000020C400002059
:1018E0009300002098000020A002002070B504465C
:1018F00002F026F9054600BFEFF31080064672B6E7
:101900000D480068401C0C4908600C480470022C0B
:1019100001D1092001E00A4800780A4908700A4804
:1019200000780A4908700A4800780A4908700A488D
:10193000056006B962B670BDD4000020E500002045
:10194000E9000020E6000020EA000020E700002077
:10195000EB000020E8000020E000002000BFEFF3D3
:101960001081084672B60021074A1170FF21074A0C
:1019700011700021064A1170064A1170064A116062
:1019800000B962B670470000E5000020E6000020C4
:10199000E7000020E8000020E000002070B50446C9
:1019A00061782078FFF782FE0546280EA070280C8B
:1019B000E070280A2071657121467E2002F03DF911
:1019C00070BD000010B502460B461548007808B9F6
:1019D000002010BD1348144C2478005D10700021C5
:1019E0000AE01148007800EB4000104C04EB400086
:1019F000405C5854481CC1B20629F2DB0A48007802
:101A0000401C094C207020460078042801DB00208F
:101A1000207003480078401E014C20700120D8E758
:101A2000990000209300002097000020A0020020D1
:101A300029B1064A52690243044B5A6104E0034A41
:101A400052698243014B5A61704700000010024006
:101A500029B1064AD2690243044BDA6104E0034A21
:101A6000D2698243014BDA617047000000100240E6
:101A700029B1064A92690243044B9A6104E0034A81
:101A800092698243014B9A61704700000010024046
:101A90000F48006840F001000D49086008464068A2
:101AA0000C4908400A494860084600680A4908404D
:101AB000074908600846006820F48020086008464E
:101AC000406820F4FE0048604FF41F0088607047B3
:101AD000001002400000FFF8FFFFF6FE30B50021C5
:101AE0000022002400232D4D6D6805F00C0121B16A
:101AF000042905D0082923D105E0294D056022E0FD
:101B0000274D05601FE0254D6D6805F47012234DCB
:101B10006D6805F48034022505EB92421CB9214D15
:101B2000554305600BE01D4D6D6805F400351DB192
:101B30001C4D5543056002E0194D5543056002E018
:101B4000174D056000BF00BF144D6D6805F0F00132
:101B50000909154D6B5C0568DD4045600F4D6D68EA
:101B600005F4E061090A104D6B5C4568DD40856055
:101B70000A4D6D6805F46051C90A0B4D6B5C4568F0
:101B8000DD40C560054D6D6805F44041890B074D8A
:101B90006B5CC568B5FBF3F5056130BD0010024014
:101BA00000127A0000093D00B8010020C8010020A1
:101BB00010B501460022002300204A11012A02D15B
:101BC000094C236806E0022A02D1074C236A01E08F
:101BD000054C636A01F01F02012494401C400CB1C3
:101BE000012000E0002010BD0010024002484068C3
:101BF00000F00C0070470000001002400146002079
:101C0000034A506820F0F00008435060704700001D
:101C1000001002401149096821F480310F4A116017
:101C20001146096821F480211160B0F5803F03D08E
:101C3000B0F5802F0ED106E00849096841F48031E3
:101C4000064A116007E00549096841F4A021034AEA
:101C5000116000E000BF00BF7047000000100240AC
:101C600001460020034A506820F4E06008435060B9
:101C7000704700000010024001460020034A5068EF
:101C800020F4605040EAC1005060704700100240EC
:101C900001490866704700000000424202460020E9
:101CA000044B586820F47C1042EA01031843014BAE
:101CB000586070470010024001460020034A5068F7
:101CC00020F00300084350607047000000100240FD
:101CD00038B5002000900024002500BF3120FFF718
:101CE00067FF05460098401C00900098B0F5A06F73
:101CF00001D0002DF2D03120FFF75AFF08B10124A6
:101D000000E00024204638BD10B54FF48071024831
:101D1000FEF77BFF10BD00000008014010B54FF436
:101D200080710248FEF773FF10BD000000080140FB
:101D300000B587B02E48007808B107B000BD01207B
:101D40002B490870012141F20400FFF791FE202089
:101D5000ADF8180018208DF81B0003208DF81A002C
:101D600006A92448FEF774FE4020ADF818000420B0
:101D70008DF81B0006A91F48FEF76AFE8020ADF80B
:101D8000180018208DF81B0006A91A48FEF760FEFF
:101D90004FF40070ADF8180010208DF81B000320E0
:101DA0008DF81A0006A91448FEF752FE0020ADF87F
:101DB00004004FF48270ADF806000020ADF8080072
:101DC000ADF80A00ADF80C004FF40070ADF80E004D
:101DD0001820ADF810000020ADF8120001A9074846
:101DE00000F064F80121054800F00AF800BFA4E7FC
:101DF0008600002000080140000C01400030014036
:101E000021B1028842F04002028004E002884FF6CD
:101E1000BF731A400280704708B501210C20FFF7FC
:101E200027FE4FF48070ADF8000003208DF802000B
:101E300010208DF8030069461448FEF709FE4FF4A0
:101E40000070ADF8000003208DF8020010208DF81E
:101E5000030069460D48FEF7FBFD4FF48050ADF8D6
:101E6000000003208DF8020010208DF80300694661
:101E70000648FEF7EDFD4FF400710448FEF7C7FE7B
:101E80004FF480710148FEF7C0FE08BD000C014010
:101E90000246002013890B400BB1012000E0002016
:101EA00070470146888970478181704710B50022CC
:101EB000028802F441520B884C8823438C882343C8
:101EC000CC8823430C8923434C8923438C892343A7
:101ED000CC8923431A430280838B4FF2FF74234043
:101EE00083830B8A038210BD70B50024002505E0B2
:101EF000640000F007F80443681CC5B2202DF7DB2E
:101F0000204670BD10B580210A48FEF780FE0120F2
:101F1000FEF764FD4FF480710648FEF76DFE04463F
:101F200080210448FEF771FE0120FEF757FD204690
:101F300010BD000000100140704710B500F002F81D
:101F400010BD00000CB500200190009033480068DF
:101F500040F480303149086000BF3048006800F428
:101F6000003000900198401C0190009818B9019829
:101F7000B0F5A06FF1D12948006800F4003010B12D
:101F80000120009001E0002000900098012843D13A
:101F90002348006840F010002149086008460068A6
:101FA00020F0070008600846006840F00200086062
:101FB0001A48406819494860084640684860084621
:101FC000406840F4806048600846406820F47C1017
:101FD00048600846406840F4E810486008460068D9
:101FE00040F08070086000BF0C48006800F000708E
:101FF0000028F9D00948406820F0030007494860EC
:102000000846406840F00200486000BF034840684E
:1020100000F00C000828F9D10CBD000000100240AF
:102020000020024008B5FFF783FE01210420FFF7DE
:102030001FFD1020ADF800008DF8030003208DF87F
:10204000020069460148FEF703FD08BD0008014093
:1020500038B5044610211948FEF7D7FD0A2001F0D3
:1020600071F810211548FEF7D2FD0A2001F06AF838
:10207000002000901AE000BF02211148FFF708FF7E
:102080000028F9D0FF210E48FFF70EFF00BF012105
:102090000B48FFF7FDFE0028F9D00948FFF701FFC4
:1020A000C043009960540098401C00900098032899
:1020B000E1DB2046FFF778FA38BD00000008014058
:1020C0000030014008B5FFF733FE01211020FFF773
:1020D000CFFC1020ADF800008DF8030003208DF830
:1020E000020069460148FEF7B3FC08BD001001403C
:1020F00070B50546002415E000BF02211248FFF725
:10210000C7FE0028F9D0295D0F48FFF7CDFE00BFBC
:1021100001210D48FFF7BCFE0028F9D00A48FFF75F
:10212000C0FE641C032CE7DB0120FEF757FC1021E6
:102130000648FEF76CFD0120FEF750FC1021034815
:10214000FEF763FD70BD000000300140001001404B
:10215000042808D14FF0E021096941F004014FF053
:10216000E022116107E04FF0E021096921F004014C
:102170004FF0E02211617047704710B5FFF788FCFF
:102180004FF48030FFF746FD00BFFFF7A1FD0128A7
:10219000FBD14FF4E0110004FFF780FD0120FFF7B1
:1021A00077FD00BF3920FFF703FD0028FAD0022099
:1021B000FFF782FD00BFFFF719FD0828FBD10020C3
:1021C000FFF71CFD4FF48060FFF74AFD0020FFF78A
:1021D00053FD01218803FFF74BFC01214804FFF761
:1021E00037FC10BD10B51348006840F001001149DC
:1021F000086008464068104908400E494860084693
:1022000000680E4908400B4908600846006820F441
:10221000802008600846406820F4FE0048604FF4C3
:102220001F008860FFF789FE4FF0006004490860D6
:1022300010BD0000001002400000FFF8FFFFF6FE96
:1022400008ED00E070B58CB006460C46154601213D
:10225000C802FFF70DFC01A800F03AFBADF80860DA
:10226000ADF804400020ADF80A00ADF8060001A961
:10227000264800F0DBFA08A800F0BFFA6020ADF8AD
:1022800020000020ADF822000420ADF82400ADF8B5
:1022900026500020ADF82800ADF82A00ADF82C003B
:1022A000ADF82E0008A9194800F0FCF908211748DC
:1022B00000F04AFA0121154800F032F904A800F0B4
:1022C0004BF94FF40060ADF810004010ADF812006B
:1022D0000020ADF81400ADF818004FF40050ADF830
:1022E0001A004000ADF81C0004A9084800F024F9C9
:1022F0000121064800F063F90121044800F03BF990
:102300000121024800F043F90CB070BD002C0140DF
:102310002DE9F04706460021304602F0D3FD00D2F9
:1023200000261349304602F0CDFE00D2104E11486F
:102330000488601C02F0B2FD8246314602F0F6FDD0
:1023400081460B4902F0B0FC80464FF07C5102F010
:102350003DFC074602F06AFD0546A54200D9254628
:10236000A9B204482C3800F059FABDE8F087000003
:102370000000C8422C2C014010B50121880700F054
:1023800020F9B0B10121880700F0F2F8094800688F
:10239000401C0849086008480088401C064908801D
:1023A00008460088642804D10020088001200349E1
:1023B000087010BD64010020600100206801002049
:1023C00010B501210220FFF743FB09200F49888047
:1023D000472008800020C88048800D4800F026FA79
:1023E000012211460A4800F0FDF81D200949087035
:1023F00001204870002088700120C8700846FEF750
:102400000FFE0121024800F0B6F810BDD01E0020DA
:10241000000400406B01002010B501211D4800F0B0
:10242000D0F878B301211B4800F0A2F81A480088C0
:10243000401C80B218490880642801DB0020088015
:102440001648007888B114480088154909788842F0
:1024500005DA4FF480411348FEF7D9FB0AE04FF448
:1024600080411048FEF7D1FB04E04FF480410D4855
:10247000FEF7CBFB0C48007828B14FF40041094827
:10248000FEF7C5FB04E04FF400410648FEF7BDFB34
:1024900010BD00000004004070010020F200002088
:1024A000F100002000100140F400002010B50121CF
:1024B0000420FFF7CDFA09200F49888047200880C3
:1024C0000020C88048800D4800F0B0F90122114674
:1024D0000A4800F087F81E20094908700320487058
:1024E00001208870C8700846FEF79AFD0121034854
:1024F00000F041F810BD0000D01E00200008004090
:102500006B01002010B50121044800F05AF818B101
:102510000121024800F02CF810BD00000008004026
:1025200021B1028842F08002028004E002884FF666
:102530007F731A40028070470A884B881A438B8841
:102540001A43CB881A430B891A434B891A438B8948
:102550001A43A0F844207047002101804180818007
:10256000C1800181418181817047CA4302827047E5
:10257000CA430282704721B1028842F00102028000
:1025800004E002884FF6FE731A400280704731B1B2
:10259000B0F8442042F40042A0F8442005E0B0F82E
:1025A0004420C2F30E02A0F8442070471AB1838978
:1025B0000B43838102E083898B438381704781824F
:1025C000704730B50246002000230024158A05EA32
:1025D0000103958905EA010413B10CB1012000E063
:1025E000002030BD1AB183890B43838102E08389C7
:1025F0008B4383817047000070B5002400220023C4
:10260000058C4FF6FE7635400584028C8388048B5A
:102610004FF68F752C40B51E2C400D882C43751E2F
:102620002A400D892A434D882A43144DA8420BD0D5
:10263000134DA84208D0134DA84205D0124DA84210
:1026400002D0124DA84213D14FF6F7752A404D899A
:102650002A434FF6FB752A408D882A434FF6FF65C3
:102660002B404FF6FF552B408D892B43CD892B43B3
:1026700083800483CD888586028470BD002C014050
:102680000034014000400140004401400048014046
:102690000A460021018B4FF6F7731940114301835D
:1026A0007047000070B5002400220023058C4FF60F
:1026B000EF7635400584028C8388048B48F6FF75DD
:1026C0002C404FF6FF452C400D884FF6FF7606EA6A
:1026D00005252C434FF6DF752A400D8906EA0515BE
:1026E0002A434D8806EA05152A43154DA84202D013
:1026F000144DA8421DD14FF67F752A404D894FF6E3
:10270000FF7606EA05152A434FF6BF752A408D88E5
:1027100006EA05152A434FF6FF352B404FF2FF75A9
:102720002B408D8906EA85052B43CD8906EA850570
:102730002B4383800483CD880587028470BD00000D
:10274000002C0140003401400A460021018B4FF269
:10275000FF7319404FF6FF7303EA02231943018305
:102760007047000070B5002200230024058C4EF64F
:10277000FF7635400584038C8488828B48F6FF758C
:102780002A404FF6FF452A400D884FF6FF7606EAAD
:1027900005252A434DF6FF752B400D8906EA0535C0
:1027A0002B434D8806EA05352B430B4DA84202D03A
:1027B0000A4DA84208D14BF6FF752C408D894FF683
:1027C000FF7606EA85152C4384808283CD88A0F8A5
:1027D0004050038470BD0000002C014000340140D3
:1027E0000A460021818B4FF2FF7319404FF6FF73A9
:1027F00003EA02231943818370470021018041804D
:102800008180C180018141818181C18170470185C1
:102810008282704781857047818670470187704743
:10282000A0F84010704781847047000000220288A1
:102830001D4B98420ED01D4B98420BD0B0F1804FEB
:1028400008D01B4B984205D01A4B984202D01A4B25
:10285000984204D14FF68F731A404B881A43174B96
:10286000984207D0164B984204D04FF6FF431A40C7
:10287000CB881A4302808B8883850B8803850A4B9B
:1028800098420BD0094B984208D00E4B984205D085
:102890000D4B984202D00D4B984201D10B7A038622
:1028A0000123838270470000002C01400034014066
:1028B0000004004000080040000C004000100040F0
:1028C0000014004000400140004401400048014025
:1028D0004FF6FF71818000210180C180418001722B
:1028E0007047000010B501210846FFF7B1F840F22B
:1028F000E73012498880472008800020C88048803F
:102900004FF08040FFF792FF01218807FFF72DFE6F
:10291000012211469007FFF765FE1C200849087048
:1029200002204870002088700120C8700846FEF719
:1029300077FB01218807FFF71EFE10BDD01E002087
:102940006B01002070B572B60A4805880A48046811
:1029500062B62CB101F0F4F8001BB0F57A6F06D91D
:1029600072B600200349088062B6002070BD284678
:10297000FCE7000074000020780000202DE9F04101
:1029800008214C4800F0D0FA48B90421494800F029
:10299000CBFA20B90221474800F0C6FA58B14548A1
:1029A00000884448001D00880020434908704349BE
:1029B0000870BDE8F08140F225513E4800F0C1FAB0
:1029C000002874D03B4800F077FBC4B201F0B8F89F
:1029D00005463948007880B9A92C0DD10020374927
:1029E00008700878411C354A117035490C54012093
:1029F0003149087033480560DBE732480068281A1F
:102A0000322804D900202D4908702B490870A92CC0
:102A10000ED10020294908700878411C274A1170FE
:102A200027490C5401202449087026480560C0E756
:102A30002148007800B9BCE720480078052808DA6A
:102A40001E490878411C1D4A11701D490C541D482F
:102A500005601A480078052829DB0020164908700F
:102A60001748007816494978084415498978084478
:102A70001349C9780844C6B211480078A92813D16F
:102A80000F48C07855280FD10D480079B0420BD1BE
:102A90000B4880780A49497840EA01270A480780AC
:102AA00001F04EF80949086000200449087000BF91
:102AB0007FE70000003801406E0000206D0000201C
:102AC0006F0000207C0000207400002078000020AF
:102AD00000B587B001210420FEF7CAFF01210820BC
:102AE000FEF7C6FF01218803FEF7C2FF012148045B
:102AF000FEF7AEFF4FF40070ADF8180018208DF807
:102B00001B0003208DF81A0006A94348FDF7A0FF1B
:102B10004FF48060ADF8180004208DF81B0006A962
:102B20003D48FDF795FF4FF48070ADF81800102078
:102B30008DF81B0003208DF81A0006A93648FDF712
:102B400087FFFFF7E1F80420ADF8180018208DF892
:102B50001B0006A93048FDF77BFF0820ADF81800E0
:102B600004208DF81B0006A92B48FDF771FF4FF4D8
:102B7000165002900020ADF80C00ADF80E00ADF834
:102B80001000ADF814000C20ADF8120002A9234883
:102B900000F026FA012240F22551204800F0FBF90E
:102BA00001211E4800F0B4F902A91D4800F018FAEE
:102BB000012240F225511A4800F0EDF9012260216E
:102BC000174800F0E8F901222821154800F0E3F940
:102BD0000121134800F09CF925208DF80400002005
:102BE0008DF805008DF8060001208DF8070001A87A
:102BF000FEF716FA26208DF8040002208DF8050055
:102C000000208DF8060001208DF8070001A8FEF7CE
:102C100007FA07B000BD000000080140003801407D
:102C20000044004070B51F48048804F0200020B123
:102C30001D480068401C1C49086004F0080020B1D1
:102C40001A480068401C1949086004F0020020B1CD
:102C500017480068401C1649086004F0040020B1C1
:102C600014480068401C1349086004F0010020B1BA
:102C700011480068401C1049086004F00F0028B19A
:102C8000084800880748001D008870BD04F0200037
:102C900030B10448001D0088C5B2284600F08EF807
:102CA00000BFF2E7004400409C000020A400002088
:102CB000A8000020AC000020B000002008B534E0DF
:102CC0001D480078D0B99DF80000AA2805D01B48FF
:102CD0000068401C1949086027E000201849087066
:102CE0009DF80010164802780078401C144B1870AC
:102CF0001448815401201049087016E09DF8002006
:102D00000F4801780078401C0D4B18700D48425454
:102D1000184600780A2807DB0A4800F015F800205A
:102D2000074908700449087000BF684600F0B0F811
:102D30000028C5D108BD000065000020B4000020B7
:102D400064000020CC01002010B50146164A12781C
:102D5000042A05DB154A1268521C144B1A6010BD78
:102D600000200AE00A5C124B1B7803EB8303114C32
:102D700004EB43031A54421CD0B20A28F2DB0C4A7B
:102D80001278521C0A4B1A701A461278042A01DB78
:102D900000221A70044A1278521C034B1A70012246
:102DA000054B1A7000BFDAE76C000020C00000205D
:102DB0006B00002016020020660000200F490978F1
:102DC000402905DB0E490968491C0D4A116070470E
:102DD0000C490D4A127888540B490978491C0A4A53
:102DE000117011460978402901DB00211170034957
:102DF0000978491C014A117000BFE8E7690000200A
:102E0000C0000020D60100206800002070B50546F3
:102E1000FFF754FF72B61A48007828B90020194904
:102E2000087062B6002070BD00240AE016480078E1
:102E300000EB8000154901EB4000005D2855601C47
:102E4000C4B20A2CF2DB10480078401C0E4908700E
:102E500008460078042801DB002008700848007844
:102E6000401E0749087008460078002801DD01204F
:102E700000E000200349087062B60120D3E700009B
:102E80006C000020660000206A000020160200206E
:102E9000014672B60E48007810B962B6002070473D
:102EA0000C480D4A1278805C08700B480078401C72
:102EB000094A107010460078402801DB002010708D
:102EC00003480078401E024A107062B60120E6E70F
:102ED00069000020D60100206700002010B540F2F4
:102EE00025510A4800F02DF878B1084800F0E4F8C0
:102EF000C4B22146054800F01FF900BF80210348F5
:102F000000F012F80028F9D000BF10BD00480040C2
:102F100021B1828942F40052828104E082894DF617
:102F2000FF731A408281704702460020B1F5007F8E
:102F300000D100BF13880B400BB1012000E000203E
:102F4000704770B50246002400230025002040F69B
:102F50006A16B14200D100BFC1F3421501F01F0350
:102F6000012606FA03F3012D02D19689334006E0CB
:102F7000022D02D1168A334001E0968A33400C12AA
:102F8000012606FA04F41688344013B10CB101206E
:102F900000E0002070BDF0B50346002400260025A7
:102FA000002040F66A17B94200D100BF1846C1F3AD
:102FB000421401F01F06012707FA06F5012C01D182
:102FC0000C3004E0022C01D1103000E014301AB1B2
:102FD00007682F43076002E00768AF430760F0BD52
:102FE0002DE9F04786B005460E460024A24600BFF4
:102FF000A1460027B08900B100BF2F462C8A4CF6AD
:10300000FF700440F08804432C82AC894EF6F31024
:103010000440B08831890843718908430443AC8176
:10302000AC8A4FF6FF400440B0890443AC8201A84B
:10303000FEF754FD1F48874202D1DDF810A001E0E1
:10304000DDF80CA0A88900F4004040B10AEBCA00EA
:1030500000EB0A1031684900B0FBF1F807E00AEB19
:10306000CA0000EB0A1031688900B0FBF1F8642057
:10307000B8FBF0F004012009642101FB1089A88944
:1030800000F4004040B1322000EBC900B0FBF1F089
:1030900000F00700044308E0322000EB091064212F
:1030A000B0FBF1F000F00F0004432C8106B0BDE846
:1030B000F08700000038014001468888C0F308000E
:1030C0007047000070B504460E461948844204D18A
:1030D000FEF724FE1420FDF781FC3146204600F067
:1030E0002BF800F02DFD05460BE01248844208D174
:1030F00000F026FD401B052803D30120FEF7F6FB58
:1031000070BD80212046FFF70FFF0028EDD0084852
:1031100084420BD100BF40212046FFF705FF002865
:10312000F9D01420FDF75AFCFEF7EEFD00BFE7E7EB
:103130000038014000440040C1F30802828070471B
:1031400000BFFEE7002106E00A2100BF0A1EA1F130
:10315000010399B2FAD1021EA0F1010398B2F3D192
:103160007047000010B5044600210D48FFF703FA30
:1031700000210C48FDF720FB0B480A490C31086080
:103180000848001D046001210548FFF7EEF9012100
:103190000448FDF711FB01210148FFF7ECF910BDD0
:1031A00000100040300402402423002010B50446E3
:1031B00000210D48FFF7DFF900210C48FDF7FCFA6C
:1031C0000B480A490C3108600848001D04600121C1
:1031D0000548FFF7CAF901210448FDF7EDFA01217E
:1031E0000148FFF7C8F910BD000C00401C04024064
:1031F000F01E002010B54FF400610A04002009E021
:1032000000F001030BB1134600E00B46034C44F8F9
:103210002030401CFF28F3D910BD0000F01E002014
:1032200010B54FF480610A04002009E000F00103AA
:103230000BB1134600E00B46034C44F82030401C11
:10324000FF28F3D910BD00002423002030B54A1E0A
:10325000D31702EB5373C3F3C704431E154D05EB9D
:1032600043139C76D31702EB5373DB10A2EBC3041A
:103270000123A340DCB2431E05EB4313DC76421E60
:103280002B4603EB4212927E32B90223421E2C4699
:1032900004EB421293760CE0421E064B03EB421203
:1032A000927E022A05D10023421E024C04EB4212F8
:1032B000937630BDFC00002070B54A1ED51702EB96
:1032C0005575C5F3C703D51702EB5575ED10A2EB85
:1032D000C5060125B540ECB2C3F10202027144718A
:1032E00070BD000070B506460C46FE4850F826003A
:1032F000401CFC4941F82600152E6FD00DDC6ED223
:10330000DFE806F02728303877F3F2F16D6D6D6D48
:103310006DF06D6D6DEF6DEEED001C2E79D00BDC58
:10332000A6F116000628EAD2DFE810F02602B30262
:103330005900D002D802F0021F2E6BD004DC1D2EE3
:1033400069D01E2E4BD1D9E2202E7DD07E2EF9D110
:1033500004E050E3002000F04DFC4CE32046FEF773
:103360001DFB48E32146304600F05EFC204601F09C
:103370000DFC40E32146304600F056FC207803283F
:1033800023DAA27861782078FDF758FDA07800282C
:1033900007DD01212078401ED34A02EB4010C175A1
:1033A00006E000212078401ECF4A02EB4010C17594
:1033B00000212078401ECC4A02EB40108176207814
:1033C000401E02EB4010C17612E02078062807DA92
:1033D000A27861782078FDF799FC09E047E109E3DC
:1033E0002078082804DAA27861782078FDF7F4FCC8
:1033F00001E3207803284ADA2146304600F014FC25
:103400002078022808D0A27861782078FDF716FD90
:1034100005E097E2DCE269E2E078B4490880A1784F
:103420002078401EB04A02EB40100183617820787A
:10343000401E02EB4010817500212078401E02EBF7
:1034400040108176207800E09AE2401E02EB4010A6
:10345000C176A07800280CDD01212078401E02EB07
:103460004010C1752078022802D100209F490880B1
:103470007CE02078022802D100209C4908800021AD
:103480002078401E984A02EB4010C1756EE020780B
:10349000062835DA2146304600F0C6FBA27861786E
:1034A0002078FDF733FCA1782078001F00EB400066
:1034B0008F4A02EB4000418061782078001F00EBCA
:1034C000400002F81010A07800280FDD01212078BC
:1034D000001F00EB400002EB4000417046E0AAE014
:1034E000A0E097E043E081E05EE054E00021207836
:1034F000001F00EB40007E4A02EB4000417035E0C7
:103500002078082832DA2146304600F08DFBA27878
:1035100061782078FDF760FC00212078801F754AD3
:103520001154A1782078801F00EB4000724A02EB12
:103530004000418061782078801F00EB400002F855
:103540001010A078002808DD01212078801F00EBF2
:10355000400002EB4000417008E000212078801F0D
:1035600000EB4000644A02EB4000417043E200205F
:103570006070A07020705C48C07D20705A4890F840
:1035800037006070584890F85700A07021463046C8
:1035900000F04AFB2FE22146304600F045FB6178FF
:1035A0002078FDF7EBFB26E22146304600F03CFB9D
:1035B00061782078FDF7E2FB6078217801EB41012A
:1035C0004E4A02EB410188806078002806DD012028
:1035D000217801EB410102F8110006E0002021787A
:1035E00001EB4101454A02F8110004E24448007829
:1035F000207043484078607041488078A070FDF7A3
:1036000081FDE0700020207160712146304600F09D
:103610000BFBF0E13B48007820702146304600F07B
:1036200003FBE8E12146304600F0FEFA617820789D
:10363000FDF723FEDFE12146304600F0F5FA304881
:10364000407800F08100217801F07E0108432C4988
:1036500048700846807800F08100617801F07E01B2
:103660000843274988700846FEF742FDC3E12078E9
:1036700004287CDA2146304600F0D6FAA17820787A
:10368000401E194A02EB4010018361782078401EE9
:1036900002EB40108175A078002806DD012120781A
:1036A000401E02EB4010C17506E000212078401E4C
:1036B0000D4A02EB4010C175E078192805DAA078B0
:1036C00018B1E1782078FFF7C1FDA2786178207801
:1036D000FDF7B4FB2079054908802078401E024997
:1036E00012E00000B8060020FC0000208A00002044
:1036F000B81E002091000020C41E00203E020020C1
:10370000830000208C00002001EB4010807E002808
:1037100031DD2078401E01EB4010807EB749085C07
:103720002178491EB64A02EB4111C97E0840F0B12A
:1037300000212078401E02EB401001832078401EBB
:1037400002EB4010C1752278521EAD4B03EB4212C2
:10375000917D20780022FDF771FB00212078401E2A
:10376000A74A02EB401081762078401E00E002E07C
:1037700002EB4010C1763EE1207806287DDB207800
:1037800008287ADA2078801FC5B2A07805EB4501B9
:103790009C4A02EB41014880607805EB450102F844
:1037A0001100A078002801DD012000E000209649EA
:1037B0004855002005EB4501924A02EB4101087192
:1037C00005EB450102EB41014871A078002814DDAA
:1037D000012005EB450102EB41014870E07800282B
:1037E00012DDE07819280FDAE17805EB4502854B08
:1037F00003EB4200FFF760FD06E0002005EB45010A
:10380000804A02EB410148702146304600F00CFA34
:10381000A27861782078FDF7DFFA05EB4500794959
:1038200001EB40004079002832DD05EB450001EB5B
:10383000400000797149085C05EB4501714A02EBD3
:10384000410149790840C0B1002005EB450102EB78
:103850004101488005EB450102EB4101487005EB51
:103860004502684B13F8121020780022FDF7B4FAD5
:10387000002005EB4501634A00E009E002EB41014D
:10388000087105EB450102EB410148715E4948555D
:10389000B1E02146304600F0C7F920785B49087056
:1038A00008460078642801DD64200870012154482E
:1038B00080F857105548007818B90021504880F812
:1038C000571052480078FDF77FFD94E021463046BE
:1038D00000F0AAF92078FDF78DFD8CE021463046F6
:1038E00000F0A2F92078FDF7ADFD84E021463046D6
:1038F00000F09AF92078FDF7CDFD7CE021463046B6
:1039000000F092F92078FDF7E1FD74E021463046A1
:1039100000F08AF9A1783E48807861F3C7103C49ED
:1039200088700846FEF7E4FB6178237841EA0320BB
:10393000E178C82301FB03F2364B4FF4FA7100F033
:103940008DFD58E0FDF79CFE2146304600F06CF9F5
:10395000A1782F48807861F300002D4988700846CF
:10396000FEF7C6FB6178237841EA0320E178C8239B
:1039700001FB03F2274B4FF4FA7100F0C5FB3AE06C
:1039800061792079FDF74CFED8B12146304600F030
:103990004BF9A1781E48807861F300001C498870BB
:1039A0000846FEF7A5FB6178237841EA0320E17819
:1039B000C82301FB03F2174B4FF4FA7100F0A4FB8C
:1039C00005E0002020712146304600F02DF912E07C
:1039D00000F0ECFA08B9012000E00020207000207F
:1039E0006070A070E070207160712146304600F078
:1039F0001BF900E000BF00BF70BD00008000002088
:103A0000FC000020C41E002091000020880000203F
:103A100083000020A08601002DE9F0470746884674
:103A20003D4646464FF0000C6346644600214FF089
:103A3000804203E0880840EA82719208681A76EBB7
:103A40000200F7D321E013EB010C44EB0200B5EBCD
:103A50000C0C76EB00000FD313EB010944EB0200D2
:103A6000B5EB090566EB000660084FEA330C1CEB6A
:103A7000010340EB020402E064084FEA33034FEA1B
:103A8000910040EA82714FEA92024FF0000C81EA05
:103A90000C0082EA0C0C50EA0C00D4D11846BDE8A8
:103AA000F0870000FEF769FB4FF4A060FDF7F0FA25
:103AB000FCF772FFFEF706FBFEF7B4FAFDF700FA1B
:103AC0001C48FEF715FBFEF7A7F9FEF731F9FEF7E4
:103AD00009FFFDF7D1F8FEF773FCFEF7E7FC164887
:103AE00000F08EFB144800F0C3F9FCF795FF0022AC
:103AF000472140F2E730FEF7A5FBFDF73DFB022131
:103B00000E48FDF784F8FEF7E3FFFDF7A1FE0FE096
:103B100000F0C4FE00F0E2FE00F09EFE00F0AFFEFA
:103B200000F0DEFC00F0E4FC00F030FD00F0B8FD39
:103B3000EEE700008300002000A24A04000C0140D0
:103B40000148006870470000640100202DE9FC4135
:103B5000054600272878AA2806D01E480068401C81
:103B60001C490860BDE8FC81287A552805D01A4810
:103B70000068401C18490860F4E7002403E0285D51
:103B80003844C7B2641C082CF9DD687AB84205D005
:103B900012480068401C11490860E3E76E7810483D
:103BA0000068401C0E4908600E4850F82600401C72
:103BB0000C4941F82600002404E0A01C285C0DF804
:103BC0000400641C062CF8DB69463046FDF752FE03
:103BD00000BFC7E7B4000020B8000020BC000020F0
:103BE000A0000020B802002010B5012000F002F86B
:103BF00010BD00001CB5044600200090019009484B
:103C000000788DF80000074840788DF801000548DD
:103C100080788DF8020022466946012000F020F8E5
:103C20001CBD00008000002070B504460D46002237
:103C30002946204600F014F870BD70B504460D46C4
:103C400002222946204600F00BF870BD70B50446EC
:103C50000D4601222946204600F002F870BD000002
:103C60002DE9F74F84B0044616465848047058486A
:103C70000670FF2057490870022E01D0012000E095
:103C800000208046B8F1000F16D0534850F82400A9
:103C9000401C514941F824003EB9504850F82400D6
:103CA000401C4E4941F8240006E04D4850F82400DD
:103CB000401C4B4941F82400AA208DF804008DF8DF
:103CC0000540002505E00598415DA81C01AA115496
:103CD0006D1C062DF7DB4FF0000955208DF80C0008
:103CE000002505E001A8405D484400F0FF096D1C77
:103CF000082DF7DD8DF80D903A48D0F800B0B8F1F6
:103D0000000F0AD038480470FFF71AFF37490860DF
:103D100037480068401C36490860002719E02D49E3
:103D20000F7001A8C15D3348FFF7CCF92D4800683A
:103D3000584505D0FF202749087007B0BDE8F08F2F
:103D4000B8F1000F04D02C480068401C2A490860D4
:103D50007F1C0A2FE3DB09201E490870FFF7F0FEE5
:103D600082460CE0FFF7ECFEA0EB0A00052806D324
:103D70000220FDF7BBFDFF2016490870DDE740215A
:103D80001C48FFF7D1F80028ECD0FF20114908703B
:103D9000B8F1000F18D019480068401C1749086096
:103DA000FFF7CEFE164908603EB9164850F82400C9
:103DB000401C144941F8240006E0134850F8240040
:103DC000401C114941F8240000BFB6E7EA0000207A
:103DD000EB000020E9000020B80A0020B80E002007
:103DE000B8160020D4000020E4000020D8000020F5
:103DF000C800002000440040D0000020CC0000207B
:103E0000DC000020B8120020B81A00207CB505465E
:103E10000C460020009001908DF800508DF8014074
:103E200001208DF8040069461620FFF70FFF7CBDC6
:103E30007CB50646FEF786FD04460C48008885B230
:103E400020128DF80000E0B28DF8010028128DF8E4
:103E50000200E8B28DF8030000208DF804008DF810
:103E6000050069463046FFF7F1FE7CBD8C0000205E
:103E700010B590B004464248046001210820FDF7C7
:103E8000F7FD01211020FDF7E3FD01210220FDF7E0
:103E9000CFFD4FF48060ADF83C0003208DF83E006C
:103EA00010208DF83F000FA93648FCF7D1FD4FF4E4
:103EB00080613448FCF7A9FEFFF7B2F90020ADF8A5
:103EC0003000ADF832004FF47A70ADF834000020C5
:103ED000ADF836008DF838000CA92B48FEF7A6FC8B
:103EE0002A48FCF775FC27481030019028480290BA
:103EF000102003900001049000200590802006907F
:103F00008000079080000890002009904FF4005036
:103F10000A9000200B9001A91C48FCF71EFD01220D
:103F200002211A48FCF710FD3A208DF8000001200C
:103F30008DF8010002208DF8020001208DF80300A9
:103F40006846FDF76DF8012211020F48FEF72EFBBF
:103F500000210D48FEF70FFB00210C48FCF72CFC5C
:103F600000200C4908700C4908700C4908600C4985
:103F700008600C4908700C49087010B010BD0000B2
:103F800094010020000C0140001000403004024069
:103F9000242300209C0100209E010020A00100207D
:103FA00098010020102300209D0100200148007886
:103FB000704700009C0100202DE9F04F8BB00646B1
:103FC000894615469A4616B90BB0BDE8F08F05B97B
:103FD0000125B9F1000F01D14FF00109A94500D920
:103FE000A946BAF1000F01D14FF0010A424806601C
:103FF0000020414948600846C0F80890C560C0F8F4
:1040000010A0A9FB09780220A0FB0A020023A0FB54
:10401000061C02FB06C200FB0320C91940EB080086
:104020000222CDE9021008460399FCF70FF9CDE909
:104030000801DDE90801FFF7EFFC0446AC4200D9B6
:104040002C4604B901242C4844610220A0FB0A102C
:10405000CDE90210A4FB0410C91B60EB0800CDE9F8
:104060000010084601A90EC9FCF7F0F82249886142
:104070000220A0FB0A10CDE90210A4FB0410CDE938
:104080000010084601A90EC9FCF7E0F81A49C861FA
:104090000846C06908B90120C861002000F0AEFCE4
:1040A0008346BBF1000F01D14FF0010B1348C0F85C
:1040B00000B04FEA4B000790079800F05FFC0E48F5
:1040C00000680D494968401A06900698802801D971
:1040D000802000E006980590059841000491012099
:1040E00007490870022007490870049988B2FFF751
:1040F00039F800BF68E7000024270020980100205D
:104100009C0100209E0100202DE9F04106460D464D
:1041100014461F461EB900F027F8BDE8F08104B927
:10412000012405B90125A54200D9254607B9012773
:104130000B4846608560C46007610120084908702B
:10414000084890F80080B8F1000F07D100200870EF
:104150003B46224629463046FFF72EFF00BFDCE7EC
:10416000102300209C01002010B500200B4908708E
:104170000B4908700B4908600B4908600B4908702F
:1041800000210B48FEF7F7F900210A48FCF714FB61
:104190004FF480610848FCF738FD10BD9C010020F9
:1041A0009E010020A0010020980100201023002083
:1041B0000010004030040240000C014010B53A20CD
:1041C00000F01F0301229A400B4B440943F82420BE
:1041D00000BF0A4801780020084A10703A2000F019
:1041E0001F0301229A4043099B0003F1E023C3F817
:1041F000002100BF084610BD80E100E09D010020C5
:1042000010B590B004463E48046001210820FDF737
:104210002FFC01210820FDF71BFC01210220FDF7E6
:1042200007FC4FF40060ADF83C0003208DF83E0021
:1042300010208DF83F000FA93248FCF709FC4FF41D
:1042400000613048FCF7E1FCFEF7D4FF0020ADF838
:104250003000ADF832004FF47A70ADF83400002031
:10426000ADF836008DF838000CA92748FEF7DEFAC5
:104270002648FCF7ADFA23481030019024480290FC
:1042800010200390000104900020059080200690EB
:104290008000079080000890002009904FF40050A3
:1042A0000A9000200B9001A91848FCF756FB012248
:1042B00002211648FCF748FB39208DF80000012048
:1042C0008DF801008DF802008DF803006846FCF7B8
:1042D000A7FE012211020C48FEF768F900210A48E6
:1042E000FEF749F900210948FCF766FA0020094960
:1042F0000870094908700949086010B010BD000035
:1043000084010020000C0140000C00401C0402400D
:10431000F01E00208C0100208D0100209001002063
:104320002DE9F04F8BB00646894615469A4616B9D8
:104330000BB0BDE8F08F05B90125B9F1000F01D12F
:104340004FF00109A94500D9A946BAF1000F01D1E2
:104350004FF0010A3E48066000203D49486008468B
:10436000C0F80890C560C0F810A0A9FB0978022029
:10437000A0FB0A020023A0FB061C02FB06C200FBF6
:104380000320C91940EB08000222CDE902100846BB
:104390000399FBF75BFFCDE90801DDE90801FFF7B1
:1043A0003BFB0446AC4200D92C4604B90124284802
:1043B00044610220A0FB0A10CDE90210A4FB041006
:1043C000C91B60EB0800CDE90010084601A90EC921
:1043D000FBF73CFF1E4988610220A0FB0A10CDE9D3
:1043E0000210A4FB0410CDE90010084601A90EC973
:1043F000FBF72CFF1649C8610846C06908B90120BF
:10440000C861002000F05EFB83464FEA4B00079036
:10441000079800F073FA0E4800680D494968401A81
:1044200006900698802801D9802000E00698059023
:1044300005984100049101200649087002200649B0
:104440000870049988B2FEF7B1FE00BF70E7000063
:10445000F02200208C0100208D0100202DE9F04188
:1044600007460C4615461E460A4847608460C560EC
:1044700006610120074908700748007838B9002014
:10448000087033462A4621463846FFF749FFBDE803
:10449000F0810000DC1E00208C01002010B50020FF
:1044A000094908700949087009490860002109484C
:1044B000FEF761F800210848FCF77EF94FF400612F
:1044C0000648FCF7A2FB10BD8C0100208D010020E6
:1044D00090010020000C00401C040240000C014030
:1044E00010B50248FDF7B4FD10BD000080000020AB
:1044F00010B52348007868B922480078224908702E
:104500002048407848701F488078887001201C49F6
:10451000087010BD1C4800781A49097888420CD1EF
:104520001948407817494978884206D1164880785A
:1045300014498978884200D1EBE713480078114983
:10454000097888420DD1104840780E494978884250
:1045500007D10D4880780B498978484000F0FE006B
:1045600008B1FFF741FB0748007807490870054884
:104570004078487003488078887000BFC9E7000021
:104580005F000020800000205C00002010B50024A7
:1045900034E03F4800EB4410008B00282CDD3C4801
:1045A00000EB4410C07E002826DD394800EB4410A3
:1045B000807E3849085C364901EB4411C97E0840C9
:1045C000D0B10020324901EB44110883304901EB9E
:1045D0004411C8752E4A02EB4412917D621CD0B280
:1045E0000022FCF72BFC0020294901EB44118876BE
:1045F000274901EB4411C876601CC4B2032CC8DB08
:10460000002442E004EB4400234901EB40004088D1
:10461000002838DD04EB440001EB4000407900281D
:1046200031DD04EB440001EB400000791949085CDE
:1046300004EB4401184A02EB41014979084010B3E8
:10464000002004EB440102EB4101488004EB4401EB
:1046500002EB4101487004EB44020F4B13F81210B7
:10466000A21DD0B20022FCF7B7FB002004EB4401EE
:10467000094A02EB4101087104EB440102EB4101DC
:10468000487106490855601CC4B2022CBADB10BD43
:10469000FC00002080000020C41E002091000020AB
:1046A00010B56748007800B910BD00206449087053
:1046B000002425E004EB4400624911F81000E8B141
:1046C00004EB440001EB40008088002816DD04EB79
:1046D000440001EB40008088401E80B204EB44019E
:1046E000584A02EB4101888040B9002004EB4401A4
:1046F00002F8110000212046FCF740FB601CC4B208
:10470000102CD7DB002429E04F4800EB4410008B2D
:10471000002821DD4C4800EB4410008B401E80B285
:10472000494901EB44110883B0B90020464901EB27
:104730004411C875444A02EB4412917D621CD0B208
:104740000022FCF77BFB00203F4901EB44118876F7
:104750003D4901EB4411C876601CC4B2032CD3DB85
:10476000002468E004EB4400384901EB4000408835
:1047700000281DDD04EB440001EB40004088401E92
:1047800080B204EB4401314A02EB4101488078B920
:10479000002004EB440102EB4101487004EB4402A9
:1047A0002A4B13F81210221DD0B20022FCF7AEFAE9
:1047B00004EB4400264901EB40004088002838DD26
:1047C00004EB440001EB40004088401E80B204EB43
:1047D00044011F4A02EB4101488050BB002004EB1A
:1047E000440102EB4101487004EB4402184B13F8FA
:1047F0001210A21DD0B20022FCF7EEFA002004EB4A
:104800004401134A02EB4101087104EB440102EB3D
:10481000410148710F48005D40B104EB44020C4B6C
:1048200013F81210A21DD0B2FFF7F0FA00200949C8
:104830000855601CC4B2022C94DB00BF34E70000B2
:10484000680100203E020020FC000020B81E00206D
:10485000C41E0020910000203EB5002406E06946F9
:104860009DF80800FEF73EFD601CC4B2082C05D27E
:10487000694602A8FDF7A6F80028F0D13EBD1CB598
:10488000002000900190FFF799FC30B101208DF8D5
:10489000000069461F20FFF7D9F91CBD70B5FFF76E
:1048A0004FF904460B480068201AB0F57A7F00D211
:1048B00070BD08480460FCF7AFF90546284600F0D3
:1048C000B5FA80B2044908600020FFF7B1FA00BFD2
:1048D000EEE70000600000208C0000203EB50024C0
:1048E00004E06846FFF732F9601CC4B2082C04D219
:1048F0006846FEF78BFA0028F3D13EBD2DE9F04162
:10490000044604B9012400261A480068B0FBF4F5F7
:1049100005B901256F1EB7F5803F17D3200415494F
:104920000968B1FBF0F6B6F5803F01D34FF6FF768C
:10493000701C60430F490968B1FBF0F505B901250A
:104940006F1EB7F5803F01D34FF6FF77B1B201225A
:104950000948FDF75CFFB9B20748FDF75BFF00218E
:104960000548FDF760FF01210348FDF728FEBDE87B
:10497000F081000084010020000C00402DE9F0418E
:10498000044604B9012400261A480068B0FBF4F577
:1049900005B901256F1EB7F5803F17D320041549CF
:1049A0000968B1FBF0F6B6F5803F01D34FF6FF760C
:1049B000701C60430F490968B1FBF0F505B901258A
:1049C0006F1EB7F5803F01D34FF6FF77B1B20122DA
:1049D0000948FDF71CFFB9B20748FDF71BFF00218E
:1049E0000548FDF720FF01210348FDF7E8FDBDE87C
:1049F000F081000094010020001000402DE9F05FDC
:104A000082462F48D0F800905546B9F1000F02D1E8
:104A10000120BDE8F09FA94502D9A9EB050000E0FF
:104A20000020804626488069A84224D9244880680E
:104A300023498968A0FB01010222214B1B69A2FBCB
:104A400003234FF0000CA2FB05BE03FB05E302FBB2
:104A50000C3210EB0B0641EB020730463946FEF7ED
:104A6000DBFF044616484169A14200D2446904B9FB
:104A700001242046CDE71248C06940451DD30220DD
:104A80000F490969A0FB01120023A1FB086C02FB7E
:104A900008C201FB032730463946FEF7BDFF044636
:104AA000B8F1000F01D004B9012405484069A042C3
:104AB00001D2034844692046ABE701484069A8E7B2
:104AC000242700202DE9F05F82462F48D0F800907F
:104AD0005546B9F1000F02D10120BDE8F09FA9456C
:104AE00002D9A9EB050000E0002080462648806935
:104AF000A84224D92448806823498968A0FB010181
:104B00000222214B1B69A2FB03234FF0000CA2FBE6
:104B100005BE03FB05E302FB0C3210EB0B0641EB79
:104B2000020730463946FEF777FF044616484169CA
:104B3000A14200D2446904B901242046CDE71248BD
:104B4000C06940451DD302200F490969A0FB01122D
:104B50000023A1FB086C02FB08C201FB03273046BF
:104B60003946FEF759FF0446B8F1000F01D004B9E9
:104B7000012405484069A04201D203484469204607
:104B8000ABE701484069A8E7F022002010B50446D1
:104B900020780C49087060784870A07888700846C2
:104BA00001780948FEF78EFA064841780648FEF774
:104BB00089FA044881780448FEF784FA0148FDF731
:104BC00097FA10BD830000200044004090EA010FD6
:104BD00048BF81F0004100F1AE82421A3CBF801A0A
:104BE00089184FEAD0524FF07F4C1CEA410FA2EBDC
:104BF000D15318BF9CEA026F00F03B804FF0004C8D
:104C00004CEA00204CEA012121FA03FC10EB0C0CC9
:104C10001ED202F1FF325FEA1C2040EBC25038BFC7
:104C200070471CF07F0F4FEA400C18BFBCF17F4F5C
:104C300038BF7047C3F12003994008BF20F001003E
:104C4000BCF17F4F38BF7047A0F1C04000F035BACB
:104C50004FEA3C00000A40EBC25028BF1CF0FF0F97
:104C60004FEA400CE6D018BFBCF17F4F38BF704709
:104C7000EAE79CEA026F05D010EA5C0F08BF00F07B
:104C80000040704710B500F0D2F900BF64FBBE3E93
:104C9000401058BFC0F14040491058BFC1F14041D9
:104CA0008142EFF3008070474FF47F0C1CEAD01272
:104CB0001EBF1CEAD11392EA0C0F93EA0C0F00F00E
:104CC000858090EA010F48BF42F4807240F4000CE6
:104CD00041F400002CF07F4120F07F4000B581427C
:104CE000A2EB03020FF2081CACEB504EC0F1000027
:104CF0009EF800E04FEA4E0E00FB0EFC38BF490064
:104D00004FEA2C1C02F5FA020CFB0EF34FEACE1E02
:104D10004FEA112C4FEAC1210EEB635E42EB2242B7
:104D20000EFB0CFC4FEA1C5300FB03114FEA112C45
:104D30004FEA01310EFB0CFC4FEADC4C00FB0C117E
:104D4000C14228BF09184CEB03335DF804EB10EBAC
:104D5000410143EBC250B2F57C0F38BF704729D5F3
:104D600012F0F00F1CBF00F1C04000F0004070478F
:104D7000008182838485868788898B8C8D8E8F9134
:104D80009293959697999A9C9D9FA0A2A3A5A7A858
:104D9000AAACAEB0B2B3B5B7B9BCBEC0C2C5C7C984
:104DA000CCCED1D4D7D9DCDFE2E6E9ECF0F3F7FAE8
:104DB000FE0000004FEA400C0CF1807CBCF17E4FFD
:104DC00028BF7047B0F1C04000F077B990EA010FFA
:104DD0000CEAD11348BF42F48072624538BF634584
:104DE00007D213F47F0F16D080EA010000F00040D4
:104DF000704710B500F01BF9097EFC3E00F005B8C5
:104E000080EA010000F00040704780EA010000F0F5
:104E1000004000F052B912F47F0F04BF02487047FF
:104E200080EA010000F049B90000C07FC10DD1F156
:104E30009E0206DB4FEA002343F0004323FA02F010
:104E40007047004207D54FEA4001B1F1FE4F02D250
:104E50004FF00000704710B500F0E9F84992248047
:104E6000002070476FEA20007047000010F00041FA
:104E700048BF4042B0FA80F310FA03F2C3F19D0339
:104E80000BD051EAC35101EB1220530638BF7047D3
:104E900000F1010008BF20F001007047B0FA80F374
:104EA00010FA03F2C3F19D030AD0D90501EB1220D9
:104EB000530638BF704700F1010008BF20F0010021
:104EC0007047000050EA010C00F113801CF5000F40
:104ED00058BFBCF5000F01D48842704707D710F5C2
:104EE000000F58BF11F5000F15D488427047894252
:104EF00070471CF5000F04D5BCF5000FF7D58142B3
:104F000070474FF0807C1CEB400F38BF1CEB410F0B
:104F100001D28142704710B500F089F8922449000F
:104F20004FF000504FF08051FFF7B2BE4FF47F0CAE
:104F30001CEAD0121EBF1CEAD11392EA0C0F93EAAE
:104F40000C0F00F0478090EA010F48BF42F48072D6
:104F50004FF0004C4CEA00204CEA012102EB030226
:104F6000A0FB0113A2F50002002918BF43F00103C2
:104F70005B0028BF4FEA330342EB22425FEA132C67
:104F80004CEBC2502EBFBCEB436FB2F57C0F7047A9
:104F90004FEA036CBCF1004F08BF20F00100B2F5EE
:104FA0007C0F38BF70470BD582F0FF0212F5803FAF
:104FB000C8BF704700F1C040D8BF00F00040704744
:104FC00000F5000C5FEA4C0C48BF7047B0F1C040E0
:104FD00000F073B890EA010F0CEAD11348BF42F415
:104FE0008072624538BF634504D280EA010000F058
:104FF0000040704710B500F01AF800BF8900013E6C
:1050000000F007B800F009B85FEA410C5FEA1C6CD9
:1050100008D080EA010000F050B85FEA400C5FEA77
:105020001C6CF6D14FF00040A0F5800070470EF1E7
:10503000020E2EF0030E5EF8044B244204D44FEA15
:105040004102B2F17F4F11D84FEA4003B3F17F4FD5
:105050000CD80ED14FEAD07CB2F17F4F0CEB4C0C48
:105060000CF1020C08BF4CEBD17C04E04FF0080CB3
:1050700001E04FEAD17C0CEB4C0324FA03F404F07A
:105080000704B4F1040C06D20EEB840CBDE810400A
:105090004CF0010C6047DFE80CF0070802024FF00B
:1050A0000040A0F5800010BD0846420018BFD2F1B4
:1050B000807288BF00F0004010BDFF2141EAD0504F
:1050C000C005704751EA000C00F113801CF5000F79
:1050D00058BFBCF5000F01D48142704707D711F5C6
:1050E000000F58BF10F5000F15D481427047894258
:1050F00070471CF5000F04D5BCF5000FF7D58842AA
:1051000070474FF0807C1CEB410F38BF1CEB400F09
:1051100001D28842704780EA010081EA000180EAFA
:105120000100FFF7F8BE000090EA010F48BF81F0D0
:1051300000413FF552AD421A04D882F00042A0EB84
:10514000020011444FEAD0524FF07F4C1CEA410F4D
:10515000A2EBD15318BF9CEA026F4AD04FF0004C2B
:105160004CEA00204CEA012121FA03FCB0EB0C0CC4
:105170000FD412F0FE0F36D05FEA4C001DD500129E
:1051800040EBC25038BF70471CF03F0F18BF70474C
:105190000BE0A2F101025FEA1C2040EBC25038BFD5
:1051A00070471CF07F0F18BF7047C3F12003994070
:1051B00014BF401E20F00100704780084FEA122300
:1051C00008BF7047B0FA80FCA2EB0C02CCF1280CAF
:1051D00060FA0CF093EA122F04BF00EBC250704744
:1051E0004FEAC3707047130A5FEADC1008BF7047CC
:1051F000F6E79CEA026F04D010EA5C0F08BF0020BB
:10520000704710B5FFF713FF40DFF63E81F0004016
:10521000704700003452000800000020CC0100005C
:105220006C01000894520008CC010020DC2B000027
:10523000C801000851140C0140321013010935E86F
:1052400003E803C264B304D0292C0A18202CAA0353
:105250002C01A01A10CC5A40084A8008DA01205AC2
:1052600002085A0408C2085A0C3019185A2010397A
:105270003001276A32063BA24A5F9109191068097A
:1052800001020304060708090C6910050002040660
:045290000800000012
:0400000508000131BD
:00000001FF
