:020000040800F2
:10000000E83600200D0200089D0E0008E70C0008ED
:10001000DD0D0008B30300081135000800000000E2
:10002000000000000000000000000000BD200008EB
:100030006B0A000800000000F9120008E52500081E
:1000400027020008270200082702000827020008EC
:1000500027020008270200082702000827020008DC
:1000600027020008270200082702000827020008CC
:1000700027020008270200082702000827020008BC
:1000800027020008270200082702000827020008AC
:10009000270200082702000827020008270200089C
:1000A000270200082702000827020008270200088C
:1000B0007527000815280008A12800082702000855
:1000C000270200082702000827020008270200086C
:1000D00027020008192D00084D310008DD31000805
:1000E000270200082702000827020008270200084C
:1000F000270200082702000827020008270200083C
:10010000270200082702000827020008270200082B
:10011000270200082702000827020008270200081B
:1001200027020008B903000845060008DD0700089B
:1001300000F002F800F05AF80AA090E8000C82449F
:100140008344AAF10107DA4501D100F04FF8AFF27C
:10015000090EBAE80F0013F0010F18BFFB1A43F0A5
:1001600001031847184A0000384A00000A444FF0BB
:10017000000C10F8013B13F0070408BF10F8014B06
:100180001D1108BF10F8015B641E05D010F8016B4B
:10019000641E01F8016BF9D113F0080F1EBF10F8AF
:1001A000014BAD1C0C1B09D16D1E58BF01F801CBD2
:1001B000FAD505E014F8016B01F8016B6D1EF9D555
:1001C0009142D6D37047000000230024002500266A
:1001D000103A28BF78C1FBD8520728BF30C148BFAA
:1001E0000B6070471FB51FBD10B510BD00F0A8F81B
:1001F0001146FFF7F7FF03F09BFC00F0C6F803B4CD
:10020000FFF7F2FF03BC00F0CDF80000094880477B
:1002100009480047FEE7FEE7FEE7FEE7FEE7FEE7E8
:10022000FEE7FEE7FEE7FEE704480549054A064B00
:10023000704700004926000831010008E83000201E
:10024000E8360020E8320020E832002053EA020CB1
:1002500000F069802DE9F04B4FF00006002B1FBF26
:10026000B3FA83F503FA05F424FA05F65E4012BFEB
:100270001643B2FA82F502FA05F4C5F120051EBF55
:1002800022FA05FC44EA0C04203556EA044C4FEAF5
:10029000144418BF641C4FF000084FF0000990424E
:1002A00071EB030C39D3002919BFB1FA81F701FAB8
:1002B00007F6B0FA80F700FA07F6C7F120071EBF6D
:1002C00020FA07FC46EA0C062037B6FBF4FCA7EB45
:1002D0000507103F07F01F0BCBF120060CFA0BFBB4
:1002E0002CFA06F644BFB3460026202FA4BF5E4674
:1002F0004FF0000B5BEA060C08BF4FF0010B19EB47
:100300000B09ABFB027C48EB0608C01B06FB02CCCA
:100310000BFB03CC71EB0C01C1E70B4602464146D7
:100320004846BDE8F08B13B54FF000004FF00001D8
:10033000AFF30080BDE81C407047704770477047BE
:10034000754600F02BF8AE4605006946534620F08E
:100350000700854618B020B5FFF766FFBDE82040CE
:100360004FF000064FF000074FF000084FF0000B71
:1003700021F00701AC46ACE8C009ACE8C009ACE824
:10038000C009ACE8C0098D46704710B50446AFF30C
:1003900000802046BDE81040FFF731BF004870479D
:1003A0008830002001491820ABBEFEE7260002007D
:1003B000704700BFFEE700002DE9F04F8BB09A4870
:1003C00000F016FB10B90BB0BDE8F08F964800F0B6
:1003D0004FFA9648007810B904F072F8F3E79448A1
:1003E000007800287ED09248406807909048866840
:1003F000D0F80C900069069000208D4908708D4857
:10040000006838B18B4806684E4500D94E4636B96B
:10041000012604E006B901264E4500D94E4607984C
:1004200010B904F04DF8CEE7834907980860002022
:10043000486008468660B9F1000F01D1012000E054
:1004400048467D49C860069808B9012000E0069832
:1004500079490861084680688968A0FB0170804678
:10046000022075490969A0FB0123734800684FF019
:10047000000CA2FB001E03FB00E002FB0C00C919EC
:1004800040EB080002226346CDE9021008460399BA
:10049000FFF7DCFECDE90401DDE9040103F002FB16
:1004A00005466548C068A84201D26348C56805B9D9
:1004B00001256148456102205F490969A0FB0110DF
:1004C000CDE90210A5FB0510C91B60EB0800CDE9C2
:1004D0000010084601A90EC9FFF7B8FE5649886109
:1004E000022000E03CE00969A0FB0101CDE9020126
:1004F000A5FB0510CDE90010084601A90EC9FFF7BC
:10050000A5FE4D49C8610846C06908B90120C86107
:1005100002204A490870012044490870002004F074
:100520006BF9044604B90124424804606000089055
:10053000089804F07DF8404800683F494968A0EBFE
:10054000010ABAF1800F01D9802000E050460A90DC
:100550000A9841000991099988B203F00FF832E72F
:1005600036480078012818D13548006810B903F0E2
:10057000A7FF28E73248D0F800B0BBF5807F01D94B
:100580004FF4807B2E480068A0EB0B002C490860DC
:100590001FFA8BF002F0F2FF15E7284800780228D6
:1005A0003DD12548006824494968A0EB010ABAF109
:1005B000800F01D9802000E050460A901E48416813
:1005C0000A9808441C4948600846406809688842FF
:1005D00002D303F075FFF6E61749486804F00CF9FA
:1005E000044604B901241348046060000890089888
:1005F00004F01EF8104800680F494968A0EB010A92
:10060000BAF1800F01D9802000E050460A900A9884
:1006100041000991099988B202F0B0FFD3E603F0D6
:100620004FFF00BFCFE6000020000010680100204F
:10063000F8230020640100200C280020690100201C
:100640006C0100202DE9FC5F5B4800F0D1F908B98E
:10065000BDE8FC9F584800F00BF95848007810B9E5
:1006600003F0B6FDF4E75648007830B35448D0F8AC
:1006700004A08568C6680069009000205049087091
:100680005048006838B14F480568B54200D9354632
:1006900035B9012504E005B90125B54200D9354633
:1006A000BAF1000F02D103F093FDD1E7324629469B
:1006B0005046009B03F0ACFCCAE743480078012891
:1006C00029D1802441480068A04201D23F480468F3
:1006D0003F48006820443E4908603C480068001BD1
:1006E0003A4908603B48006810B903F071FDAFE774
:1006F0003848D0F80080B8F5807F01D94FF4807871
:1007000034480068A0EB0800324908601FFA88F0FE
:1007100002F010FF9CE72C480078022847D12E48B1
:1007200000682D494968A0EB0109B9F1800F01D992
:10073000802000E048460446274840682044264977
:1007400048600846406822490860234800682249FA
:100750004968401A1D4908601F4840681E490968D9
:10076000884202D303F034FD72E71B49486803F066
:10077000DFFF074607B9012712480760780001909C
:10078000019803F095FF1448006813494968A0EBED
:100790000109B9F1800F01D9802000E048460446E4
:1007A0004FEA440B1FFA8BF002F0C4FE50E703F04F
:1007B0000FFD00BF4CE70000000200107801002090
:1007C0002C280020740100208401002080010020DA
:1007D0007C01002088010020402C002010B5224818
:1007E00000F006F900B910BD1F4800F041F81F489D
:1007F000C0691E49896808441C49C86108464068A8
:100800008968401A194948600846406810B900F0E4
:10081000C7FCE8E715484068802806D8032013493C
:1008200048750846006AC8600BE01048C0680F4968
:100830000969884205D20D4800690C49C860022048
:1008400048750A49C968480000F0B4FB0748406889
:10085000802801D9802001E00448406804462046F1
:1008600000F060FB00BFBEE700200010602C0020FD
:1008700000F0805111B10349086001E0024948606D
:1008800070470000040402400000024021B10268E9
:1008900042F00102026004E002684FF6FE731A4063
:1008A0000260704701684FF6FE721140016000213E
:1008B000016041608160C1604B49884208D14A496A
:1008C0000839496841F00F01474A083A51608AE007
:1008D00045491431884208D143490839496841F0F3
:1008E000F001414A083A51607DE03F492831884291
:1008F00008D13D490839496841F470613A4A083ADB
:10090000516070E038493C31884208D13649083995
:10091000496841F47041344A083A516063E0324911
:100920005031884208D130490839496841F4702172
:100930002D4A083A516056E02B496431884208D16B
:1009400029490839496841F47001274A083A516039
:1009500049E025497831884208D123490839496856
:1009600041F07061204A083A51603CE01F498842DA
:1009700006D1011F096841F00F01021F116032E02A
:100980001A491431884208D11849091F096841F0F1
:10099000F001164A121F116025E0144928318842DF
:1009A00008D11249091F096841F470610F4A121FEA
:1009B000116018E00D493C31884208D10B49091FEC
:1009C000096841F47041094A121F11600BE00749A0
:1009D0005031884207D10549091F096841F4702147
:1009E000024A121F116070470800024008040240CA
:1009F00001460020002201F0805313B1054B1A6814
:100A000001E0054B1A6802EA01030BB1012000E086
:100A10000020704700040240000002401AB1036841
:100A20000B43036002E003688B430360704710B51B
:100A30000022026847F6F0739A430C6A8B682343DE
:100A40000C6923434C6923438C692343CC692343BA
:100A50004C6A23438C6A23431A430260CB68436089
:100A60000B6883604B68C36010BD704710B56FF0B2
:100A7000040001F0A3FD0A4800680A49B0FBF1F048
:100A8000094908700846007800EB4001C1EBC0102E
:100A90004FF6FF7101EAC0000449088010BD000054
:100AA0008C01002000127A000000002002000020CB
:100AB00001460D4A12784A434FF0E0235A61002262
:100AC0009A6101221A6100BF4FF0E022106900F024
:100AD00001021AB100F48032002AF5D000224FF052
:100AE000E0231A619A6170470000002008B50121D7
:100AF000092000F0B5FD0121084800F09FF8012011
:100B0000ADF8000003208DF8020018208DF80300D6
:100B10006946034800F006F808BD000040001600D2
:100B2000000C01402DE9F04102460025002600207E
:100B300000230024002791F803C00CF00F0591F862
:100B400003C00CF0100CBCF1000F03D091F802C0F0
:100B50004CEA050591F800C0BCF1000F31D01468D3
:100B600000202BE04FF0010C0CFA00F3B1F800C0AC
:100B70000CEA03069E4220D183004FF00F0C0CFAC2
:100B800003F7BC4305FA03FC4CEA040491F803C0E4
:100B9000BCF1280F06D14FF0010C0CFA00FCC2F892
:100BA00014C00AE091F803C0BCF1480F05D14FF022
:100BB000010C0CFA00FCC2F810C0401C0828D1D36C
:100BC0001460B1F800C0BCF1FF0F34DD54680020A0
:100BD0002EE000F1080C4FF0010808FA0CF3B1F810
:100BE00000C00CEA03069E4221D183004FF00F0C97
:100BF0000CFA03F7BC4305FA03FC4CEA040491F831
:100C000003C0BCF1280F05D100F1080C08FA0CF85C
:100C1000C2F8148091F803C0BCF1480F07D100F16D
:100C2000080C4FF0010808FA0CF8C2F81080401CBC
:100C30000828CED35460BDE8F0810000F0B50A4624
:100C4000002300240021002500F00046B6F1004FEB
:100C500002D11D4EF16901E01B4E7168C0F30345DE
:100C600083B200F44016B6F5401F08D121F0706140
:100C7000154E766826F07066134F7E6012E000F421
:100C80008016B6F5801F06D1032606FA05F4A143A7
:100C900041F0706106E0460D360103FA06F6B143F5
:100CA00041F0706122B1460D360103FA06F6314378
:100CB00000F00046B6F1004F02D1034EF16101E0B1
:100CC000014E7160F0BD00000000014002460020AE
:100CD00093680B400BB1012000E000207047416198
:100CE00070470161704700BFFEE7000070B5042146
:100CF0001448FFF7F4FF4FF47A70FFF7D9FE01F0C4
:100D0000B4F905464FF47A70FFF7D2FE04210D487E
:100D1000FFF7E7FF05F4803008B10B4870BD43F6DC
:100D2000FF7000EA954404F4005010B144F44040D0
:100D300004B2204603F0E4FD06464FF07A5103F07A
:100D4000F7FDEBE7000C014000007AC408B5012173
:100D5000182000F085FC4020ADF8000010208DF830
:100D6000030003208DF8020069461A48FFF7DAFEF7
:100D70000420ADF8000010208DF8030003208DF84A
:100D8000020069461448FFF7CDFE8020ADF8000050
:100D900010208DF8030003208DF8020069460D48ED
:100DA000FFF7C0FE4FF48070ADF8000004208DF80E
:100DB000030069460748FFF7B5FE40210548FFF7E5
:100DC00090FF04210448FFF78CFF80210148FFF7C2
:100DD00086FF08BD00100140000C014000BFFEE787
:100DE000002016E001212A4A02EB401291750021F1
:100DF000274A02EB40121183254A02EB4012D175BB
:100E0000234A02EB40129176214A02EB4012D1763E
:100E1000401C0328E6DB002036E0012100EB400205
:100E20001C4B03F81210002100EB400203EB4202BE
:100E3000518000EB400203EB4202517000EB400294
:100E400003EB4202117100EB400203EB42025171CD
:100E5000012100EB4002104B03F81210002100EBBF
:100E6000400203EB4202518000EB400203EB4202DE
:100E7000517000EB400203EB4202117100EB4002A3
:100E800003EB42025171401C0228C6DB7047000090
:100E9000C8000020502200205C2200207047000083
:100EA00070B5002100230F22C47804B3154C2468C8
:100EB00004F4E064C4F5E064210AC1F10403CA400B
:100EC000447804FA03F184781440214309010E4C5C
:100ED0000678A155047804F01F050124AC4005787C
:100EE0006D11AD0005F1E025C5F8004109E0047879
:100EF00004F01F050124AC40044D0678761145F836
:100F0000264070BD0CED00E000E400E080E100E070
:100F100002490143024A1160704700000000FA05CF
:100F20000CED00E010B504460021124801F0F1FC80
:100F300000211148FFF7AAFC1048FFF799FC012196
:100F40000C4801F0E0FC0E4884600E480A490C3160
:100F500008604FF6FF7000EA44000749091D086069
:100F600001210548FFF792FC0121024801F0D1FC64
:100F700010BD000000140040440402400020001096
:100F8000602C0020882C002010B5044634B108489D
:100F9000407840F040000649487005E00448407839
:100FA00000F0BF0002494870014801F063F910BD2C
:100FB0005600002070B5054605B901250C48B0FB68
:100FC000F5F404B90124B4F5803F01D94FF480341D
:100FD00001220021074801F0E8FD601E81B20548AA
:100FE00001F0E6FD0021034801F0EBFD70BD0000BB
:100FF00000A24A040014004010B590B0012108205E
:1010000000F02EFB0121202000F01AFB012102201C
:1010100000F006FB4FF40050ADF83C0003208DF8C3
:101020003E0010208DF83F000FA93348FFF77AFDEE
:101030004FF400513048FFF752FE00240BE004F05B
:10104000010010B14FF0005001E04FF400502B4967
:1010500041F82400641CFF2CF1D90020ADF83000C9
:10106000ADF8320040F2E730ADF834000020ADF8C2
:1010700036008DF838000CA9214801F0A5FD0122A9
:1010800011021F4801F060FC1E48FFF70BFC1A48D4
:101090001030019019480290102003900001049034
:1010A0000020059080200690800007908000089026
:1010B000002009904FF400500A9000200B9001A9E5
:1010C0001048FFF7B4FC012202210E48FFF7A6FCEE
:1010D0003B208DF8000001208DF8010003208DF8E1
:1010E000020001208DF803006846FFF7D9FE00F0EA
:1010F00057F810B010BD0000000C0140882C0020F3
:1011000000140040440402402DE9F04705460F4614
:1011100014461E46DDF8208015B11F48007810B136
:101120000020BDE8F08704B90124A64200D226467B
:10113000B8F1000F01D14FF0010800F031F80FB104
:10114000012000E0002014490875087DFFF71CFF0E
:1011500011488561456000200F49C8610846046256
:10116000C4600661C0F824800120487541030B4823
:10117000FFF7B5FD6000FFF71DFF0120064908706D
:10118000802D01D9802000E0284681464846FFF79F
:10119000C9FE0120C5E70000602C0020000C0140C2
:1011A00010B500210B4801F0B4FB00210A48FFF7FD
:1011B0006DFB0A48FFF75CFB0121064801F0A3FB29
:1011C0004FF400510648FFF78AFD002005490870DA
:1011D000487510BD00140040440402400020001077
:1011E000000C0140602C002038B505460C4601215A
:1011F000042000F035FAADF8005003208DF802000D
:101200008DF8034069460248FFF78CFC38BD0000AA
:10121000000801401FB50121052000F021FA00213E
:101220002A48FFF70BFD00212948FFF707FD0021A1
:101230002848FFF703FD40F6030000F04FF868462A
:1012400001F0A9FC6020ADF800000120ADF802001B
:101250000020ADF806000220ADF8080069464007FE
:1012600001F098FB0821C80601F0E0FB69464FF049
:10127000804001F0E5FB0821C80601F033FC694617
:10128000154801F03DFC0821134801F077FC0021CE
:101290004FF0804001F08EFC00214FF0804001F0C3
:1012A0008BFC00210C4801F089FC0121880701F02A
:1012B00054FB0121084801F050FB0121880701F08F
:1012C00028FB0121044801F030FB1FBD000318007A
:1012D0000001180000021800002C014010B504465F
:1012E00010212046FFF780FF21460248FFF7F9FC56
:1012F00010BD000000080140704700007CB50446A6
:101300000020009001901448007800B97CBD02F0E4
:1013100079FE10B900F05AF8F8E710480078205C20
:101320000F490978084008B1012000E00020054677
:101330000C480078854200D0E8E701208DF80000D5
:101340008DF80100084800788DF8020000F03EF8A2
:1013500002F03EFF00BFD9E7C0000020C10000201E
:10136000C2000020C3000020C400002070B5044665
:101370000D460CB1102C03D900F028F8002070BDE8
:10138000601EC0F3C706C6F101000B490870601E5D
:1013900000F0070101208840084908700DB10120C4
:1013A00000E0002006490870064804700120064944
:1013B000087000BFE3E70000C1000020C200002069
:1013C000C3000020C4000020C00000200020054908
:1013D00008700549087005490870054908700549F5
:1013E00008707047C0000020C1000020C20000202B
:1013F000C3000020C40000200146032901D10020C1
:1014000070470846FCE7000000B500F091F8FF20A7
:10141000034908700020034908700349087000BDA3
:10142000BD000020BE000020BF00002002460B4689
:10143000194605E0505C08B100207047481CC1B255
:101440000629F7D30120F8E730B50246174B1B7881
:10145000042B05DB164B1B685B1C154C236030BD51
:10146000144B154C24781A5500200AE00B5C124CE2
:10147000247804EB4404114D05EB44042354431C2D
:10148000D8B20628F2DB0C4B1B785B1C0A4C23708D
:1014900023461B78042B01DB00232370034B1B78AE
:1014A0005B1C024C237000BFD9E700006D000020D8
:1014B00098000020670000206C0000203806002003
:1014C00070B5044602F08AFB054600BFEFF31080BA
:1014D000064672B60D480068401C0C4908600C486E
:1014E0000470022C01D1092001E00A4800780A4961
:1014F00008700A4800780A4908700A4800780A49C2
:1015000008700A48056006B962B670BDA8000020E0
:10151000B9000020BD000020BA000020BE0000205D
:10152000BB000020BF000020BC000020B400002051
:1015300000BFEFF31081084672B60021074A117010
:10154000FF21074A11700021064A1170064A1170E6
:10155000064A116000B962B670470000B900002069
:10156000BA000020BB000020BC000020B400002016
:101570007CB505460C460020009001908DF8004097
:1015800014B1204600F09CFB6946284602F096FB09
:101590007CBD7CB505460C460020009001908DF87E
:1015A000004014B1204600F01BFF6946284602F0B7
:1015B00085FB7CBD10B502460B461548007808B97E
:1015C000002010BD1348144C2478005D10700021D9
:1015D0000AE01148007800EB4000104C04EB40009A
:1015E000405C5854481CC1B20629F2DB0A48007816
:1015F000401C094C207020460078042801DB0020A4
:10160000207003480078401E014C20700120D8E76C
:101610006D000020670000206B00002038060020CD
:1016200029B1064A52690243044B5A6104E0034A55
:1016300052698243014B5A6170470000001002401A
:1016400029B1064AD2690243044BDA6104E0034A35
:10165000D2698243014BDA617047000000100240FA
:1016600029B1064A92690243044B9A6104E0034A95
:1016700092698243014B9A6170470000001002405A
:101680000F48006840F001000D49086008464068B6
:101690000C4908400A494860084600680A49084061
:1016A000074908600846006820F480200860084662
:1016B000406820F4FE0048604FF41F0088607047C7
:1016C000001002400000FFF8FFFFF6FE30B50021D9
:1016D0000022002400232D4D6D6805F00C0121B17E
:1016E000042905D0082923D105E0294D056022E011
:1016F000274D05601FE0254D6D6805F47012234DE0
:101700006D6805F48034022505EB92421CB9214D29
:10171000554305600BE01D4D6D6805F400351DB1A6
:101720001C4D5543056002E0194D5543056002E02C
:10173000174D056000BF00BF144D6D6805F0F00146
:101740000909154D6B5C0568DD4045600F4D6D68FE
:1017500005F4E061090A104D6B5C4568DD40856069
:101760000A4D6D6805F46051C90A0B4D6B5C456804
:10177000DD40C560054D6D6805F44041890B074D9E
:101780006B5CC568B5FBF3F5056130BD0010024028
:1017900000127A0000093D00A0010020B0010020E5
:1017A00010B501460022002300204A11012A02D16F
:1017B000094C236806E0022A02D1074C236A01E0A3
:1017C000054C636A01F01F02012494401C400CB1D7
:1017D000012000E0002010BD0010024002484068D7
:1017E00000F00C007047000000100240014600208D
:1017F000034A506820F0F000084350607047000032
:10180000001002401149096821F480310F4A11602B
:101810001146096821F480211160B0F5803F03D0A2
:10182000B0F5802F0ED106E00849096841F48031F7
:10183000064A116007E00549096841F4A021034AFE
:10184000116000E000BF00BF7047000000100240C0
:1018500000210B4A11700A4A203A82F82010012810
:1018600002D0042808D103E00121054A117004E0E8
:101870000521034A117000E000BF00BF704700005F
:101880002010024001460020034A506820F4E06026
:1018900008435060704700000010024001460020DD
:1018A000034A506820F4605040EAC100506070471D
:1018B00000100240014908667047000000004242E3
:1018C00002460020044B586820F47C1042EA0103D1
:1018D0001843014B58607047001002400146002039
:1018E000034A506820F0030008435060704700002E
:1018F0000010024038B5002000900024002500BFF1
:101900003120FFF74DFF05460098401C00900098DD
:10191000B0F5A06F01D0002DF2D03120FFF740FFCD
:1019200008B1012400E00024204638BD10B504466B
:101930000748844204D181150648FFF7D0F906E034
:101940000548844203D1C1130448FFF7C8F910BD0C
:10195000003801400008014000480040000C0140F0
:1019600010B504460748844204D181150648FFF7A4
:10197000B8F906E00548844203D1C1130448FFF7D3
:10198000B0F910BD00380140000801400048004097
:10199000000C0140002242708270C2700271827598
:1019A00002744274827482828260C26082610177B2
:1019B000704700002DE9F04780460D4616461F4649
:1019C000DDE9089A404600F073F918B1284600F0A6
:1019D00043F910B90020BDE8F087A8F101001E49C5
:1019E00001EB401403212046FFF7D4FFE570257179
:1019F0000120A075277484F8119084F812A0A660C5
:101A0000E6602078032806D0207800F025F968B138
:101A10002078A8420AD0404600F094F803202070B5
:101A20000420A0701420A0610120D4E7294640467C
:101A300000F03CF80121404600F023F82570657065
:101A40003946304600F014F8A0700020A075E07010
:101A5000207120770120BEE74C2300200146481E5C
:101A6000C0EBC000014A02EB80007047F04A00085A
:101A7000024609B1032070470AB10220FBE70120AA
:101A8000F9E770B506460D463046FFF7E7FF044616
:101A90002078012809D125B1218B6069FFF721F950
:101AA00003E0218B6069FFF71AF970BD2DE9F04161
:101AB00007460D463846FFF7D1FF0446207838BB6D
:101AC000781E4006060E0320B04000F0FF081C48B8
:101AD000407820EA08001A494870012D08D10846CC
:101AE00040780121B140C9B20843154948700AE065
:101AF000022D08D112484078711C01228A40D1B2CF
:101B000008430F4948700E4800F0B4FBBDE8F0816F
:101B100021896068FFF7E3F8218AE068FFF7DFF8C2
:101B2000012D04D121896068FFF7DBF805E0022D63
:101B300003D1218AE068FFF7D4F800BFE6E7000090
:101B40005600002010B5044600212046FFF799FFFB
:101B500000212046FFF7AAFF10BD7CB505460C46C4
:101B6000284600F0A5F808B1022C01D900207CBD60
:101B70002CB90021284600F0D9F80120F7E7002011
:101B800000900190012C01D1012000E002200146CB
:101B900000231A462846FFF70DFFE8E710B500F0CE
:101BA00019F8002410E00020094901EB44110870E5
:101BB000074901EB44100021FFF7ECFE611CC8B29D
:101BC000FFF7C0FF601CC4B2052CECD310BD0000B1
:101BD0004C23002038B50020FFF73AFE01211820E1
:101BE000FFF73EFD022531E0C5EBC500194901EBC9
:101BF0008004218B6069FFF772F8208BADF800003C
:101C000003208DF8020010208DF8030069466069FA
:101C1000FEF788FF218B6069FFF761F82189606812
:101C2000FFF75DF8218AE068FFF759F82089ADF8E1
:101C3000000069466068FEF775FF208AADF8000075
:101C40006946E068FEF76EFF681CC5B2052DCBD370
:101C500038BD0000F04A00080146012901D00229E0
:101C600001D1012070470020FCE7000030B501469B
:101C7000487C401EC0F3C702487C401E00F00705A8
:101C80000120A840C3B2C2F10100C2B20748805C83
:101C9000184008B1012000E000200446887CA042E2
:101CA00001D1012030BD0020FCE7000054000020DD
:101CB000014619B1052901D8012070470020FCE731
:101CC00003490968491C024A1160024908707047BB
:101CD00034010020380100202DE9FC4107468846E8
:101CE00014461D46089E24B1102C02D8012D00D8A0
:101CF00016B90020BDE8FC81012332464146384632
:101D0000CDE90045FFF756FEF4E77CB505460E46E3
:101D100014460CB900207CBD0020009003462246EA
:101D2000314601902846FFF745FEF4E770B50446BA
:101D30000E46601E064901EB40152046FFF702FFE4
:101D40000020287031462846FFF724FE70BD0000B1
:101D50004C23002070B5064606B970BD002553E03F
:101D60002B4800EB45142078032821D1A069B0420C
:101D700003D9A069801BA06144E00020A061217903
:101D80006A1CD0B2FFF792FE691CC8B20121FFF7AE
:101D900078FE2079207020796070217CA068FFF7A0
:101DA00067FEA0700020E0702071A075207729E008
:101DB0002078FFF751FF00B924E0207C88B120464D
:101DC000FFF754FF58B1A08A3044A082A08A1E2891
:101DD00007D3691CC8B20221FFF7A8FF12E0002058
:101DE000A082E06840B1E068B04205D8691CC8B282
:101DF0000121FFF79BFF04E0E06810B1E068801B61
:101E0000E06000BF681CC5B2052DA9D300BFA4E7E0
:101E10004C230020016082800023C380038170472F
:101E200010B502460B46908808B9002010BD1189F4
:101E3000D088884201D10020F8E7908891FBF0F427
:101E400000FB14101468205C1870481C10810120DD
:101E5000ECE710B502460B46908808B9002010BD8B
:101E6000D1881089081A80B29488A04201DB002032
:101E7000F5E7908891FBF0F400FB141014682354EC
:101E8000481CD0800120EAE700B587B031480078CF
:101E900008B107B000BD01202E490870012141F2B0
:101EA0000400FFF7DDFB2020ADF8180018208DF8A6
:101EB0001B0003208DF81A0006A92748FEF732FE02
:101EC0004020ADF8180004208DF81B0006A9224818
:101ED000FEF728FE8020ADF8180018208DF81B00B2
:101EE00006A91D48FEF71EFE4FF40070ADF818005D
:101EF00010208DF81B0003208DF81A0006A9174842
:101F0000FEF710FE0020ADF804004FF48270ADF82B
:101F100006000020ADF80800ADF80A00ADF80C008E
:101F20004FF40070ADF80E001820ADF8100000203E
:101F3000ADF812004FF48071094800F087F801A94C
:101F4000074800F065F80121054800F00BF800BFD4
:101F50009FE700005A00002000080140000C0140EB
:101F60000030014021B1028842F04002028004E0CA
:101F700002884FF6BF731A400280704708B50121EE
:101F80000C20FFF76DFB4FF48070ADF800000320CC
:101F90008DF8020010208DF8030069461448FEF702
:101FA000C1FD4FF40070ADF8000003208DF8020071
:101FB00010208DF8030069460D48FEF7B3FD4FF47D
:101FC0008050ADF8000003208DF8020010208DF83D
:101FD000030069460648FEF7A5FD4FF4007104486A
:101FE000FEF77FFE4FF480710148FEF778FE08BDD2
:101FF000000C01400246002013890B400BB1012068
:1020000000E0002070470146888970478181704751
:1020100010B50022028802F441520B884C882343F9
:102020008C882343CC8823430C8923434C89234346
:102030008C892343CC8923431A430280838B4FF23C
:10204000FF74234083830B8A038210BD4FF6FF6227
:10205000914204D0028842F48072028004E0028837
:102060004FF6FF631A400280704770B500240025C8
:1020700005E0640000F008F80443681CC5B2202D98
:10208000F7DB204670BD000010B580210A48FEF73E
:1020900028FE0120FEF70CFD4FF480710648FEF784
:1020A00015FE044680210448FEF719FE0120FEF7C4
:1020B000FFFC204610BD000000100140704710B525
:1020C00000F002F810BD00000CB500200190009057
:1020D0003348006840F480303149086000BF304820
:1020E000006800F4003000900198401C01900098B6
:1020F00018B90198B0F5A06FF1D12948006800F433
:10210000003010B10120009001E000200090009804
:10211000012843D12348006840F01000214908609D
:102120000846006820F0070008600846006840F094
:10213000020008601A48406819494860084640682B
:1021400048600846406840F480604860084640683F
:1021500020F47C1048600846406840F4E81048606D
:102160000846006840F08070086000BF0C480068B6
:1021700000F000700028F9D00948406820F0030002
:10218000074948600846406840F00200486000BFC8
:102190000348406800F00C000828F9D10CBD00008D
:1021A000001002400020024008B5FFF76DFE01213B
:1021B0000420FFF755FA1020ADF800008DF8030059
:1021C00003208DF8020069460148FEF7ABFC08BD0C
:1021D0000008014038B5044610211948FEF77FFD7C
:1021E0000A2001F097F910211548FEF77AFD0A2020
:1021F00001F090F9002000901AE000BF0221114880
:10220000FFF7F8FE0028F9D0FF210E48FFF7FEFE89
:1022100000BF01210B48FFF7EDFE0028F9D0094867
:10222000FFF7F1FEC043009960540098401C0090F5
:1022300000980228E1DB2046FFF760F838BD000077
:10224000000801400030014008B5FFF71DFE0121E4
:102250001020FFF705FA1020ADF800008DF80300FC
:1022600003208DF8020069460148FEF75BFC08BDBB
:102270000010014070B50546002415E000BF0221A2
:102280001248FFF7B7FE0028F9D0295D0F48FFF785
:10229000BDFE00BF01210D48FFF7ACFE0028F9D0BC
:1022A0000A48FFF7B0FE641C042CE7DB0120FEF7B0
:1022B000FFFB10210648FEF714FD0120FEF7F8FB96
:1022C00010210348FEF70BFD70BD000000300140F7
:1022D0000010014000220270427082704260028150
:1022E0008172704710B50022027042708270002126
:1022F00013E001EB41020A4B13F822205AB100EB24
:10230000D102127801F007040123A340DBB21A4383
:1023100000EBD1031A704A1CD1B21329E9D310BDC6
:102320006822002070B506460C46304600F050F892
:1023300008B1012C01D9002070BD701E00EB4000D7
:10234000084901EB80050CB1012000E000200146A6
:102350002846FFF7BFFF2C702146304600F04CF8AE
:10236000EAE700006822002010B5002409E004EB31
:102370004401054A02EB81000021FFF7ABFF601C1E
:10238000C4B2132CF3D310BD6822002030B501462F
:102390004878401EC0F3C702C2F10100C2B24878BB
:1023A000401E00F007050120A840C3B20748805C2A
:1023B000184008B1012000E0002004468878A042BF
:1023C00001D1012030BD0020FCE7000054000020B6
:1023D000014619B1132901D8012070470020FCE7FC
:1023E00003490968491C024A116002490870704794
:1023F0002C010020300100202DE9F04180460F46DD
:102400004046FFF7E5FF10B90020BDE8F081A8F1D4
:102410000100C5B20C48445D0C48465D47B10C480C
:10242000005D0121B140C9B208430949085506E0E1
:102430000748005D0121B14088430549085504481B
:10244000FFF718FF0120E0E7C84A0008DB4A000850
:10245000560000202DE9F04180460D4616461F46E5
:102460004046FFF7B5FF28B125B1102D02D8012E47
:1024700000D817B90020BDE8F081A8F1010000EBF9
:102480004000084901EB800402212046FFF722FFAB
:10249000012020706570A670676001214046FFF73B
:1024A000ABFFE8E76822002070B506460D463046CF
:1024B000FFF78EFF00B10DB9002070BD701E00EB5C
:1024C0004000074901EB800401212046FFF702FF8D
:1024D00001202070656001213046FFF78DFFECE799
:1024E0006822002070B5064606B970BD002536E0AA
:1024F00005EB45001C4901EB8004207800B92CE075
:102500006078A8B12046FFF741FF78B120893044B8
:10251000208120891E280BD3691CC8B20021FFF737
:102520006BFF04212046FFF7D5FE16E00020208136
:10253000606860B16068B04209D8691CC8B2002107
:10254000FFF75AFF03212046FFF7C4FE04E060684E
:1025500010B16068801B606000BF681CC5B2132D9D
:10256000C6D300BFC1E700006822002010B50248B2
:1025700001F0A6FC10BD000000A24A0410B50446FC
:1025800001F040FD00B110BD34B10948807840F041
:1025900020000749887005E00548807800F0DF00DA
:1025A000034988700248FFF765FE00BFEBE70000B3
:1025B0005600002010B501F00BFE10BD042808D114
:1025C0004FF0E021096941F004014FF0E022116170
:1025D00007E04FF0E021096921F004014FF0E0220B
:1025E00011617047704710B5FFF74AF84FF480301B
:1025F000FFF708F900BFFFF77DF90128FBD14FF481
:10260000E0110004FFF75CF90120FFF753F900BF68
:102610003920FFF7C5F80028FAD00220FFF75EF94D
:1026200000BFFFF7DBF80828FBD10020FFF7DEF83A
:102630004FF48060FFF726F90020FFF72FF9012102
:102640008803FFF70DF810BD10B51348006840F07F
:1026500001001149086008464068104908400E49C9
:102660004860084600680E4908400B490860084663
:10267000006820F4802008600846406820F4FE00CE
:1026800048604FF41F008860FFF719FD4FF00060AD
:102690000449086010BD0000001002400000FFF86F
:1026A000FFFFF6FE08ED00E070B58CB006460C4664
:1026B00015460121C802FEF7D3FF01A800F0D6FAA3
:1026C000ADF80860ADF804400020ADF80A00ADF8A0
:1026D000060001A9264800F077FA08A800F05BFA86
:1026E0006020ADF820000020ADF822000420ADF8F5
:1026F0002400ADF826500020ADF82800ADF82A00DF
:10270000ADF82C00ADF82E0008A9194800F098F992
:102710000821174800F0E6F90121154800F0CEF82D
:1027200004A800F0E7F84FF40060ADF81000401086
:10273000ADF812000020ADF81400ADF818004FF409
:102740000050ADF81A004000ADF81C0004A908487C
:1027500000F0C0F80121064800F0FFF8012104480C
:1027600000F0D7F80121024800F0DFF80CB070BD8E
:10277000002C014010B50121880700F0F0F8B0B13D
:102780000121880700F0C2F809480068401C084988
:10279000086008480088401C0649088008460088F0
:1027A000642804D10020088001200349087010BD6E
:1027B000400100203C0100204401002010B501210F
:1027C0000220FEF73DFF09200F498880472008803E
:1027D0000020C88048800D4800F0F6F9012211461B
:1027E0000A4800F0CDF81D20094908700120487002
:1027F000002088700120C8700846FEF751FB0121B7
:10280000024800F086F810BDEC23002000040040D0
:102810004701002010B50121094800F0A0F868B177
:102820000121074800F072F806480088401C80B279
:1028300004490880642801DB0020088010BD0000E6
:10284000000400404C01002010B501210420FEF7D7
:10285000F7FE09200F498880472008800020C880A3
:1028600048800D4800F0B0F9012211460A4800F0F6
:1028700087F81E20094908700320487001208870DD
:10288000C8700846FEF70CFB0121034800F041F830
:1028900010BD0000EC23002000080040470100208C
:1028A00010B50121044800F05AF818B1012102487E
:1028B00000F02CF810BD00000008004021B1028893
:1028C00042F08002028004E002884FF67F731A40D3
:1028D000028070470A884B881A438B881A43CB883A
:1028E0001A430B891A434B891A438B891A43A0F860
:1028F000442070470021018041808180C180018196
:10290000418181817047CA4302827047CA43028273
:10291000704721B1028842F00102028004E002887F
:102920004FF6FE731A400280704731B1B0F8442070
:1029300042F40042A0F8442005E0B0F84420C2F37D
:102940000E02A0F8442070471AB183890B4383819B
:1029500002E083898B43838170478182704730B561
:102960000246002000230024158A05EA0103958908
:1029700005EA010413B10CB1012000E0002030BDD4
:102980001AB183890B43838102E083898B4383815E
:102990007047000070B5002400220023058C4FF61C
:1029A000FE7635400584028C8388048B4FF68F7544
:1029B0002C40B51E2C400D882C43751E2A400D89D5
:1029C0002A434D882A43144DA8420BD0134DA842E8
:1029D00008D0134DA84205D0124DA84202D0124D86
:1029E000A84213D14FF6F7752A404D892A434FF676
:1029F000FB752A408D882A434FF6FF652B404FF622
:102A0000FF552B408D892B43CD892B438380048335
:102A1000CD888586028470BD002C014000340140C1
:102A20000040014000440140004801400A460021A6
:102A3000018B4FF6F7731940114301837047000073
:102A400070B5002400220023058C4FF6EF76354048
:102A50000584028C8388048B48F6FF752C404FF662
:102A6000FF452C400D884FF6FF7606EA05252C43DE
:102A70004FF6DF752A400D8906EA05152A434D8871
:102A800006EA05152A43154DA84202D0144DA84266
:102A90001DD14FF67F752A404D894FF6FF7606EA25
:102AA00005152A434FF6BF752A408D8806EA05159D
:102AB0002A434FF6FF352B404FF2FF752B408D898F
:102AC00006EA85052B43CD8906EA85052B438380DD
:102AD0000483CD880587028470BD0000002C01406E
:102AE000003401400A460021018B4FF2FF73194068
:102AF0004FF6FF7303EA0223194301837047000076
:102B000070B5002200230024058C4EF6FF76354078
:102B10000584038C8488828B48F6FF752A404FF623
:102B2000FF452A400D884FF6FF7606EA05252A4321
:102B30004DF6FF752B400D8906EA05352B434D8870
:102B400006EA05352B430B4DA84202D00A4DA84298
:102B500008D14BF6FF752C408D894FF6FF7606EABB
:102B600085152C4384808283CD88A0F8405003844F
:102B700070BD0000002C0140003401400A460021D5
:102B8000818B4FF2FF7319404FF6FF7303EA022364
:102B90001943818370470021018041808180C18079
:102BA000018141818181C1817047018582827047A5
:102BB000818570478186704701877047A0F8401073
:102BC0007047818470470000002202881D4B9842A4
:102BD0000ED01D4B98420BD0B0F1804F08D01B4B4C
:102BE000984205D01A4B984202D01A4B984204D111
:102BF0004FF68F731A404B881A43174B984207D0F1
:102C0000164B984204D04FF6FF431A40CB881A4324
:102C100002808B8883850B8803850A4B98420BD0F2
:102C2000094B984208D00E4B984205D00D4B984264
:102C300002D00D4B984201D10B7A03860123838287
:102C400070470000002C01400034014000040040A7
:102C500000080040000C004000100040001400403C
:102C60000040014000440140004801404FF6FF7120
:102C7000818000210180C180418001727047000085
:102C800010B501210846FEF7DBFC40F2E73012499F
:102C90008880472008800020C88048804FF080400E
:102CA000FFF792FF01218807FFF72DFE0122114651
:102CB0009007FFF765FE1C20084908700220487045
:102CC000002088700120C8700846FEF7E9F801214D
:102CD0008807FFF71EFE10BDEC23002047010020EF
:102CE00070B572B60A4805880A48046862B62CB105
:102CF00000F074FF001BB0F57A6F06D972B60020A1
:102D00000349088062B6002070BD2846FCE7000039
:102D10004A0000204C00002070B52548048804F0CB
:102D2000200020B123480068401C2249086004F0BC
:102D3000080020B120480068401C1F49086004F0CA
:102D4000020020B11D480068401C1C49086004F0C6
:102D5000040020B11A480068401C1949086004F0BA
:102D6000010020B117480068401C1649086004F0B3
:102D70000F0028B10E4800880D48001D008870BD66
:102D800004F0200090B10A48001D0088C5B2294611
:102D90000D48FFF75EF848B90C484068401C0B49E5
:102DA00048600B480068401C0949086000BFE6E71E
:102DB0000038014070000020780000207C000020D6
:102DC0008000002084000020B4050020E4050020DD
:102DD0009400002000B587B04FF400726B496C4836
:102DE000FFF718F84FF400726A496B48FFF712F8C2
:102DF00000206A4988726A4988726A4800F01CFBA0
:102E0000694800F019FB01211120FEF729FC01217E
:102E10008804FEF715FC01210420FEF721FC0121A6
:102E20000820FEF71DFC01218803FEF719FC4FF472
:102E30000070ADF8180018208DF81B0003208DF8E5
:102E40001A0006A95948FDF76DFE4FF48060ADF8F1
:102E5000180004208DF81B0006A95448FDF762FEF7
:102E60004FF48070ADF8180010208DF81B0003207F
:102E70008DF81A0006A94D48FDF754FE4C48FEF7A0
:102E800055FD4FF40040ADF8180006A94948FDF77C
:102E900049FE4948FEF74AFD01214848FDF7CEFEAC
:102EA0004FF48060ADF8180018208DF81B00032047
:102EB0008DF81A0006A94248FDF734FE4FF4006071
:102EC000ADF8180004208DF81B0006A93C48FDF75A
:102ED00029FE4FF4165002900020ADF80C00ADF81A
:102EE0000E00ADF81000ADF814000C20ADF8120083
:102EF00002A92F4800F0D4F9012240F225512C48B4
:102F000000F0A9F901226021294800F0A4F901226A
:102F10002821274800F09FF90121254800F082F977
:102F200002A9254800F0BCF9012240F225512248AF
:102F300000F091F9012260211F4800F08CF9012274
:102F400028211D4800F087F901211B4800F06AF98B
:102F500025208DF8040000208DF805008DF806006E
:102F600001208DF8070001A8FDF79AFF27208DF8B2
:102F7000040003208DF805008DF8060001208DF86F
:102F8000070001A8FDF78CFF07B000BDB4010020C9
:102F9000B4050020B4030020C0050020CC050020AB
:102FA000D7050020E4050020F405002000080140BA
:102FB00000380140000C014000480040100014009F
:102FC0000010014008B534E01D480078D0B99DF8E4
:102FD0000000AA2805D01B480068401C1949086059
:102FE00027E00020184908709DF800101648027864
:102FF0000078401C144B187014488154012010496B
:10300000087016E09DF800200F4801780078401CF9
:103010000D4B18700D484254184600780A2807DBFB
:103020000A4800F017F800200749087004490870A2
:1030300000BF69460648FEF7F3FE0028C4D108BD6C
:103040003D000020880000203C00002004060020F5
:10305000B405002010B50146164A1278042A05DB93
:10306000154A1268521C144B1A6010BD00200AE069
:103070000A5C124B1B7803EB8303114C04EB4303F4
:103080001A54421CD0B20A28F2DB0C4A1278521CA5
:103090000A4B1A701A461278042A01DB00221A70B1
:1030A000044A1278521C034B1A700122054B1A7005
:1030B00000BFDAE74100002094000020400000201B
:1030C0000E0600203E00002070B50546FFF77AFF8F
:1030D00072B61A48007828B900201949087062B6FB
:1030E000002070BD00240AE01648007800EB800044
:1030F000154901EB4000005D2855601CC4B20A2C44
:10310000F2DB10480078401C0E4908700846007831
:10311000042801DB0020087008480078401E074999
:10312000087008460078002801DD012000E000203A
:103130000349087062B60120D3E700004100002077
:103140003E0000203F0000200E0600201D49088898
:1031500000F0200121B11C490968491C1A4A11607C
:1031600000F0080121B119490968491C174A11608A
:1031700000F0020121B116490968491C144A116086
:1031800000F0040121B113490968491C114A11607A
:1031900000F0010121B110490968491C0E4A116073
:1031A00000F00F0129B1074909880649091D09885E
:1031B000704700F0200111B10249091D098800BFC4
:1031C000F6E7000000440040700000207800002076
:1031D0007C000020800000208400002010B5034AFD
:1031E0000349044800F02EF910BD0000F40500204A
:1031F000C00500200048004008B505E0064A9DF8DB
:103200000010064800F0D2F869460548FEF708FEAF
:103210000028F3D108BD0000F4050020D7050020E8
:10322000C005002021B1828942F40052828104E06D
:1032300082894DF6FF731A40828170470246002052
:10324000B1F5007F00D100BF13880B400BB1012006
:1032500000E000207047F0B503460024002600255A
:10326000002040F66A17B94200D100BF1846C1F3EA
:10327000421401F01F06012707FA06F5012C01D1BF
:103280000C3004E0022C01D1103000E014301AB1EF
:1032900007682F43076002E00768AF430760F0BD8F
:1032A0002DE9F04786B005460E460024A24600BF31
:1032B000A1460027B08900B100BF2F462C8A4CF6EA
:1032C000FF700440F08804432C82AC894EF6F31062
:1032D0000440B08831890843718908430443AC81B4
:1032E000AC8A4FF6FF400440B0890443AC8201A889
:1032F000FEF7ECF91F48874202D1DDF810A001E08B
:10330000DDF80CA0A88900F4004040B10AEBCA0027
:1033100000EB0A1031684900B0FBF1F807E00AEB56
:10332000CA0000EB0A1031688900B0FBF1F8642094
:10333000B8FBF0F004012009642101FB1089A88981
:1033400000F4004040B1322000EBC900B0FBF1F0C6
:1033500000F00700044308E0322000EB091064216C
:10336000B0FBF1F000F00F0004432C8106B0BDE883
:10337000F08700000038014001460878AA2802D1F1
:10338000087A552801D0002070470023002204E06D
:10339000885C1844C3B2501CC2B2082AF8D3487AD9
:1033A000984201D10120EFE70020EDE72DE9F0413F
:1033B00004460F461646A07A30B9AA2F02D12770CC
:1033C0000120A072BDE8F081A07A2754A07A401CA9
:1033D000A072A07A0A2800D2F4E72046FFF7CCFFBB
:1033E00040B1204600F000FCB068401CB0600020F6
:1033F000A072E7E7F068401CF0600020A072012591
:1034000015E0605DAA2810D14FF0000808E0605D6B
:1034100004F8080008F1010000F0FF08681CC5B2BC
:103420000A2DF4D384F80A8003E0681CC5B20A2D83
:10343000E7D300BF00BFC5E70021016041608160A4
:10344000C16070472DE9F04105460F461446B5F8B6
:10345000008008F00F0018B1A888C6B2BDE8F0815E
:1034600008F0200060B1A888C6B22068401C206027
:1034700031463846FEF7EDFC10B96068401C6060CC
:1034800000BFEBE770B504460E461D48844202D0EB
:103490001C48844205D12046FEF762FA1420FDF74D
:1034A00007FB3146204600F02FF800F097FB054659
:1034B0000BE01348844208D100F090FB401B052824
:1034C00003D30120FDF7FCFF70BD80212046FFF7EC
:1034D000B5FE0028EDD00A48844202D00948844253
:1034E0000CD100BF40212046FFF7A8FE0028F9D0EC
:1034F0001420FDF7DDFA2046FEF718FA00BFE3E7D7
:103500000038014000480040C1F308028280704743
:1035100000BFFEE7002106E00A2100BF0A1EA1F15C
:10352000010399B2FAD1021EA0F1010398B2F3D1BE
:103530007047000010B5044600210D48FFF7E9F977
:1035400000210C48FDF7A2F90B480A490C3108602C
:103550000848001D046001210548FFF7D4F9012146
:103560000448FDF793F901210148FFF7D2F910BD96
:1035700000100040300402404028002010B50446EE
:1035800000210D48FFF7C5F900210C48FDF77EF931
:103590000B480A490C3108600848001D04600121ED
:1035A0000548FFF7B0F901210448FDF76FF9012143
:1035B0000148FFF7AEF910BD000C00401C040240AA
:1035C0000C24002010B54FF400610A04002009E02B
:1035D00000F001030BB1134600E00B46034C44F826
:1035E0002030401CFF28F3D910BD00000C2400201F
:1035F00010B54FF480610A04002009E000F00103D7
:103600000BB1134600E00B46034C44F82030401C3D
:10361000FF28F3D910BD0000402800202DE9FC410F
:1036200007460C46F84850F82700401CF64941F878
:1036300027000A2F75D007DC74D2DFE807F01617D1
:103640007373731B4168A5C41C2F6CD006DC0B2F51
:103650006AD00C2F69D01B2F64D183E11E2F6FD04D
:103660001F2F6ED0202FF7D1E8E115E2002000F0E7
:103670000FFB11E2207810B12078132807D9012020
:10368000FEF7AEFE2146384600F018FB04E26078F3
:10369000012804D802212046FDF7C8FE38B90220CF
:1036A000FEF79EFE2146384600F008FBF4E1617803
:1036B0002078FEF737FE2146384600F0FFFAEBE1AE
:1036C000207810B12078132804D901213846FDF75D
:1036D00060FFE1E102212046FDF7A8FE20B90221AA
:1036E0003846FDF756FFD7E16078642100FB01F50D
:1036F00025B904213846FDF74CFFCDE12078294655
:10370000FEF7D2FE00213846FDF743FFC4E12078E2
:1037100010B12078132809D901213846FDF739FF67
:10372000BAE176E0B3E139E1AAE0EDE0607810B10A
:103730006078102806D903213846FDF72AFFABE14F
:103740004BE169E1A078012801D8607920B102211C
:103750003846FDF71EFF9FE1E078217940EA012617
:1037600026B904213846FDF714FF95E14FF0640CAB
:1037700006FB0CF3A27861782078FEF76BFE00213F
:103780003846FDF706FF87E100212046FDF74EFE93
:1037900020B902213846FDF7FCFE7DE101A8FEF7C5
:1037A000A1FD9DF8040020709DF8050060709DF853
:1037B0000600A0700020E07020716071214638463C
:1037C00000F07CFA68E1207810B12078052807D94C
:1037D0000120FEF775FA2146384600F06FFA5BE1EA
:1037E0006078022804D802212046FDF71FFE38B970
:1037F0000220FEF765FA2146384600F05FFA4BE1F9
:1038000061782078FEF7A9F92146384600F056FA8B
:1038100042E1207810B12078052804D901213846EA
:10382000FDF7A6FE38E1607810B16078022804D96F
:1038300002213846FDF79CFE2EE103212046FDF7CC
:10384000F5FD20B902213846FDF792FE24E1A0786B
:10385000642100FB01F525B904213846FDF788FEF7
:103860001AE16278012A00D100E002221146207894
:103870002A46FEF74AFA00213846FDF779FE0BE1A9
:10388000207810B12078052804D901213846FDF7A9
:103890006FFE01E1607828B16078022802D8E078F4
:1038A000012804D902213846FDF762FEF4E0A07831
:1038B00010B1A078102804D903213846FDF758FE2E
:1038C000EAE02079617940EA012626B904213846E8
:1038D000FDF74EFEE0E0642106FB01F00090E37886
:1038E000A27894F801C0BCF1010F02D14FF0010C95
:1038F00001E04FF0020C61462078FEF7EDF900215F
:103900003846FDF735FEC7E000212046FDF78EFD65
:1039100020B902213846FDF72BFEBDE03B4908786F
:10392000FDF76AFD2070394991F82000FDF764FD2C
:103930006070364991F84000FDF75EFDA070334994
:1039400091F86000FDF758FDE070304991F8800073
:10395000FDF752FD2071002060712146384600F0CD
:10396000ADF999E02146384600F0A8F9A178284839
:10397000407861F30410264948700846FEF77AFC47
:103980006178237841EA0320E178C82301FB03F240
:10399000204B4FF4FA7100F073FD7DE0FDF716FD4A
:1039A0002146384600F08AF900F02CFB08B1FEF7FA
:1039B00001FEA078FEF7E2FD0220FDF779F86178BC
:1039C000237841EA0320E178C82301FB03F2114B7D
:1039D0004FF4FA7100F0CCFB5EE02146384600F06F
:1039E0006DF90C480090627894F800C042EA0C200F
:1039F000E2784FF0C80C02FB0CF3A1784FF4FA7296
:103A0000FDF782FB48E00000500A00204C23002014
:103A100056000020A086010000F0F4FA08B9012049
:103A200000E00020207000206070A070E070207125
:103A300060712146384600F041F92DE06179207926
:103A4000FDF794FCE0B12146384600F037F900F06C
:103A5000D9FA08B1FEF7AEFDA078FEF78FFD02207F
:103A6000FDF726F86178237841EA0320E178C8233E
:103A700001FB03F20A4B4FF4FA7100F079FB05E009
:103A8000002020712146384600F018F904E0052195
:103A90003846FDF77EFD00BF00BFBDE8FC81000099
:103AA000A08601002DE9F047074688463D46464678
:103AB0004FF0000C6346644600214FF0804203E063
:103AC000880840EA82719208681A76EB0200F7D300
:103AD00021E013EB010C44EB0200B5EB0C0C76EB90
:103AE00000000FD313EB010944EB0200B5EB09050D
:103AF00066EB000660084FEA330C1CEB010340EB59
:103B0000020402E064084FEA33034FEA910040EAFE
:103B100082714FEA92024FF0000C81EA0C0082EAB7
:103B20000C0C50EA0C00D4D11846BDE8F087000018
:103B3000FEF759FD4FF4A060FDF7EAF9FCF796FF98
:103B4000FEF782FBFEF730FBFDF74AF9FEF70CFCAF
:103B5000FEF724F800F042F81C490860FEF70EFA60
:103B6000FEF792F9FFF78CF8FDF7F0F8FEF726FE66
:103B7000FEF76AFE164800F055FBFEF7F7FCFDF76E
:103B80003BFAFCF7B3FF0022472140F2E730FEF793
:103B90008BFDFDF73FFB02210E48FDF7A2F8FFF772
:103BA00019F9FDF731FC0C48FEF764FB0DE0FFF757
:103BB00023FB00F00DFD00F02BFD00F0DFFC00F01A
:103BC000A1FC00F0A7FC00F0EDFCF0E738000020BD
:103BD00000A24A04000C0140560000200148006881
:103BE00070470000400100202DE9FC4105460027F8
:103BF0002878AA2806D01E480068401C1C49086086
:103C0000BDE8FC81287A552805D01A480068401C78
:103C100018490860F4E7002403E0285D3844C7B27F
:103C2000641C082CF9DB687AB84205D01248006899
:103C3000401C11490860E3E76E7810480068401C9A
:103C40000E4908600E4850F82600401C0C4941F807
:103C50002600002404E0A01C285C0DF80400641C6D
:103C6000062CF8DB69463046FDF7EEFB00BFC7E7E0
:103C7000880000208C0000209000002074000020AC
:103C80005006002010B5012000F002F810BD000021
:103C90001CB50446002000900190074800788DF87C
:103CA0000000054840788DF8010022466946012051
:103CB00000F016F81CBD00005400002070B504464A
:103CC0000D4600222946204600F00AF870BD70B566
:103CD00004460D4601222946204600F001F870BD39
:103CE0002DE9F74F84B004461646584804705848EA
:103CF0000670FF2057490870022E01D0012000E015
:103D000000208046B8F1000F16D0534850F8240028
:103D1000401C514941F824003EB9504850F8240055
:103D2000401C4E4941F8240006E04D4850F824005C
:103D3000401C4B4941F82400AA208DF804008DF85E
:103D40000540002505E00598415DA81C01AA115415
:103D50006D1C062DF7DB4FF00009002505E001A8DA
:103D6000405D484400F0FF096D1C082DF7DB55202D
:103D70008DF80C008DF80D903A48D0F800B0B8F1ED
:103D8000000F0AD038480470FFF728FF3749086051
:103D900037480068401C36490860002719E02D4963
:103DA0000F7001A8C15D3348FFF76CFB2D48006818
:103DB000584505D0FF202749087007B0BDE8F08FAF
:103DC000B8F1000F04D02C480068401C2A49086054
:103DD0007F1C0A2FE3DB09201E490870FFF7FEFE57
:103DE00082460CE0FFF7FAFEA0EB0A00052806D396
:103DF0000220FDF765FBFF2016490870DDE7402132
:103E00001C48FFF71BFA0028ECD0FF20114908706E
:103E1000B8F1000F18D019480068401C1749086015
:103E2000FFF7DCFE164908603EB9164850F824003A
:103E3000401C144941F8240006E0134850F82400BF
:103E4000401C114941F8240000BFB6E7BE00002025
:103E5000BF000020BD000020500E002050120020A6
:103E6000501A0020A8000020B8000020AC0000205C
:103E70009C00002000380140A4000020A000002089
:103E8000B000002050160020501E00207CB50546D2
:103E9000FEF726FF044620128DF80000E0B28DF8F0
:103EA000010000208DF802008DF803008DF8040059
:103EB0008DF8050069462846FFF709FF7CBD000024
:103EC00010B590B004464348046001210820FDF776
:103ED000C7FB01211020FDF7B3FB01210220FDF7F4
:103EE0009FFB4FF48060ADF83C0003208DF83E004E
:103EF00010208DF83F000FA93748FCF713FE4FF450
:103F000080613548FCF7EBFEFFF772FB0020ADF84F
:103F10003000ADF832004FF47A70ADF83400002074
:103F2000ADF836008DF838000CA92C48FEF74CFE91
:103F30002B48FCF7B7FC2848103001902948029024
:103F4000102003900001049000200590802006902E
:103F50008000079080000890002009904FF40050E6
:103F60000A9000200B9001A91D48FCF760FD01227A
:103F700002211B48FCF752FD3A208DF80000012079
:103F80008DF8010002208DF8020001208DF8030059
:103F90006846FCF785FF012211021048FEF7D4FCA9
:103FA00000210E48FEF7B5FC00210D48FCF76EFC21
:103FB00000200D4908700D4908700D4908600D4931
:103FC00008600D4908700D4908600D49086010B07F
:103FD00010BD000070010020000C014000100040E6
:103FE0003004024040280020780100208401002095
:103FF00088010020740100202C2800207C01002072
:1040000080010020014800787047000078010020FE
:104010002DE9F04F8BB00546894616469A4615B9EC
:104020000BB0BDE8F08F06B90126B9F1000F01D140
:104030004FF00109B14500D9B146BAF1000F01D1E5
:104040004FF0010A44480560002043494860434955
:104050000860434805604048C0F80890C660C0F852
:1040600010A0A9FB09780220A0FB0A020023A0FBF4
:10407000051C02FB05C200FB0320C91940EB080028
:104080000222CDE9021008460399FCF7DFF8CDE9DA
:104090000801DDE90801FFF705FD0446B44200D937
:1040A000344604B901242C4844610220A0FB0A10C4
:1040B000CDE90210A4FB0410C91B60EB0800CDE998
:1040C0000010084601A90EC9FCF7C0F82249886112
:1040D0000220A0FB0A10CDE90210A4FB0410CDE9D8
:1040E0000010084601A90EC9FCF7B0F81A49C861CA
:1040F0000846C06908B90120C861002000F018FB1B
:104100008346BBF1000F01D14FF0010B1548C0F8F9
:1041100000B04FEA4B000790079800F0C9FA0E482C
:1041200000680D494968401A06900698802801D910
:10413000802000E006980590059841000491012038
:1041400009490870022009490870049988B2FFF7EC
:10415000F1F900BF64E70000402C00207C01002042
:1041600080010020740100207801002084010020DB
:104170002DE9F04106460D4614461F461EB900F0D3
:1041800027F8BDE8F08104B9012405B90125A5424D
:1041900000D9254607B901270B4846608560C460F1
:1041A0000761012008490870084890F80080B8F1BC
:1041B000000F07D1002008703B46224629463046B2
:1041C000FFF726FF00BFDCE72C2800207801002045
:1041D00010B500200B4908700B4908700B490860A6
:1041E0000B4908600B49087000210B48FEF791FB52
:1041F00000210A48FCF74AFB4FF480610848FCF7AD
:104200006EFD10BD7801002084010020880100208F
:10421000740100202C2800200010004030040240CF
:10422000000C014010B590B004463E4804600121E6
:104230000820FDF715FA01210820FDF701FA0121F8
:104240000220FDF7EDF94FF40060ADF83C000320CB
:104250008DF83E0010208DF83F000FA93248FCF782
:1042600061FC4FF400613048FCF739FDFFF7AAF913
:104270000020ADF83000ADF832004FF47A70ADF8A0
:1042800034000020ADF836008DF838000CA927481E
:10429000FEF79AFC2648FCF705FB234810300190F6
:1042A0002448029010200390000104900020059003
:1042B00080200690800007908000089000200990E0
:1042C0004FF400500A9000200B9001A91848FCF709
:1042D000AEFB012202211648FCF7A0FB39208DF825
:1042E000000001208DF801008DF802008DF8030018
:1042F0006846FCF7D5FD012211020C48FEF724FBAD
:1043000000210A48FEF705FB00210948FCF7BEFA28
:10431000002009490870094908700949086010B06F
:1043200010BD000060010020000C0140000C0040A6
:104330001C0402400C2400206801002069010020B8
:104340006C0100202DE9F04F8BB0064689461546DA
:104350009A4616B90BB0BDE8F08F05B90125B9F141
:10436000000F01D14FF00109A94500D9A946BAF1C2
:10437000000F01D14FF0010A3E48066000203D4980
:1043800048600846C0F80890C560C0F810A0A9FBB6
:1043900009780220A0FB0A020023A0FB061C02FBF6
:1043A00006C200FB0320C91940EB08000222CDE938
:1043B000021008460399FBF749FFCDE90801DDE942
:1043C0000801FFF76FFB0446AC4200D92C4604B944
:1043D0000124284844610220A0FB0A10CDE9021004
:1043E000A4FB0410C91B60EB0800CDE900100846CF
:1043F00001A90EC9FBF72AFF1E4988610220A0FB14
:104400000A10CDE90210A4FB0410CDE90010084603
:1044100001A90EC9FBF71AFF1649C8610846C06911
:1044200008B90120C861002000F0E6F983464FEA90
:104430004B000790079800F0FBF80E4800680D4904
:104440004968401A06900698802801D9802000E02B
:1044500006980590059841000491012006490870CE
:10446000022006490870049988B2FFF787F800BF58
:1044700070E700000C28002068010020690100207E
:104480002DE9F04107460C4615461E460A4847608E
:104490008460C560066101200749087007480078FC
:1044A00038B90020087033462A4621463846FFF7BF
:1044B00049FFBDE8F0810000F823002068010020DA
:1044C00010B50020094908700949087009490860B9
:1044D00000210948FEF71DFA00210848FCF7D6F92B
:1044E0004FF400610648FCF7FAFB10BD680100209C
:1044F000690100206C010020000C00401C040240F7
:10450000000C014010B50248FDF764FE10BD00002C
:104510005400002010B51648007868B9002405E062
:104520001448005D14490855601CC4B2022CF7DB26
:1045300001200F49087010BD00240AE00E48005DFC
:104540000C49095D884202D0FFF79CFB03E0601C28
:10455000C4B2022CF2DB00BF002405E00548005D78
:1045600005490855601CC4B2022CF7DB00BFE2E726
:104570003200002054000020300000203EB500240E
:1045800006E069469DF80800FFF748F8601CC4B2D1
:10459000082C05D2694602A8FDF70CF80028F0D1D6
:1045A0003EBD000070B5FFF719FB044607480068E0
:1045B000251A05B970BD054804602846FDF792FF2D
:1045C0002846FDF7C7FB00BFF4E7000038000020D5
:1045D00070B5FFF703FB04460B480068201AB0F5DE
:1045E0007A7F00D270BD08480460FCF77FFB054667
:1045F000284600F065F980B2044908600020FFF702
:1046000045FC00BFEEE70000340000206000002001
:104610003EB5002404E06846FFF7E6FA601CC4B229
:10462000082C04D26846FEF74FFD0028F3D13EBDAA
:104630002DE9F041044604B9012400261A48006817
:10464000B0FBF4F505B901256F1EB7F5803F17D310
:10465000200415490968B1FBF0F6B6F5803F01D397
:104660004FF6FF76701C60430F490968B1FBF0F507
:1046700005B901256F1EB7F5803F01D34FF6FF77CF
:10468000B1B201220948FEF790FAB9B20748FEF725
:104690008FFA00210548FEF794FA01210348FEF73E
:1046A0005CF9BDE8F081000060010020000C0040D2
:1046B0002DE9F041044604B9012400261A48006897
:1046C000B0FBF4F505B901256F1EB7F5803F17D390
:1046D000200415490968B1FBF0F6B6F5803F01D317
:1046E0004FF6FF76701C60430F490968B1FBF0F587
:1046F00005B901256F1EB7F5803F01D34FF6FF774F
:10470000B1B201220948FEF750FAB9B20748FEF7E4
:104710004FFA00210548FEF754FA01210348FEF73D
:104720001CF9BDE8F081000070010020001000407D
:104730002DE9F05F82462F48D0F800905546B9F138
:10474000000F02D10120BDE8F09FA94502D9A9EBD5
:10475000050000E00020804626488069A84224D950
:104760002448806823498968A0FB01010222214B6B
:104770001B69A2FB03234FF0000CA2FB05BE03FB49
:1047800005E302FB0C3210EB0B0641EB020730464F
:104790003946FFF787F9044616484169A14200D21D
:1047A000446904B901242046CDE71248C069404558
:1047B0001DD302200F490969A0FB01120023A1FBB0
:1047C000086C02FB08C201FB032730463946FFF79D
:1047D00069F90446B8F1000F01D004B90124054875
:1047E0004069A04201D2034844692046ABE7014832
:1047F0004069A8E7402C00202DE9F05F82462F4851
:10480000D0F800905546B9F1000F02D10120BDE863
:10481000F09FA94502D9A9EB050000E000208046E1
:1048200026488069A84224D9244880682349896899
:10483000A0FB01010222214B1B69A2FB03234FF0C5
:10484000000CA2FB05BE03FB05E302FB0C3210EBE0
:104850000B0641EB020730463946FFF723F90446C1
:1048600016484169A14200D2446904B90124204696
:10487000CDE71248C06940451DD302200F490969A0
:10488000A0FB01120023A1FB086C02FB08C201FB84
:10489000032730463946FFF705F90446B8F1000F03
:1048A00001D004B9012405484069A04201D203485F
:1048B00044692046ABE701484069A8E70C2800207E
:1048C000C10DD1F19E0206DB4FEA002343F0004305
:1048D00023FA02F07047004207D54FEA4001B1F1D8
:1048E000FE4F02D24FF00000704710B500F0A1F863
:1048F00049922480002070476FEA20007047000032
:1049000010F0004148BF4042B0FA80F310FA03F2C1
:10491000C3F19D030BD051EAC35101EB12205306A2
:1049200038BF704700F1010008BF20F00100704758
:104930004FF47F0C1CEAD0121EBF1CEAD11392EA7E
:104940000C0F93EA0C0F00F0478090EA010F48BF6C
:1049500042F480724FF0004C4CEA00204CEA0121F6
:1049600002EB0302A0FB0113A2F50002002918BF0D
:1049700043F001035B0028BF4FEA330342EB2242BE
:104980005FEA132C4CEBC2502EBFBCEB436FB2F569
:104990007C0F70474FEA036CBCF1004F08BF20F05A
:1049A0000100B2F57C0F38BF70470BD582F0FF02D3
:1049B00012F5803FC8BF704700F1C040D8BF00F07B
:1049C0000040704700F5000C5FEA4C0C48BF704790
:1049D000B0F1C04000F073B890EA010F0CEAD113B7
:1049E00048BF42F48072624538BF634504D280EA12
:1049F000010000F00040704710B500F01AF800BF49
:104A00008900013E00F007B800F009B85FEA410CE8
:104A10005FEA1C6C08D080EA010000F050B85FEA41
:104A2000400C5FEA1C6CF6D14FF00040A0F580000E
:104A300070470EF1020E2EF0030E5EF8044B244276
:104A400004D44FEA4102B2F17F4F11D84FEA40033C
:104A5000B3F17F4F0CD80ED14FEAD07CB2F17F4F2B
:104A60000CEB4C0C0CF1020C08BF4CEBD17C04E0BD
:104A70004FF0080C01E04FEAD17C0CEB4C0324FA18
:104A800003F404F00704B4F1040C06D20EEB840C1A
:104A9000BDE810404CF0010C6047DFE80CF007085F
:104AA00002024FF00040A0F5800010BD0846420011
:104AB00018BFD2F1807288BF00F0004010BDFF2106
:104AC00041EAD050C005704700000000000000021D
:104AD00002020203030303030303030102030405A9
:104AE0000607000102030001020304050607000097
:104AF00000000000000000000000000000000000B6
:104B000000000000000000000000000000000000A5
:104B10000000000000000000000000000000000095
:104B20000000000000000000010000000010014033
:104B30000040000000100140008000000010014013
:104B40000100000001000000001001400200000010
:104B500000100140040000000010014008000000A7
:104B6000010000000010014020000000000C014086
:104B700001000000000C0140020000009C4B0008F6
:104B800000000020B40100006C010008F44B000894
:104B9000B401002034350000C801000851140C0194
:104BA00040321013010935E803E803C26403A3048B
:104BB000D01A10C45A40084A8008DA01205A020864
:104BC0005A0408C2085A0C3019185A2010393001FA
:104BD000376A32063BA24A6F91E91009151C680931
:104BE00001020304060708090C6910050002040607
:044BF00008000000B9
:0400000508000131BD
:00000001FF
